:06000600017A00017B00FD
:100E81007F03120E2A120D8D120D11120E08056923
:020E910080FCE3
:100D8D0043920143B208C2B4C2B57580FF7590FF9E
:100D9D0075A0FF75B0F775C00FC290E4F5B8F5B743
:100DAD00D2B8D2B9D2BC43B701C2A8C2AAD2AF221F
:080C3B007F987E3A7D007C00E9
:080C43008F6F8E6E8D6D8C6CBD
:100C4B00E4F570F571F582F583F570F571E4F583D4
:100C5B00F582AF82AE83E4FCFDAB6FAA6EA96DA8E3
:100C6B006CD31205FB4006000000A380E50571E57F
:0B0C7B0071700205706405457070D2B6
:010C8600224B
:080CCD008F668E658D648C6357
:100CD500E4F567F568F582F583F567F568E4F5836E
:100CE500F582AF82AE83E4FCFDAB66AA65A964A874
:100CF50063D31205FB4006000000A380E50568E507
:0B0D050068700205676405456770D246
:010D100022C0
:020E2A008F6ACD
:100E2C00E4F56BE56BC3956A5012C2B4C2B5120CF3
:0C0E3C003BD2B4D2B5120C3B056B80E732
:010E48002287
:100DE600787B7601E4F558F557F556F5557561D2D9
:100DF600756004F55FF55E12097E7F07120E4902E3
:020E06000BE9F6
:100E0800787B7601E4F558F557F556F5557561D3B5
:100E1800756004F55FF55E12097E7F07120E4902C0
:020E28000BE9D4
:100E6600E4FEC297EF30E704D2928002C292D29398
:0A0E7600EF25E0FFC2930EBE08EA6C
:010E8000224F
:03000300020D5299
:100D5200C0E0C0F0C083C082C0D075D000C000C067
:100D620001C002C003C004C005C006C00712063F8E
:100D7200D007D006D005D004D003D002D001D000D5
:0B0D8200D0D0D082D083D0F0D0E0327F
:100C8700626569206A696E67000000000073686F1B
:100C9700752064750000000000007368616E6720AE
:100CA700686169000000007469616E206A696E00FE
:100CB7000000000063686F6E672071696E6700004F
:060CC70000010103070813
:10000C0064D30000494433030000000001765052D1
:10001C0049560000000E00005065616B56616C750E
:10002C006500FF7F0000505249560000001100008F
:10003C00417665726167654C6576656C00A1290037
:10004C0000000000000000000000000000000000A4
:10005C000000000000000000000000000000000094
:10006C000000000000000000000000000000000084
:10007C000000000000000000000000000000000074
:10008C000000000000000000000000000000000064
:10009C000000000000000000000000000000000054
:1000AC000000000000000000000000000000000044
:1000BC000000000000000000000000000000000034
:1000CC000000000000000000000000000000000024
:1000DC000000000000000000000000000000000014
:1000EC000000000000000000000000000000000004
:1000FC0000000000000000000000000000000000F4
:10010C0000000000FFE210C00BC10007F04E80D0D1
:10011C00618628F3F6006E040E4CD7B4111C8217BE
:10012C0076C93113E51C185C83C6BC85DB913E3067
:10013C00073E53251C160D3EFFE210C06C920508BD
:10014C002856C5714F00000CE2CE236A07EC0CF167
:10015C00DE6BC064CC7BC910063CFFFFFDB15020A8
:10016C00205CD70402763A9588F731BEFFE212C0C4
:10017C004AC10905B036F42989000041D487E8FB4F
:10018C00BFFFFFE8089FFFD65F680F76CD0C927D0E
:10019C000F6E5482CA7FFFFFFF3AB1E0B202C7ED87
:1001AC0079FFE210C0B5381807904704B1C70000BA
:1001BC009103CE0A82041F80040147F86BC20FFF23
:1001CC00080F6A898A7FFFFFFC11890C8A099CD071
:1001DC00C4426D0F49FFE210C0E7FC1E07A076FD7C
:1001EC0070394A486D908680FC7E0DBDF25D4DD015
:1001FC0026205817FFEB7C4C02EA482AE98D3F6019
:10020C001A82C07E2209EF90C7FFE210C0A4C62458
:10021C000658730990104A48C930CAC606D1E1AFD6
:10022C00FEB1A83803089D20844A402C7F06003775
:10023C00207037B18580004161A20A7113FFE21270
:10024C00C0E95B2F06786F01902850483B3A7FFF3E
:10025C00FFFFFF4BAB6FB3B19950470CA5F2268A49
:10026C00023EA5E6233A16B08729865D07FC868AEE
:10027C00D404FFE210C04E213B09C967059011441C
:10028C00916353FFFFFFFFFFFFFFF2E533A0A431A3
:10029C008C6941F408880003C12F1680696EECE963
:1002AC0028B9B651141CFFE210C0195C38094992E8
:1002BC00DCC8840490BBFFFFFFFFFE0D3BE9FCB3E1
:1002CC00EB01F830013F78F48014203D575A6A272F
:1002DC0044E954E9968BA5430AB0FFE210C090BCE8
:1002EC003707805AEB840ACE2885FFFF00B1271907
:1002FC000D198442032200008C26FA2AF70315D923
:10030C000A46B2C6F341AF23FFFF51203D67FFE21F
:10031C0012C0972D3E088086A1A14F4800DFE65100
:10032C00A0C529501032001089BF9A3E246FA0122C
:10033C00816005C0AE7E251507FFFFFFCFB3FE9B86
:10034C0058806DFFE210C0F33E4208806B0D19829D
:10035C001000228C0D046FF163C57F8F0F80D0D0FD
:10036C00321BFA2648FFFFFCD05CC7FFC90A881075
:10037C0008023FE8A46037FFE210C0F0CC45081833
:10038C005F1639CA0000FFF83030E45DA35A32D34F
:10039C0080A6BFFE9A1BFFFFFFABB1C81C2E80923C
:1003AC001B8081F800C22220191AA0FFE210C0E9BC
:1003BC003E4907388F057009DA4CCACEE2B92717C7
:1003CC0008C1C1D156CD5C0C1DFFFFD33440800158
:1003DC009024798B6D855A22989B4652CA2405FF2E
:1003EC00E212C06A2C5107A94705482984906D4D2B
:1003FC00C977FFFFADC74CA6601186C28968512C26
:10040C00A2789F199808080A44933FFFFFF057FF02
:10041C00FCEAC603FFE210C05AE9580830931630C4
:10042C0008584C21A4016BC00A8F8048861495890A
:10043C00C862283A1126552790B889CB3568725472
:10044C0088446C1151AD0000FFE210C0DC6D5C06FD
:10045C00B08B059008504C54414700000000000040
:10046C000000000000000000000000000000000080
:10047C000000000000000000000000000000000070
:10048C000000000000000000000000000000000060
:10049C000000000000000000000000000000000050
:1004AC000000000000000000000000000000000040
:1004BC000000000000000000202020202020202030
:1004CC002020202020202020202020202020202020
:1004DC002020202020200C045500000000045E0089
:1004EC00000000045100000000045900000000014D
:0804FC007900015D0001760F9B
:100D1100D2B37F017E007D007C00120C43C2B37F01
:100D2100017E007D007C00120C43D2B37F017E0066
:100D31007D007C00120C43C2A67F017E007D007CF9
:100D410000120C43D2A67F017E007D007C00020CC4
:010D5100435E
:10075000E4F55D7F06120E9E7D357F17120E937FA6
:100760000A7E007D007C00120C437F06120E9E7DE7
:10077000037F89120E937F057E007D007C00120CA2
:10078000437D437FCF120E937F057E007D007C006A
:10079000120C437D027FCB120E937D0A7F11120E45
:1007A000937879E6B44019E4FD7F1E120E937D0F15
:1007B0007F19120E937D187F1B120E937D2B8017CD
:1007C000E4FD7F1E120E937D3F7F19120E937D482C
:1007D0007F1B120E937D1F7F1D120E937F0A7E00DA
:1007E0007D007C00120C437D047FCD120E937D4C66
:1007F0007F17120E937F057E007D007C00120C4354
:10080000E4FD7FB9120E937D4F7FCF120E937DFFD3
:050810007F6F020E9352
:10097E00787976401207507D027FBD120E937D4826
:10098E007F17120E937F0A7E007D007C00120C43AF
:10099E007D527F85120E93E4FD7F8F120E93E4FD40
:1009AE007F81120E93E4FD7F83120E937DFF7F8E67
:1009BE00120E937DFF7F8D120E937F017E007D00C0
:1009CE007C00120C437DFF7F87120E937DFF7F8983
:1009DE00120E937F017E007D007C00120C43E4FD1D
:1009EE007F22120E93E4FD7F23120E937DEF7F2064
:1009FE00120E937D077F21120E937D777F24120EA8
:100A0E00937D037F25120E937DBB7F26120E937D61
:060A1E00017F27020E9388
:100B240078797608120750E4FD7FBD120E937D4854
:100B34007F17120E937F0A7E007D007C00120C4307
:100B44007D807F3C120E937D077F3E120E937DFFC6
:100B54007F38120E937D077F3A120E93E4FD7F4097
:100B6400120E937D087F42120E93E4FD7F44120E11
:100B7400937D087F46120E937F017E007D007C00EA
:030B8400020C431D
:10063F00E4F562C2A87F2B120E9E7875A607787913
:10064F00E664087051FD7F29120E93E4FD7F0212BC
:10065F000E937875E630E42D7FB2120E9EEF642173
:10066F0070237FBF120E9EBF351B7FBA120E9E8F57
:10067F0062E562D39400400DE562D394045006788E
:10068F007A76108004787A7611E4FD7F2B120E9320
:10069F00E4FD7F1C805E7F29120E9E7874A6077F73
:1006AF0002120E9E7877A607E4FD7F29120E93E4BF
:1006BF00FD7F02120E937FBA120E9EEF30E538E4E3
:1006CF00FD7F2B120E93E4FD7FBA120E93E4FD7F94
:1006DF00BC120E93E4F55D7D017F08120E937F052A
:1006EF007E007D007C00120CCDE4FD7F08120E937E
:1006FF00E4FD7F33020E93AF61AE60AD5FAC5EABD6
:10070F0054AA53A952A851C31205FB40117D017F72
:10071F00BC120E937D107F29120E93D2A8221208BD
:10072F00157874E6FD7F29120E937877E6FD7F0228
:10073F00120E937F0A7E007D007C00120CCDD2A892
:01074F002287
:100BE900E4F554F553F552F551755D01AF61AE6009
:100BF900AD5FAC5EAB54AA53A952A851C31205FB11
:100C0900502F120B87E4FD7FBA120E937D487F1790
:100C1900120E937D017F33120E937D047F29120EEC
:100C2900937D017F02120E937D5A7F85120E93D216
:020C3900A822EF
:100E49007876A607C3740F9F540F25E025E044C3A5
:0D0E5900FD7F8E120E937D787F87020E9331
:100B8700787BE6605C804F7878E620E354AF61AE0F
:100B970060AD5FAC5EAB54AA53A952A851C312050E
:100BA700FB503E785112061F74002FF58274003EE9
:100BB700F583E0FD7F01120E93E47FD37E04FDFCF5
:100BC700AB54AA53A952A851C31205FB7008F55498
:100BD700F553F552F5517F06120E9E7878A60780D9
:010BE700A667
:010BE80022EA
:10081500E5582554FFE5573553FEE5563552FDE5B8
:100825005535518F668E658D64F563D297C293C237
:10083500977F0B120E66E566FFE565FEE564FDE450
:10084500FC781012060C120E66E566FFE565FEE4FF
:10085500FDFC780812060C120E66E566FFE4120E22
:10086500667FFF120E6680537878E620E358AF6105
:10087500AE60AD5FAC5EAB54AA53A952A851C3128A
:1008850005FB5042E4F567FFC293E56725E0F56790
:10089500D293A296E43342670FBF08ECAD677F01A0
:1008A500120E93E5542401FFE43553FEE43552FD61
:1008B500E435518F548E538D52F5517F06120E9E9D
:0A08C5007878A60780A2D297C293AC
:0108CF002206
:100DBD00E4F573F5727FB2120E9EBF2105757301B6
:100DCD0080147F0A7E007D007C00120C430572E5C5
:080DDD0072C3940A40DFAF73FA
:010DE50022EB
:030EAF00020B240F
:100AB0007D437F35120E937D097F1C120E937D209E
:100AC0007FBD120E937D017F08120E937F017E0081
:100AD0007D007C00120C43E4FD7F08120E937F0121
:100AE0007E007D007C00120C43120DBDEF7002FFF2
:100AF000227DFF7FB2120E937D067F37120E937F09
:100B0000057E007D007C00120C437D0B7F1C120EC5
:100B1000937D107F29120E93E4FD7FBD120E93D2B8
:040B2000A87F012287
:1008D000780B7C007D007BFF7A0C79877E007F415E
:1008E0001205D5784C7C007D007BFF7A0C79C87EA0
:1008F000007F051205D5750901E4F508120DBDEF5D
:100900007004F5098075744C2508F8E6FD7FC11266
:100910000E93E4FD7FC3120E937D047F08120E93A5
:100920007F017E007D007C00120C43E4FD7F0812F5
:100930000E937F017E007D007C00120C43E4F50ADB
:10094000E50875F00DA4240B250AF8E6FD600E7F7E
:1009500005120E93050AE50AC3941440E3AD0A7F1D
:10096000B9120E937DFF7FB2120E937D047F371272
:0D0970000E930508E508C394054081AF090A
:01097D002257
:060EA9007FC5120E9E221F
:0B0E9300908100EFF0908000EDF02255
:0B0E9E00908100EFF0908000E0FF2248
:03000000020A24CD
:0C0A2400787FE4F6D8FD75817B020A6B38
:10050500E709F608DFFA8046E709F208DFFA803ED8
:1005150088828C83E709F0A3DFFA8032E309F608C5
:10052500DFFA8078E309F208DFFA807088828C832D
:10053500E309F0A3DFFA806489828A83E0A3F608E1
:10054500DFFA805889828A83E0A3F208DFFA804CBB
:1005550080D280FA80C680D4806980F28033801092
:1005650080A680EA809A80A880DA80E280CA8033FB
:1005750089828A83ECFAE493A3C8C582C8CCC58373
:10058500CCF0A3C8C582C8CCC583CCDFE9DEE78043
:100595000D89828A83E493A3F608DFF9ECFAA9F0C2
:1005A500EDFB2289828A83ECFAE0A3C8C582C8CC18
:1005B500C583CCF0A3C8C582C8CCC583CCDFEADE31
:1005C500E880DB89828A83E493A3F208DFF980CC93
:1005D50088F0EF60010E4E60C388F0ED2402B4048C
:1005E5000050B9F582EB2402B4040050AF23234533
:0605F500822390055573FE
:1005FB00EB9FF5F0EA9E42F0E99D42F0E89C45F056
:01060B0022CC
:10060C00E8600FECC313FCED13FDEE13FEEF13FFCC
:03061C00D8F122F0
:10061F007401FF3395E0FEFDFC080808E6CF2FF6C6
:10062F0018E6CE3EF618E6CD3DF618E6CC3CF6229F
:100A3000020E81E493A3F8E493A34003F68001F24D
:100A400008DFF48029E493A3F85407240CC8C333C7
:100A5000C4540F4420C8834004F456800146F6DF96
:100A6000E4800B0102040810204080900006E47E20
:100A7000019360BCA3FF543F30E509541FFEE4938B
:100A8000A360010ECF54C025E060A840B8E493A352
:100A9000FAE493A3F8E493A3C8C582C8CAC583CA7D
:100AA000F0A3C8C582C8CAC583CADFE9DEE780BE35
:0105040000F6
:00000001FF
