:020000040800F2
:10000000083D0020B1550008790500087B0500086F
:100010007F05000883050008870500080000000030
:100020000000000000000000000000008B05000838
:100030008D050008000000008F05000891050008EC
:10004000CB550008CB550008CB550008CB55000810
:10005000CB550008CB550008CB550008CB55000800
:10006000CB550008CB550008CB550008CB550008F0
:10007000CB550008CB550008CB550008CB550008E0
:10008000CB550008CB550008CB5500089305000858
:1000900095050008CB550008CB550008A9050008B8
:1000A000CB550008CB550008CB550008CB550008B0
:1000B000CB550008CB550008CB550008CB550008A0
:1000C000CB550008CB550008CB550008CB55000890
:1000D000CB55000899050008A1050008CB5500087C
:1000E00033060008CB550008CB550008CB55000857
:1000F000CB550008CB550008CB550008CB55000860
:10010000CB55000897050008CB550008CB550008D3
:10011000CB550008CB550008CB550008CB5500083F
:10012000CB550008CB550008CB550008CB5500082F
:1001300000F002F800F03AF80AA090E8000C8244BF
:100140008344AAF10107DA4501D100F02FF8AFF29C
:10015000090EBAE80F0013F0010F18BFFB1A43F0A5
:1001600001031847C06F0000E06F0000103A24BF81
:1001700078C878C1FAD8520724BF30C830C144BF0C
:1001800004680C607047000000230024002500264E
:10019000103A28BF78C1FBD8520728BF30C148BFEA
:1001A0000B6070471FB51FBD10B510BD05F0E1FF16
:1001B0001146FFF7F7FF00F041F905F0FFFF03B428
:1001C000FFF7F2FF03BC00F09FFE000008B501211D
:1001D000082002F0C1FA0121042002F0BDFA10202B
:1001E0008DF8030003208DF802004320ADF80000D5
:1001F0006946CE4801F07AFCF020ADF8000069466F
:10020000CB4801F073FC08BD10B54021C74801F090
:100210001AFD4021C54801F018FD10BD00234822F9
:100220000121C34805F0EDFB06E0C1480830006835
:1002300000F0010000B900BFF7E7F0B587B006464F
:100240000D461C22BB49684605F05DFF00240027CF
:1002500000BF09E0305D3038691E091B5DF82110D0
:1002600000FB0177601CC4B2AC42F3DB384607B038
:10027000F0BD2DE9F04F91B081460D4616461F4660
:100280004FF0000BDA46AC480F90812010904946A1
:10029000684604F0E7F98046B8F1000F3AD100BF94
:1002A00009A9684604F014FA8046B8F1000F02D19B
:1002B0009DF82D0000B92CE00F98007808B10F9838
:1002C00001E00DF12D00044620785328E8D1607834
:1002D0005428E5D1A0784D28E2D1E0785F28DFD11D
:1002E000241D05212046FFF7A8FF1FFA80FA286881
:1002F000504501D9286800E05046286030685045D4
:1003000001D2306800E0504630603868401C3860E8
:10031000C6E700BF404611B0BDE8F08F70B50B4690
:100320000021002400BF0DE00A25B0FBF5F605FB17
:100330001604B0FBF5F0814D2E5D551E6D1A5E550D
:100340004D1CE9B29142EFDB70BD10B5029C10BDAF
:10035000F0B5ADF50B7D04460D4616460020009025
:100360000A22214601A803F0E1FC074637B101A8A3
:1003700003F0E8FF07460DF50B7DF0BD6B463246F6
:10038000294601A803F07BFE074601A803F0DAFF27
:1003900000BFF0E770B504460E4615462068401CC5
:1003A0002060052266492068FFF7B8FF6548664966
:1003B000026863480838FFF7CBFF2868401C2860B4
:1003C00070BD2DE9F04104460D462646002704E0A5
:1003D00016F8010B00F07DFE7F1CAF42F8D3BDE89C
:1003E000F08170B5ADF50C7D04460D4600200190FE
:1003F00023E0052252492046FFF790FF0122504991
:10040000083902A803F092FC0646AC4201D8641CED
:1004100002E00DF50C7D70BD06B10EE001AB4A495E
:1004200002A8059A03F046FD064602A803F08AFFDB
:1004300045480199FFF7C5FF00BFDAE7002400BF78
:1004400000BF00BF00BF00BF482000F097FF4FF47F
:10045000E13000F0E8FD3DA000F0A9FE05F06EFBE4
:100460003E48002101603EA000F0A1FE3B4805F09F
:1004700084FC042005F0B0FC202005F088FD02205B
:1004800005F0B1FD05F02EFB3948006820F48070BE
:1004900037490860081D006820F48070091D086055
:1004A000081F006820F40040091F0860081D00684C
:1004B00020F40040091D08600A2000F07BFF2C4852
:1004C000006840F480702A490860081D006840F404
:1004D0008070091D08601EE02648007802281AD1A5
:1004E000002405E01849085D00F0F3FD601C84B2AB
:1004F000144800688442F5D30020124908601C4863
:10050000006840F480701A490860081D006840F4D3
:100510008070091D0860DFE701B502E00098401E09
:10052000009000980028F9D108BD0000000C01409F
:1005300000080140E8610008FC020020D8610008C2
:1005400023000020340000207D03002075617274B8
:1005500020696E6974206F6B210D0A00060000206F
:100560007561727420494943206F6B210D0A0000A8
:100570000004014038000020704700BFFEE700BFC4
:10058000FEE700BFFEE700BFFEE770477047704719
:10059000704770477047704710B500F06CFD10BD94
:1005A00010B500F082FD10BD10B500244FF480702E
:1005B00001F033FA2748006880F0010025490860FF
:1005C0002548006800F4807078B12448006840F441
:1005D000004022490860081D006840F40040091DE1
:1005E000086001201E49087022E01C48006820F4C1
:1005F00000401A490860081D006820F40040091DE9
:1006000008601748007801280FD1022014490870AB
:100610001248006820F4807010490860081D0068C6
:1006200020F48070091D086002E000200C49087069
:1006300010BD10B54FF4004001F0EFF90948806893
:10064000C1B2094802680068401C074B186007489F
:10065000815410BD0C080140080C01400004014009
:100660003800002000100140340000207D030020ED
:1006700010B5002004F0BCFF002005F006F80822A9
:100680000021084605F01BF80721002005F0F6F8C8
:1006900010BD10B5044624B90721002005F0EEF87E
:1006A00003E00121002005F0E9F810BD10B54FF47A
:1006B000FA70F7490860FF21002005F090F800BFAC
:1006C000FF21002005F08BF8C4B2FF2C03D0F048C6
:1006D00000680028F4D1204610BD10B5002005F0B8
:1006E000B7F8FF21002005F07AF810BD10B5002002
:1006F00005F0B9F8FFF7DAFFFF2803D0FFF7EDFFA9
:10070000002010BD0120FCE700BF00BF704710B5FE
:10071000FFF7ECFFFFF7E1FFDE48007840F0010053
:10072000DC49087010BD70B504460E466420DA49F5
:10073000086000BFFF21002005F051F8C5B2FF2D71
:1007400003D1D54800680028F4D1FE2D01D0002047
:1007500070BD00BF00BFFF21002005F040F804F885
:10076000010B00BF00BFFF21002005F038F804F89E
:10077000010B00BF00BFFF21002005F030F804F896
:10078000010B00BF00BFFF21002005F028F804F88E
:10079000010B00BF301F061EDCD1FF2105F01FF842
:1007A000FF21002005F01BF80120D1E72DE9F041E1
:1007B00004460D464FF40077FFF778FFFF2802D07C
:1007C0000020BDE8F0812946002004F0CFFFFD2D78
:1007D0001FD000BF14F8011B002004F0C7FF14F85D
:1007E000011B002004F0C2FFB81E071EF2D1FF213A
:1007F00004F0BCFFFF21002004F0B8FFFF2100201F
:1008000004F0EDFFC6B206F01F00052801D000205D
:10081000D7E70120D5E72DE9F04104460D4604F065
:10082000800058B104F07F0400213720FFF7F3FF68
:100830000646012E02DD3046BDE8F081FFF74DFF90
:10084000FFF754FF08B9FF20F6E744F0400100200D
:1008500004F08CFF290E002004F088FFC5F3074147
:10086000002004F083FFC5F30721002004F07EFF81
:10087000E9B2002004F07AFF012704B99527082C7B
:1008800000D187273946002004F070FF0C2C03D1DB
:10089000FF21002004F0A3FF0A2700BFFF21002052
:1008A00004F09DFFC6B206F0800018B1781EC0B2F9
:1008B000071EF3D13046BFE7764800787047F8B599
:1008C000FFF7D6FE7348007800F0020010B17148BF
:1008D0000078F8BDFFF718FF0020FFF7DAFE1424B8
:1008E00005E0FF21002004F07AFF601EC4B2002C56
:1008F000F7D1002600210846FFF78DFF012869D1B6
:100900004FF47A70644908604FF4D5710820FFF7FE
:1009100082FF01283FD100BF08E0FF21002004F042
:100920005EFFC0B20DF80400601CC4B2042CF4DBFE
:100930009DF8020001284DD19DF80300AA2849D155
:1009400000BF5548006830B14FF08041A920FFF743
:1009500062FF0028F5D15048006800283AD00021F5
:100960003A20FFF758FFA8BB002408E0FF21002031
:1009700004F035FFC0B20DF80400601CC4B2042CB2
:10098000F4DB9DF8000000F0400008B10C2000E00E
:10099000042006461EE00021A920FFF73CFF0128A5
:1009A00002DC0226A92501E00126012500BF3A4804
:1009B000006828B100212846FFF72DFF0028F6D156
:1009C0003548006828B14FF400711020FFF723FF6D
:1009D00000B1002631480660FFF77FFE4EB12D487A
:1009E000007820F001002B4908700120FFF751FE2C
:1009F00001E0FFF78CFE274800786AE770B50646ED
:100A00000D4614462348007800F0010008B1032089
:100A100070BD2248007800F0080000B96D02012C7A
:100A20000BD129461120FFF7F6FEF0B961023046DE
:100A3000FFF779FEC8B1002417E029461220FFF71E
:100A4000EAFE90B900BF4FF400713046FFF76BFE2D
:100A500000B905E006F50076601EC0B2041EF2D1B2
:100A600000BF00210C20FFF7D6FEFFF736FE0CB1C9
:100A70000120CDE70020CBE770B506460D461446B1
:100A80000448007800F0010050B1032070BD000060
:100A9000440000203C0000204000002048000020CE
:100AA000F748007800F0040008B10220EEE7F548AE
:100AB000007800F0080000B96D02012C0BD1294626
:100AC0001820FFF7A8FE40BBFE213046FFF76EFE60
:100AD00018B3002421E0EB48007800F0060018B1BC
:100AE00021469720FFF797FE29461920FFF793FE2E
:100AF00098B900BFFC213046FFF758FE00B905E069
:100B000006F50076601EC0B2041EF3D100BFFD21C1
:100B10000020FFF74BFE00B90124FFF7DEFD0CB10A
:100B20000120B3E70020B1E72DE9FF4707460C4657
:100B3000A146D348007800F0010018B1032004B0AA
:100B4000BDE8F0874FF001080F2F7BD2DFE807F0F8
:100B500008104F55F4F4F4F4F4F4AFB6C3D0E30046
:100B6000FFF7C4FD18B1FFF7B8FD4FF00008E6E04D
:100B700000210920FFF74FFEC0BB10216846FFF798
:100B8000D2FD98B39DF8000000F0C000402809D1C4
:100B90009DF809009DF8081000EB0120461CB002EA
:100BA000206021E09DF8050000F00F009DF80A107C
:100BB00000EBD1109DF8091001F0030100EB41009A
:100BC000851C9DF8080080099DF8071000EB810046
:100BD0009DF8061001F0030100EB8120461CA5F1F1
:100BE000090006FA00F020604FF00008A7E04FF47B
:100BF000007020804FF00008A1E0A248007800F0CB
:100C0000040000B300218D20FFF705FE00284DD120
:100C1000FF2104F0E4FD10216846FFF784FD90B346
:100C2000302505E0FF21002004F0D9FD681EC5B283
:100C3000002DF7D19DF80A00011110208840206096
:100C4000A84633E078E000210920FFF7E4FDD0B9A1
:100C500010216846FFF767FDA8B18A48007800F0C8
:100C6000020088B19DF80A008006400E9DF80B1026
:100C700000EBD110401C9DF80D100122C2EBA11118
:100C80008840206010E011E09DF80B008007C00E46
:100C90009DF80B1000EB5110401C9DF80A10C1F399
:100CA0008401491C484320604FF0000847E0754824
:100CB000007889F800004FF0000840E0002109208A
:100CC000FFF7A9FD30B910212046FFF72CFD08B130
:100CD0004FF0000833E000210A20FFF79CFD30B9F7
:100CE00010212046FFF71FFD08B14FF0000826E055
:100CF00000213A20FFF78FFD60B9002506E0FF21B3
:100D0000002004F06CFD6055681CC5B2042DF6DBB4
:100D10004FF0000813E000218D20FFF77CFD50B953
:100D2000FF21002004F05BFD40212046FFF7FBFC83
:100D300008B14FF0000802E04FF0040800BF00BF08
:100D4000FFF7CBFC4046FAE600214F4A106818B185
:100D5000421E10464C4B1A604C4A106818B1421E95
:100D600010464A4B1A60464A117821F0040121F0DE
:100D700002011170704708B50020009069460120FB
:100D8000FFF7D2FE08B9009808BD0020FCE770B557
:100D900004460D46012221462846FFF72FFE70BD6E
:100DA00070B504460D46012221462846FFF764FE31
:100DB00070BD70B504460D4616463246214628469B
:100DC000FFF71CFE70BD70B504460D461646324650
:100DD00021462846FFF750FE70BD70B504460D460B
:100DE0002748007800F0010008B1032070BD2448B6
:100DF000007800F0040008B10220F7E721480078ED
:100E000000F0080000B96402012D06D12146182027
:100E1000FFF701FD80B900250EE01A48007800F0C8
:100E2000060018B129469720FFF7F5FC2146192046
:100E3000FFF7F1FC00B900252846D7E770B5054655
:100E40000C46012C04D1FE212846FFF7AFFC03E03D
:100E5000FC212846FFF7AAFC70BD10B50446012C02
:100E600002D1FFF73AFC10BDFD210020FFF79EFCE8
:100E700010B9FFF732FCF6E7FFF72FFC00BFF2E7EF
:100E80003C000020480000204000002044000020DA
:100E900070B504460D461A48007800F0010008B10C
:100EA000032070BD1748007800F0080000B9640204
:100EB000012D06D121461120FFF7ADFC38B90025E0
:100EC00005E021461220FFF7A6FC00B900252846C0
:100ED000E7E710B504464FF400712046FFF723FC06
:100EE00010BD10B50446012C02D1FFF7F6FB10BD72
:100EF00000210C20FFF78FFCFFF7EFFB00BFF6E7A8
:100F00003C00002048000020014600BF704770B53B
:100F100004460D4600BF4021F84800F031FC00288F
:100F2000F9D0E1B2F54800F0BDFB204670BD38B500
:100F300005460C46E8B28DF8000000208DF801004F
:100F40008DF8024001208DF80300684600F077FC20
:100F500038BD38B504460D46E94A115DE94A32F814
:100F60001400FFF7E4FFE84951F82410E74A52F86B
:100F7000242041EA0200012101F0EEFB34B9E449EA
:100F800051F82400012101F0E7FB05E0E04951F8A8
:100F90002400012101F0EDFB18208DF80300DD484D
:100FA00030F81400ADF8000003208DF80200DA4993
:100FB00051F82400694600F099FD04208DF80300E3
:100FC000D64830F81400ADF80000D54951F8240097
:100FD000694600F08BFDD34951F82400294600F002
:100FE00068FAD04951F82400012240F2255100F05E
:100FF000F8FACC4951F82400012100F0E6FA38BD96
:1010000070B504460D4600BFC64951F82400402182
:1010100000F0B6FB0028F7D0C24951F82400294659
:1010200000F040FB70BD1FB5044600940020ADF8F1
:101030000400ADF80600ADF80800ADF80C000C2077
:10104000ADF80A0069460020FFF783FF1FBD1FB5FA
:10105000044600940020ADF80400ADF80600ADF899
:101060000800ADF80C000C20ADF80A00694601201C
:10107000FFF76FFF1FBD10B540F225519F4800F0EC
:1010800095FB30B19D4800F011FBA749A74A1278A3
:101090008854A6480078A6490978884204DAA3480B
:1010A0000078401CA149087010BD10B540F22551D0
:1010B000A04800F07BFB58B19E4800F0F7FAC1B29F
:1010C0009D4802780078401C9B4B18709B488154C7
:1010D00010BD10B5044600BF4021884800F050FB09
:1010E0000028F9D02146854800F0DCFA10BD10B583
:1010F000044600BF40218F4800F042FB0028F9D091
:1011000021468C4800F0CEFA10BD10B50446AA2046
:10111000FFF7DFFF2046FFF7DCFF5520FFF7D9FF81
:1011200010BD2DE9F05F054688461646002405F0FF
:10113000FF09C5F3072AC5F3074B2F1684F00904EE
:10114000744084EA0700C4B284EA0B0484EA0A0407
:1011500084EA0904AA20FFF7BCFF0920FFF7B9FFC2
:101160003046FFF7B6FFB8F1000F0CD0F8B2FFF72A
:10117000B0FF5846FFF7ADFF5046FFF7AAFF4846BD
:10118000FFF7A7FF0BE04846FFF7A3FF5046FFF726
:10119000A0FF5846FFF79DFFF8B2FFF79AFF2046E1
:1011A000FFF797FF5520FFF794FFBDE8F09F10B5BC
:1011B000044603E014F8010BFFF78BFF20780028AA
:1011C000F8D110BD10B503460A46002158480078F2
:1011D000904201D05648027054480078544C24780C
:1011E000A0420FD1002104E04F48405C5854481CF5
:1011F000C1B24F4800788142F6DB00204B4C207092
:10120000012010BD0020FCE77EB5054600200090BF
:10121000019002900024002609216846FFF7D2FFC2
:10122000C0B19DF80000AA2814D19DF808005528E7
:1012300010D1032407E01DF80400E11EC900884016
:101240000643601CC4B2072CF5DB9DF802003C4944
:1012500008702E603A4800787EBD10B5044603E061
:101260002078FFF736FF641C20780028F8D110BDE5
:101270003EB5054609240CE00A20B5FBF0F100FB61
:10128000115030300DF804000A20B5FBF0F5601E57
:1012900044B2002CF0DA002406E01DF804003028E7
:1012A00000D003E0601C44B2092CF6DB00BF05E06F
:1012B0001DF80400FFF70DFF601C44B20A2CF7DB99
:1012C0003EBD7CB5044600208DF8060030208DF828
:1012D000000078208DF80100052508E004F00F00DB
:1012E0001849085C0DF805002411681EC5B2022DCE
:1012F000F4DA6846FFF7B1FF7CBD0000003801401A
:1013000028620008246200080C62000814620008C9
:10131000046200081C6200085400002020620008DB
:101320005C0000204C0000207D2B00206800002085
:1013300069000020004400406A0000209B2B002030
:101340006B0000202A62000810B504463020FFF729
:10135000C0FE7820FFF7BDFE074901EB2411087895
:10136000FFF7B7FE04F00F01034A505CFFF7B1FE30
:101370002020FFF7AEFE10BD2A6200084FF0E021EA
:10138000096921F004014FF0E0221161C21700EB5E
:101390005272C2F3C702234B1A701946097801EB47
:1013A0004102C2EBC1114FF6FF7202EAC1011E4AAF
:1013B0001180704701461C4A12884A434FF0E023CF
:1013C0005A6100229A6101221A6100BF4FF0E022A7
:1013D000106900F001021AB100F48032002AF5D041
:1013E00000224FF0E0231A619A61704701460D4ACE
:1013F00012784A434FF0E0235A6100229A61012299
:101400001A6100BF4FF0E022106900F001021AB12A
:1014100000F48032002AF5D000224FF0E0231A6158
:101420009A6170476C0000206E00002010B50446E1
:10143000FB48844209D10121880301F0A7F900216A
:101440004FF4804001F0A2F932E0F648844209D11D
:101450000121480401F0A7F900214FF4003001F008
:10146000A2F925E0F048844209D10121880401F065
:101470009AF900214FF4802001F095F918E0EB482B
:10148000844209D10121C80401F08DF900214FF4F3
:10149000002001F088F90BE0E548844208D10121E1
:1014A000080501F080F900214FF4801001F07BF96C
:1014B00010BD2DE9F04786B005460E460024A24631
:1014C00000BFA1460027B08900B100BF2F462C8A7B
:1014D0004CF6FF700440F08804432C82AC894EF631
:1014E000F3100440B08831890843718908430443EC
:1014F000AC81AC8A4FF6FF400440B0890443AC8213
:1015000001A801F0BCF8C648874202D1DDF810A05E
:1015100001E0DDF80CA0A88900F4004040B10AEB1E
:10152000CA0000EB0A1031684900B0FBF1F807E08F
:101530000AEBCA0000EB0A1031688900B0FBF1F831
:101540006420B8FBF0F004012009642101FB10893C
:10155000A88900F4004040B1322000EBC900B0FB84
:10156000F1F000F00700044308E0322000EB09101E
:101570006421B0FBF1F000F00F0004432C8106B0B1
:10158000BDE8F0874FF41651016000218180C180D1
:1015900001810C21418100218181704710B50246F3
:1015A0000020108A4FF2FF0318400B884C88234319
:1015B0008C882343CC8823431843108210BD00211C
:1015C000018041808180C180704721B1828942F4CD
:1015D0000052828104E082894DF6FF731A408281B5
:1015E0007047F0B50346002400260025002040F691
:1015F0006A17B94200D100BF1846C1F3421401F086
:101600001F06012707FA06F5012C01D10C3004E072
:10161000022C01D1103000E014301AB107682F43BA
:10162000076002E00768AF430760F0BD1AB1838A24
:101630000B43838202E0838A8B4383827047028A52
:101640004FF6F0731A400282028A0A430282704700
:1016500082894FF2FF731A40828182890A43828114
:10166000704721B1828942F00202828104E08289BE
:101670004FF6FD731A4082817047028A4FF6DF737E
:101680001A400282028A0A430282704721B1028A0A
:1016900042F48042028204E0028A4BF6FF731A4051
:1016A00002827047C1F30802828070470146888831
:1016B000C0F308007047818941F0010181817047C2
:1016C000028BD2B20283028B42EA0122028370476C
:1016D000028B02F47F420283028B0A43028370472B
:1016E00021B1828A42F02002828204E0828A4FF68F
:1016F000DF731A408282704721B1828A42F0100261
:10170000828204E0828A4FF6EF731A408282704729
:1017100021B1828A42F00802828204E0828A4FF676
:10172000F7731A408282704721B1828942F40042E5
:10173000828103E08289C2F30E028281704721B167
:10174000828A42F40062828204E0828A4FF2FF734E
:101750001A4082827047828A4FF6FB731A40828257
:10176000828A0A438282704721B1828A42F0020251
:10177000828204E0828A4FF6FD731A4082827047AB
:1017800002460020B1F5007F00D100BF13880B4056
:101790000BB1012000E00020704701F40072B2F5A7
:1017A000007F00D100BFCA430280704770B5024677
:1017B000002400230025002040F66A16B14200D123
:1017C00000BFC1F3421501F01F03012606FA03F31F
:1017D000012D02D19689334006E0022D02D1168AEE
:1017E000334001E0968A33400C12012606FA04F4D5
:1017F0001688344013B10CB1012000E0002070BD08
:1018000010B50022002340F66A14A14200D100BFA7
:101810000A1201249440A3B2DC43048010BD0000EE
:10182000003801400044004000480040004C0040A7
:101830000050004031490143314A1160704770B592
:10184000002100230F22C47804B32D4C246804F433
:10185000E064C4F5E064210AC1F10403CA4044789D
:1018600004FA03F18478144021430901254C0678D9
:10187000A155047804F01F050124AC4005786D11D2
:10188000AD0005F1E025C5F8004109E0047804F059
:101890001F050124AC401C4D0678761145F8264002
:1018A00070BD1A4A0A400243154B1B1F1A6070474D
:1018B00039B1134A121D12680243114B1B1D1A60E5
:1018C00006E00F4A121D126882430D4B1B1D1A6061
:1018D0007047042808D14FF0E021096941F0040164
:1018E0004FF0E022116107E04FF0E021096921F09B
:1018F00004014FF0E0221161704700000000FA057A
:101900000CED00E000E400E080E100E080FFFF1F5C
:10191000002044490860091D0860091D0860091D70
:10192000086041483F4914310860704700213D4933
:101930008279002A3AD00A46126803689A430B4615
:101940001A600A1D126803689A430B1D1A60027917
:1019500011440A6803681A430A60324A083212685E
:1019600003689A432F4B08331A601A1D12680368E4
:101970009A432C4B0C331A604279102A0ED11A1F4D
:10198000126803681A43274B08331A601A1D12683D
:1019900003681A43234B0C331A600DE02149427946
:1019A00011440A6803681A430A6005E00279114489
:1019B0000A6803689A430A60704700210160017158
:1019C0000C2141710021817170471649103109685D
:1019D0000143144A10321160704701460020114A39
:1019E000143212680A400AB1012000E0002070475A
:1019F0000C49143108607047014600200022094B51
:101A00001B6803EA0102074B14331B680B4013B138
:101A10000AB1012000E0002070470249143108603B
:101A20007047000000040140FFFF0F0010B504469E
:101A3000CC48844208D10121042000F0A7FE0021F7
:101A4000042000F0A3FE46E0C748844208D10121EB
:101A5000082000F09BFE0021082000F097FE3AE0ED
:101A6000C248844208D10121102000F08FFE0021DD
:101A7000102000F08BFE2EE0BD48844208D10121E9
:101A8000202000F083FE0021202000F07FFE22E0D5
:101A9000B848844208D10121402000F077FE00219F
:101AA000402000F073FE16E0B348844208D10121C3
:101AB000802000F06BFE0021802000F067FE0AE02D
:101AC000AE48844207D10121801500F05FFE00215D
:101AD000A01500F05BFE10BD10B50121084600F016
:101AE00055FE0021012000F051FE10BD2DE9F0410E
:101AF000024600250026002000230024002791F83C
:101B000003C00CF00F0591F803C00CF0100CBCF1F1
:101B1000000F03D091F802C04CEA050591F800C00F
:101B2000BCF1000F31D0146800202BE04FF0010C05
:101B30000CFA00F3B1F800C00CEA03069E4220D173
:101B400083004FF00F0C0CFA03F7BC4305FA03FCBB
:101B50004CEA040491F803C0BCF1280F06D14FF001
:101B6000010C0CFA00FCC2F814C00AE091F803C0A2
:101B7000BCF1480F05D14FF0010C0CFA00FCC2F883
:101B800010C0401C0828D1D31460B1F800C0BCF1CB
:101B9000FF0F34DD546800202EE000F1080C4FF0F8
:101BA000010808FA0CF3B1F800C00CEA03069E42E3
:101BB00021D183004FF00F0C0CFA03F7BC4305FA58
:101BC00003FC4CEA040491F803C0BCF1280F05D1D2
:101BD00000F1080C08FA0CF8C2F8148091F803C060
:101BE000BCF1480F07D100F1080C4FF0010808FACA
:101BF0000CF8C2F81080401C0828CED35460BDE811
:101C0000F0814FF6FF710180022181700421C170C3
:101C100070470246002093680B400BB1012000E0A2
:101C2000002070470146886880B270470246002055
:101C3000D3680B400BB1012000E000207047014643
:101C4000C86880B2704701617047416170470AB14E
:101C5000016100E041617047C16070474FF480321C
:101C60000A438261816182618269826970470246AA
:101C70000020434B18684FF68073184040EA02106A
:101C800008433F4B186070473E49C8617047F0B544
:101C90000A46002300240021002500F00046B6F18A
:101CA000004F02D1364EF16901E0354E7168C0F344
:101CB000034583B200F44016B6F5401F08D121F069
:101CC00070612F4E766826F070662D4F7E6012E0B0
:101CD00000F48016B6F5801F06D1032606FA05F437
:101CE000A14341F0706106E0460D360103FA06F6A5
:101CF000B14341F0706122B1460D360103FA06F698
:101D0000314300F00046B6F1004F02D11C4EF161A4
:101D100001E01B4E7160F0BD30B500228B071C0F37
:101D20000F2303FA04F2164B08338C1053F82430B7
:101D30009343134C08348D1044F8253023468C10FF
:101D400053F824308C07240F00FA04F423430C4C7E
:101D500008348D1044F8253030BD0A49DC31086064
:101D60007047000000080140000C014000100140D5
:101D70000014014000180140001C014000200140F7
:101D8000000001400000204210B50446F44884429F
:101D900009D10121480500F006FD00214FF4001093
:101DA00000F001FD08E00121880500F0FCFC0021A5
:101DB0004FF4800000F0F7FC10BD2DE9F04385B032
:101DC00004460D460026B1460427DFF89883A6880E
:101DD0004FF6C0700640684600F051FCDDF8088000
:101DE000E148B8FBF0F01FFA80F946EA0906A68040
:101DF00020884FF6FE71084020800026DB492868C5
:101E000088420CD828684000B8FBF0F087B2042F55
:101E100000DA04273E4309F10100208427E0E88826
:101E20004BF6FF71884206D1286800EB4000B8FBF2
:101E3000F0F087B209E0286800EBC00101EB001068
:101E4000B8FBF0F087B247F48047C7F30B0008B93E
:101E500047F0010747F4004006434FF4967009FB32
:101E600000F04FF47A7190FBF1F0401C2084A683BF
:101E7000208840F00100208026884FF6F53006408B
:101E8000A8886989084306432680A88929890843C8
:101E9000208105B0BDE8F08341F288310160002166
:101EA00081804BF6FF71C1800021018141814FF497
:101EB00080418181704721B1028842F00102028095
:101EC00004E002884FF6FE731A400280704721B189
:101ED000828842F40062828004E082884FF2FF73BD
:101EE0001A408280704721B1828842F480528280F9
:101EF00004E082884EF6FF731A408280704721B159
:101F0000028842F48072028004E002884FF6FF6388
:101F10001A400280704721B1028842F400720280A8
:101F200004E002884FF6FF531A400280704721B147
:101F3000028842F48062028004E002884FF6FF3398
:101F40001A40028070470A46002181894FF60173CA
:101F5000194002F0FE0319438181704721B1828943
:101F600042F00102828104E082894FF6FE731A403A
:101F70008281704721B1028842F04002028004E071
:101F800002884FF6BF731A40028070471AB18388E7
:101F90000B43838002E083888B43838070470182F8
:101FA00070470146088AC0B2704712B141F0010182
:101FB00002E04FF6FE7319400182704708B50246F1
:101FC000002000900092009808440090009800883B
:101FD00008BD21B1028842F40042028003E0028879
:101FE000C2F30E0202807047B1F5005F04D102888F
:101FF00042F40052028004E002884DF6FF731A405A
:102000000280704721B1028842F48052028004E0CD
:1020100002884EF6FF731A4002807047B1F5006FD8
:1020200004D1028842F40062028004E002884FF288
:10203000FF731A400280704721B1028842F02002EB
:10204000028004E002884FF6DF731A400280704776
:102050000146088B0012704721B1028842F010023D
:10206000028004E002884FF6EF731A400280704746
:1020700021B9028842F08002028004E002884FF613
:102080007F731A4002807047B1F5804F05D0828B74
:102090004BF6FF731A40828303E0828B42F4804246
:1020A0008283704770B5024600240025002300207B
:1020B000958A138B1B0445EA030626F07F4404EA45
:1020C00001068E4201D1012000E0002070BD10B554
:1020D00001460020002300228B8A0A8B120443EA67
:1020E000020424F07F4010BD0CB5024600200023FE
:1020F0000193009300920B0F019321F07F41019B0C
:102100001BB1009B1433009303E0090C009B1833B0
:102110000093009B1B680B400BB1012000E00020E6
:102120000CBD002221F07F42D3438382704730B53B
:10213000024600200023948801F0E06504EA15437C
:1021400021F07F41948A0C4014B10BB1012000E0D2
:10215000002030BD002221F07F42D34383827047AC
:102160000054004000127A0040420F00A086010097
:1021700010B50446BE48844208D10121801400F005
:1021800005FB0021A01400F001FB16E0B9488442D1
:1021900008D10121001400F006FB0021201400F0FA
:1021A00002FB0AE0B448844207D10121C01300F0C9
:1021B000FAFA0021E01300F0F6FA10BD10B5002283
:1021C000028802F441520B884C8823438C882343B5
:1021D000CC8823430C8923434C8923438C89234394
:1021E000CC8923431A430280838B4FF2FF74234030
:1021F00083830B8A038210BD2DE9F04F85B005461D
:102200000C464FF0000902274FF000084FF0010B79
:102210000026B246A88B4FF240010840A883022056
:102220002884B5F81C90A068022801D100BF38E0CE
:10223000A08810B94FF0010B01E04FF0020B8D4860
:10224000854200D100E000BF684600F018FADDF8D2
:1022500000A0E088B0F5007F0AD14FEA1A2000EB19
:1022600080004000A168B0FBF1F0401D86B20BE099
:102270004FEA4B10BAFBF0F000EB80004000A16881
:10228000B0FBF1F0401D86B20A20B6FBF0F606F076
:102290000108A6EB0800C0F34F074FF6FF7000EAF5
:1022A0000828022F01DBFF2F02DD02274FF0000874
:1022B000E08840EA080038432884A088A1890843C0
:1022C000618808432188084340F4006040EA090916
:1022D000A5F81C9005B0BDE8F08F00210180418079
:1022E0008180C180018141818181C1810721018279
:1022F00070470021018041808180C180022181607E
:1023000000218181704721B1028842F040020280A1
:1023100004E002884FF6BF731A400280704721B173
:10232000828B42F48062828304E0828B4FF6FF331B
:102330001A408283704730B5002400230C11012518
:10234000A540ABB21AB185881D43858002E085881F
:102350009D43858030BD1AB183880B43838002E0A2
:1023600083888B43838070478181704701468889C9
:1023700070474FF6FF62914204D0028842F48072A7
:10238000028004E002884FF6FF631A400280704723
:1023900021B1828842F00402828004E082884FF6F4
:1023A000FB731A408280704702884FF2FF731A4015
:1023B000028002880A4302807047018841F48051FC
:1023C0000180704721B1028842F40052028004E08B
:1023D00002884DF6FF731A400280704702460020C3
:1023E000012901D0108B00E0908A70470146088ACD
:1023F0007047B1F5804F04D1028842F480420280D8
:1024000004E002884BF6FF731A40028070470246D0
:10241000002013890B400BB1012000E00020704721
:10242000CA4302817047F0B5024600200024002311
:10243000002501F00F070126BE40B4B20B110126A2
:102440009E40B3B2968806EA03051689264016B167
:102450000DB1012000E00020F0BD10B5002201F018
:102460000F040123A3409AB2D343038110BD00009F
:102470000030014000380040003C0040DF48006868
:1024800040F00100DD49086008464068DC4908402A
:10249000DA49486008460068DA490840D7490860C8
:1024A0000846006820F4802008600846406820F450
:1024B000FE0048604FF41F0088607047CF490968EC
:1024C00021F48031CD4A11601146096821F4802140
:1024D0001160B0F5803F03D0B0F5802F0ED106E03B
:1024E000C649096841F48031C44A116007E0C34914
:1024F000096841F4A021C14A116000E000BF00BF9B
:10250000704710B501460022002300204A11012A1D
:1025100002D1BA4C236806E0022A02D1B74C236AE2
:1025200001E0B64C636A01F01F02012494401C4094
:102530000CB1012000E0002010BD38B50020009053
:102540000024002500BF3120FFF7DBFF054600987F
:10255000401C00900098B0F5A06F01D0002DF2D083
:102560003120FFF7CEFF08B1012400E0002420460F
:1025700038BD01460020A14A106820F0F80040EA6A
:10258000C10010607047A0490860704702460020F3
:102590009A4B586820F47C1042EA01031843974B89
:1025A0005860704798490866704701460020934A72
:1025B000506820F003000843506070478F4840681F
:1025C00000F00C007047014600208C4A506820F053
:1025D000F00008435060704701460020874A506869
:1025E00020F4E06008435060704701460020834AB1
:1025F000506820F4605040EAC1005060704729B133
:102600007E4A527A02437D4B5A7204E07B4A527AE8
:1026100082437A4B5A7270477B49D83108607047C1
:1026200001460020754A506820F44040084350603D
:1026300070470021714A20321170704A82F82010D0
:10264000012802D004280AD104E001216B4A20327B
:10265000117005E00521694A2032117000E000BFC9
:1026600000BF70476949086070476449096A0143BF
:10267000624A11627047654944390860704730B555
:1026800000210022002400235C4D6D6805F00C0140
:1026900021B1042905D0082923D105E05C4D05604E
:1026A00022E05B4D05601FE0544D6D6805F470122B
:1026B000524D6D6805F48034022505EB92421CB939
:1026C000544D554305600BE04C4D6D6805F40035E5
:1026D0001DB1504D5543056002E04D4D5543056019
:1026E00002E04B4D056000BF00BF444D6D6805F032
:1026F000F0010909484D6B5C0568DD4045603F4DC0
:102700006D6805F4E061090A434D6B5C4568DD4086
:1027100085603A4D6D6805F46051C90A3E4D6B5CA9
:102720004568DD40C560354D6D6805F44041890B55
:102730003A4D6B5CC568B5FBF3F5056130BD29B159
:102740002E4A526902432D4B5A6104E02B4A5269CA
:1027500082432A4B5A61704729B1284A9269024341
:10276000264B9A6104E0254A92698243234B9A6181
:10277000704729B1214AD2690243204BDA6104E053
:102780001E4AD26982431D4BDA61704729B11B4A48
:10279000D2680243194BDA6004E0184AD2688243D7
:1027A000164BDA60704729B1144A12690243134B81
:1027B0001A6104E0114A12698243104B1A61704792
:1027C00012494039086070470F49C86470470B4987
:1027D000C87170470948406A40F0807007494862F4
:1027E000704701460020054A92680A400AB101205C
:1027F00000E00020704701498872704700100240D5
:102800000000FFF8FFFFF6FE000042428004424253
:1028100000127A0000093D007000002080000020B6
:1028200010B5044614B9FEF74AF810BD0420FCE7C1
:1028300010B5044614B9FEF73FF810BD0420FCE7BC
:102840002DE9F04104460D4616461F4634B93A4676
:1028500031462846FEF7D2F8BDE8F0810420FBE7B8
:102860002DE9F04104460D4616461F4634B93A4656
:1028700031462846FEF700F9BDE8F0810420FBE769
:1028800070B504460D46164624B931462846FEF773
:102890004BF970BD0420FCE700487047D5BF417478
:1028A00070B503460C4603E014F8015B03F8015BC6
:1028B000151EA2F10102F7D170BD30B5034601E04B
:1028C00003F8011B141EA2F10102F9D130BDF0B5CD
:1028D00003461C460D46002000BF161EA2F1010251
:1028E00007D014F8017B15F801CBA7EB0C06301EBE
:1028F000F3D0F0BD024600E0521C107810B1107801
:102900008842F9D1107870472DE9F04104460D4610
:10291000E66AAE422FD0207908B3607801233246B0
:1029200004F13001FFF79CFF10B10120BDE8F081F8
:1029300000202071D4E907100844B0420FD9E7788D
:102940000AE0E069064460780123324604F1300170
:10295000FFF786FF781EC7B2012FF2DC00BF55B12A
:10296000607801232A4604F13001FFF769FF08B1BE
:102970000120DBE7E5620020D8E770B504460021BE
:102980002046FFF7C1FF0546002D59D120780328C6
:102990004FD1607900284CD00020E0624FF40072E3
:1029A000002104F13000FFF788FF552184F82E1232
:1029B000AA2184F82F12522084F8300052213120AD
:1029C00001556121322001554121332001557221E9
:1029D00084F8141284F81512412184F8161261212A
:1029E00084F81712217C84F81812208A010A84F8CE
:1029F00019122069010C84F81A122069010E84F85A
:102A00001B12217B84F81C12A089010A84F81D1274
:102A1000E068010C84F81E12E068010E84F81F12B1
:102A20006078012304F130016269FFF719FF00208B
:102A30006071607800221146FFF722FF00B1012586
:102A4000284670BD2DE9F04105460C46022C02D304
:102A5000A869A04202D80120BDE8F08128780128A9
:102A600004D002282CD003285AD13DE0274607EB9A
:102A70005707286A00EB57212846FFF745FF00B1AA
:102A80004EE0C7F3080105F1300010F801807F1C0B
:102A9000286A00EB57212846FFF736FF00B13FE0D8
:102AA000C7F3080105F13000405C48EA002804F053
:102AB000010010B14FEA1810CEE7C8F30B00CBE7C6
:102AC000286A00EB14212846FFF71EFF00B127E01B
:102AD00040F2FF1000EA440105F130000E18307892
:102AE000717840EA0120B7E7286A00EBD411284644
:102AF000FFF70AFF00B113E040F2FF1000EA840183
:102B000005F130000E18F0780006B17840EA014077
:102B1000717840EA01203178084320F070409BE74B
:102B200000BF4FF0FF3097E72DE9F04705460E460E
:102B30001746022E02D3A869B04202D84FF002080D
:102B40008AE02878012804D0022841D003287DD1CA
:102B500054E0B14609EB5909286A00EB592128468F
:102B6000FFF7D2FE8046B8F1000F00D071E0C9F344
:102B7000080105F130000C1806F0010020B1F9B28F
:102B8000207861F31F1000E03846207009F1010938
:102B900001202871286A00EB59212846FFF7B4FE6E
:102BA0008046B8F1000F00D053E0C9F3080105F1E9
:102BB00030000C1806F0010010B1C7F3071005E053
:102BC000207800F0F000C7F303210843207040E0B4
:102BD000286A00EB16212846FFF796FE8046B8F1DA
:102BE000000F00D035E040F2FF1000EA460105F189
:102BF00030000C182770380A60702AE0286A00EB51
:102C0000D6112846FFF780FE8046B8F1000F00D0AD
:102C10001FE040F2FF1000EA860105F130000C18B9
:102C2000E0780006A17840EA0140617840EA01209E
:102C30002178084300F0704007432770380A60701D
:102C4000380CA070380EE07003E0FFE74FF0020888
:102C500000BF00BF012028714046BDE8F0872DE984
:102C6000F04104460E46022E02D3A069B04201D8BC
:102C7000022725E000271FE031462046FFF7E2FE4D
:102C8000054605B91BE0012D01D1022717E0681C9C
:102C900008B9012713E0002231462046FFF744FF20
:102CA000074607B10BE02069401C20B12069401C99
:102CB0002061012060712E46A069B042DCD800BFBF
:102CC0003846BDE8F0812DE9F04104468846B8F168
:102CD000000F06D1E76817B1A069B84211D80127E3
:102CE0000FE041462046FFF7ADFE0646022E02D217
:102CF0000120BDE8F081A069B04201D93046F8E773
:102D000047463D4600BF6D1CA069A84204D8022575
:102D1000BD4201D90020ECE729462046FFF792FE8C
:102D2000064606B909E0701C08B1012E01D13046F3
:102D3000DFE7BD42E7D10020DBE700BF6FF0704264
:102D400029462046FFF7F0FE10B14FF0FF30D0E7E4
:102D5000B8F1000F08D02A4641462046FFF7E4FEAE
:102D600010B14FF0FF30C4E7E5602069401C20B18E
:102D70002069401E2061012060712846B9E70246A3
:102D8000891E9069801E884201D800207047937880
:102D9000906A01FB0300F9E72DE9F04104460E4675
:102DA000E680A568012D03D020688069A84202D87A
:102DB0000220BDE8F0812DB920680078032801D1F8
:102DC0002068456A65B9E56020680089B04201DC89
:102DD0000220EEE72068406A00EB1610206120E038
:102DE00020688078070112E029462068FFF72AFE54
:102DF0000546681C08B90120DBE7022D03D32068D3
:102E00008069A84201D80220D3E7F01B86B2BE42F7
:102E1000EADAE56029462068FFF7B1FF00EB1610FB
:102E200020612068303006F00F0100EB4110606136
:102E30000020BEE72DE9F04104468846E088401CAA
:102E400086B20EB1206910B90420BDE8F08106F009
:102E50000F0000286FD12069401C2061E06828B96C
:102E600020680089B04266DC0420EEE720688078A4
:102E7000401E00EA161000285DD1E1682068FFF7C7
:102E8000E1FD0546012D01D80220DEE7681C08B9E6
:102E90000120DAE720688069A84246D8B8F1000F1F
:102EA00001D10420D1E7E1682068FFF70CFF054657
:102EB0000DB90720C9E7012D01D10220C5E7681C23
:102EC00008B90120C1E700212068FFF71DFD08B106
:102ED0000120BAE7216801F130004FF400720021AF
:102EE000FFF7EBFC29462068FFF749FF2168C8621D
:102EF000002710E001202168087100212068FFF7F9
:102F000003FD08B10120A0E72068C06A401C2168C9
:102F1000C862781CC7B220688078B842EADC2068B2
:102F2000C06AC01B2168C86200BFE56029462068EE
:102F3000FFF725FF2061E6802068303006F00F01A2
:102F400000EB4110606100207FE72DE9F047054666
:102F50000C46207800F0BF00401E00EB800101EB22
:102F6000C00600274FF0010800BFFA48C05D205C92
:102F7000F849C95D2144497840EA0129B8F1000FB8
:102F800010D0484602F00DFA8046802E07DA31460E
:102F9000761C35F8110002F004FA404508D00020F4
:102FA000BDE8F0874FF6FF70814501D00020F7E7BC
:102FB000781C07460D28D8DB207800F0400038B197
:102FC000B8F1000F04D035F8160008B10020E7E78B
:102FD0000120E5E7F0B50346087800F03F00401E09
:102FE00000EB800707EBC0020025012600BFD9488F
:102FF000405D085CD74F7F5D0F447F7840EA07242F
:103000004EB1802A01DB0020F0BD26461046521C3E
:1030100023F8104005E04FF6FF70844201D00020F5
:10302000F2E7681C05460D28E1DB087800F0400057
:1030300030B1802A01DB0020E6E7002023F81200EF
:103040000120E1E7F0B504461D464D730F27CF720E
:1030500000270F738F76BC4681F81BC0571E07EB05
:10306000870C0CEBC706002738463B4600BF4FF6DF
:10307000FF77B84203D03746761C34F81700DFF8E4
:10308000D4C21CF803C001F80C000712DFF8C4C258
:103090001CF803C08C448CF8017008B94FF6FF701F
:1030A0005F1C3B460D2FE2DB4FF6FF77B84202D0A4
:1030B00034F816700FB942F040020A70F0BD2DE9E5
:1030C000FC4780468A4617461C460B22514640461E
:1030D000FFF7E6FB052C0ADD00BF601000EBC431F2
:1030E00037F8022B881884B238880028F5D10725D4
:1030F00000BF2046E11704EB11710911A4EB011187
:10310000303101F0FF09B9F1390F03DD09F1070092
:1031100000F0FF0928466D1E0DF800902046E117CB
:1031200004EB1171C1F30F14002CE2D17E200DF8D5
:103130000500002600E0761CAE4203DA18F806000F
:103140002028F8D100BF082D04DA28466D1C1DF890
:10315000000000E020203146761C08F80100082E0F
:10316000F1DBBDE8FC8730B5014600200B2200BF33
:10317000431003EBC01411F8015B6319D8B2531E5E
:103180001A1EF5D130BD2DE9F04704460021204636
:10319000FFF702FE074617B13846BDE8F0874FF04B
:1031A000FF09CA4600BF21692068FFF7ADFB07464B
:1031B00007B154E065692E780EB904274FE0E87A2C
:1031C00000F03F08E52E05D008F0080028B1B8F15E
:1031D0000F0F02D04FF0FF093AE0B8F10F0F1CD1EA
:1031E000E069A0B306F0400030B195F80DA006F0FC
:1031F000BF06B146E08820844E450AD1687B504521
:1032000007D12946E069FFF7A0FE10B1A9F101003E
:1032100000E0FF2000F0FF091AE0B9F1000F05D12E
:103220002846FFF7A0FF504500D118E04FF0FF09F6
:103230004FF6FF702084A069C07A00F0010030B919
:103240000B222846A169FFF742FB00B907E0FFE720
:1032500000212046FFF7EEFD0746002FA3D000BF58
:1032600038469AE72DE9F04704464FF0FF09CA4671
:1032700004274CE021692068FFF746FB074607B1A9
:1032800048E0666935780DB9042743E0F07A00F02C
:103290003F08E52D07D02E2D05D008F0080028B1F5
:1032A000B8F10F0F02D04FF0FF0929E0B8F10F0F6E
:1032B0001AD105F0400030B196F80DA005F0BF0519
:1032C000A946E08820844D450AD1707B504507D13E
:1032D0003146E069FFF77EFE10B1A9F1010000E080
:1032E000FF2000F0FF090BE0B9F1000F04D13046D8
:1032F000FFF739FF504502D04FF6FF70208409E0F8
:1033000000212046FFF796FD074607B102E020693D
:103310000028AFD100BF0FB1002020613846BDE8C2
:10332000F0872DE9F04F85B00446D4F81880D4F822
:103330001CB00C22414601A8FFF7B2FA00BF9DF86D
:103340000F0000F0010040B3002088F80B00E0619E
:1033500001270FE03A6200083B465A4601A9404661
:10336000FFF7ADFE2046FFF70EFF054605B103E06F
:10337000781C87B2642FEFDB00BF642F03D10720D6
:1033800005B0BDE8F08F042D01D02846F8E79DF880
:103390000F0088F80B00C4F81CB09DF80F0000F077
:1033A000020070B1002601E0701C86B23BF81600E6
:1033B0000028F9D106F119000D2190FBF1F086B239
:1033C00000E0012600212046FFF7E6FC05460DB18E
:1033D0002846D5E700200746049000BF21692068F1
:1033E000FFF792FA054605B119E0606990F8009080
:1033F000B9F1E50F02D0B9F1000F08D10FB9E0889B
:103400000490781C80B20746B04201D107E0002743
:1034100001212046FFF70EFD0546002DDED000BF3E
:103420004DBB012E27DD20460499FFF7B5FC05466C
:103430000DBBA069FFF797FE0090701E86B200BF1B
:1034400021692068FFF760FA054605B112E0F2B283
:103450006169E069009BFFF7F5FD012021680871B3
:1034600000212046FFF7E6FC05461DB9701E80B21C
:10347000061EE5D100BFD5B921692068FFF744FADF
:103480000546A5B9D4F814A0202200215046FFF724
:1034900014FA0B225046A169FFF702FAA069C07A1C
:1034A00000F018008AF80C000120216808712846F5
:1034B00066E770B50446E688208C4FF6FF729042AE
:1034C00001D1304600E0208C01462046FFF764FC25
:1034D0000546E5B900BF21692068FFF715FA0546E2
:1034E00005B110E0E52061690870012021680871CC
:1034F000E088B04200DB06E000212046FFF79AFC9E
:103500000546002DE7D000BF042D00D10225284636
:1035100070BD2DE9F34F83B0814600200546074674
:10352000049800680190D9F81CA000BF38467F1CA1
:1035300001990C5C202C03DB2F2C01D05C2C00D1DA
:103540001CE0802D03DB062005B0BDE8F08FE4B25F
:103550000121204601F002FF04460CB90620F3E7E2
:10356000802C06DA2146FDA0FFF7C4F908B1062039
:10357000EAE728466D1C2AF81040D7E700BF0198FB
:10358000C11904980160202C01DA042000E0002019
:10359000064608E0681E3AF81040202C02D02E2C77
:1035A00000D002E06D1E002DF4D100BF0DB9062041
:1035B000CAE700202AF815000B222021D9F81800AC
:1035C000FFF77BF9002700E07F1C3AF8170020285E
:1035D000FAD03AF817002E28F6D00FB146F00306BD
:1035E00000E06D1E25B1681E3AF810002E28F8D1B3
:1035F0004FF00008CDF808804FF0080B00BF3846A8
:103600007F1C3AF8104004B954E0202C03D02E2C33
:1036100004D1AF4202D046F00306F0E702985845C5
:1036200001DAAF4216D1BBF10B0F02D146F003060F
:1036300040E0AF4201D046F00306AF4200DD39E082
:103640002F46082002904FF00B0B4FEA88604FEA9C
:103650001068D4E7802C0BDB0021204601F07EFEB1
:1036600004461CB1A4F18000BF490C5C46F0020680
:1036700000BF24B12146BDA0FFF73CF918B15F247B
:1036800046F003060FE0412C04DB5A2C02DC48F024
:10369000020808E0612C06DB7A2C04DC48F0010803
:1036A000A4F1200084B2D9F818300298411C02918C
:1036B0001C54A4E700BFD9F818000078E52803D10E
:1036C0000520D9F818100870BBF1080F03D14FEA94
:1036D00088604FEA106808F00C000C2803D008F04E
:1036E0000300032801D146F0020606F0020058B993
:1036F00008F00300012801D146F0100608F00C0084
:10370000042801D146F00806D9F81800C672002036
:103710001AE72DE9FC5F81460F4607F10908D9F841
:103720001000002851D0D9F81440207B01900026C9
:1037300014E0A55D202D00D112E0052D00D1E52576
:10374000019800F0080030B1412D04DB5A2D02DC55
:1037500005F12000C5B208F8015B761C082EE8DBF5
:1037600000BF207A202819D02E2008F8010B082647
:1037700011E0A55D202D00D10FE0019800F01000B0
:1037800030B1412D04DB5A2D02DC05F12000C5B219
:1037900008F8015B761C0B2EEBDB00BFE07A387279
:1037A000E07F0106A07F41EA0041607F41EA0020FE
:1037B000217F08433860217E607E41EA0020B88086
:1037C000A17DE07D41EA0020F880002088F800001B
:1037D000B86970B3B86900900026D9F8100020B31A
:1037E000B9F820004FF6FF7188421ED0D9F81CB0FE
:1037F00015E00021504601F0B1FD8246BAF1000FFC
:1038000001D1002610E000BFF869401EB04201DC83
:10381000002609E03046761C009901F800A03BF82C
:10382000021BB1F1000AE4D100BF002100988155CC
:1038300000BFBDE8FC9F2DE9F341044601980078E4
:103840002F2803D0019800785C2802D10198401CF1
:1038500001900020A06001980078202807D2002164
:103860002046FFF799FA0646002060612FE000BF6E
:1038700001A92046FFF74DFE064606B126E0204688
:10388000FFF781FC0646A069C77A46B1042E00D036
:103890001CE000BF07F0040000B9052616E007F0A1
:1038A000040000B112E06569E87A00F0100008B980
:1038B00005260BE0A97EE87E41EA00212A7D687D8D
:1038C00042EA002041EA0040A060D1E700BF304654
:1038D000BDE8FC8170B504460D46607801232A4698
:1038E00004F13001FEF7ACFF08B1032070BD94F87D
:1038F0002E1294F82F0241EA00204AF65521884200
:1039000001D00220F2E794F86900010694F86800FB
:1039100041EA004194F8670041EA002094F86610FB
:10392000084320F07F401349884201D10020DDE7A1
:1039300094F88500010694F8840041EA004194F867
:10394000830041EA002094F88210084320F07F4071
:103950000849884210D10020C8E70000222A3A3CDA
:103960003E3F7C7F00000000476200082B2C3B3D5F
:103970005B5D0000464154000120B7E72DE9F74F99
:1039800086B006980068009000980078303805905E
:10399000059809280AD8009840783A2806D1009856
:1039A000801C009006990098086001E000200590B6
:1039B000059818B10B2009B0BDE8F08FFE490598B5
:1039C00051F82040079804600CB90C20F3E72078E8
:1039D00078B16078FEF72CFF804608F0010040B90E
:1039E000089820B108F0040008B10A20E3E700209D
:1039F000E1E700202070059860706078FEF710FF06
:103A0000804608F0010008B10320D4E7089820B1EF
:103A100008F0040008B10A20CDE74FF0000A514633
:103A20002046FFF757FF0546012D13D104F5F77720
:103A3000387978B1F87A0106B87A41EA0041787AA3
:103A400041EA0020397A40EA010A51462046FFF750
:103A500041FF0546032D01D10120ACE70DB10D203A
:103A6000A9E73B20015D94F83C0041EA0020B0F555
:103A7000007F01D00D209EE74620015D94F84700AD
:103A800041EA0029B9F1000F0ED194F85700010660
:103A900094F8560041EA004194F8550041EA0020AC
:103AA00094F8541040EA0109C4F81C904020065DC7
:103AB000E670012E03D0022E01D00D207BE709FB1A
:103AC00006F93D20005D0646A07016B1701E30401C
:103AD00008B10D206FE74120015D94F8420041EAF2
:103AE00000202081207A00F00F0008B10D2062E74D
:103AF0004320015D94F8440041EA002004900498BA
:103B000070B994F85300010694F8520041EA00415C
:103B100094F8510041EA002094F8501008430490B2
:103B20003E20015D94F83F0041EA00200190019899
:103B300008B90D203FE701984844218900EB111096
:103B40000390DDE90301814201D20D2033E7DDE975
:103B50000310401AA178B0FBF1FBBBF1000F01D1BB
:103B60000D2028E7012540F6F670834500D3022595
:103B70004FF6F670834500D303250BF10200A061D8
:103B800003985044A062019850442062032D16D13E
:103B9000208908B10D200EE794F85F00010694F823
:103BA0005E0041EA004194F85D0041EA002094F88B
:103BB0005C1008436062A0698000029014E02089D4
:103BC00008B90D20F7E6206A48446062022D02D150
:103BD000A069400007E0207E00F00100A16901EB30
:103BE000410100EB51000290E169029800F2FF10E0
:103BF000B1EB502F01D20D20DDE64FF0FF302061F8
:103C00000020E060032D5CD1607194F8601094F89E
:103C1000610041EA0020504460616078012304F1B2
:103C200030016269FEF70CFEF0BB94F82E1294F896
:103C30002F0241EA00204AF65521884241D1332023
:103C4000005D01063220005D41EA00413120005D47
:103C500041EA002094F8301008435849884230D196
:103C600094F81702010694F8160241EA004194F80C
:103C7000150241EA002094F8141208435049884282
:103C80001FD194F81F02010694F81E0241EA004178
:103C900094F81D0241EA002094F81C120843E060E9
:103CA00094F81B02010600E00BE094F81A0241EAC6
:103CB000004194F8190241EA002094F818120843D0
:103CC000206125703F480088401C80B23D49088033
:103CD000E0800020E062207100BF6CE670B5044611
:103CE0000D4624B1207810B1E088A84201D0092007
:103CF00070BD6078FEF79CFD00F0010008B1032064
:103D0000F6E70020F4E70246012A01DB0B207047AA
:103D1000294850F822300BB10020187009B100205A
:103D20000870254840F822100020F0E72DE9F743FD
:103D30008CB0054616460020286006F01F0626F0C7
:103D4000010203A90DA8FFF719FE0746CDF824D0FC
:103D50001D480A9027B903A80D99FFF76CFD074687
:103D6000089C0FB904B9062706F01C00002863D090
:103D70004FB1042F03D103A8FFF7D3FA074646F04B
:103D80000806089C09E006F0040008B1082704E0D2
:103D9000E07A00F0110000B10727002F4BD106F0A8
:103DA0000800002847D0FEF777FD804684F80E8093
:103DB0004FEA1821E17309E0880000205252614166
:103DC0007272416184000020A62B00204FEA184146
:103DD00021744FEA186161740020E072207700219D
:103DE0006177A177E177A17EE07E41EA0021227D23
:103DF000607D42EA002041EA004900202075002150
:103E00006175A076E176012003990871B9F1000F80
:103E100011D00398D0F82C8049460398FEF71FFF75
:103E2000074647B9A9F101000399C86041460398C4
:103E3000FEF76AFD07460EE06FB9E07A00F0100069
:103E400008B1042707E006F0020020B1E07A00F094
:103E5000010000B1072747B906F01E0008B146F07F
:103E600020060398C06AE8612C62FFB9AE71A17E9A
:103E7000E07E41EA0021227D607D42EA002041EAA5
:103E800000402861E07F0106A07F41EA0041607F99
:103E900041EA0020217F0843E8600020A860A86173
:103EA0006862039828600398C088A88038460FB0DD
:103EB000BDE8F0832DE9FF4F83B0044615469A46CE
:103EC000DDF810B00020CAF80000A1882068FFF7D4
:103ED00005FF0290029818B1029807B0BDE8F08F74
:103EE000A07900F0800008B10220F6E7A07900F088
:103EF000010008B90720F0E7D4E90210401A009049
:103F00000098854200D9009DB4E02089C0F30800E4
:103F100000287AD120688078401EA16800EA5120EC
:103F200000F0FF09B9F1000F1CD1A06808B92069A1
:103F300003E061692068FEF785FD01900198012882
:103F400005D8A07940F08000A0710220C5E7019853
:103F5000401C28B9A07940F08000A0710120BCE786
:103F60000198606161692068FEF709FF06462EB975
:103F7000A07940F08000A0710220AEE74E444FEAE5
:103F80005528B8F1000F2DD009EB08002168897879
:103F9000884203D920688078A0EB090808F0FF0365
:103FA0002168487832465946FEF74AFC28B1A07984
:103FB00040F08000A07101208FE7A07900F0400060
:103FC00068B1A069801B404509D2A169891B0BEB30
:103FD00041204FF4007204F12801FEF761FC4FEA22
:103FE00048273DE0A07900F0400098B1216848786A
:103FF000012304F12801A269FEF732FC30B1A07957
:1040000040F08000A071012067E716E0A07920F061
:104010004000A071A069B0420ED021684878012309
:10402000324604F12801FEF70BFC28B1A07940F0DC
:104030008000A071012050E7A6612089C0F308002C
:10404000C0F50077AF4200D92F462089C0F308029F
:1040500004F1280011183A465846FEF721FC00BF2B
:10406000BB44A0683844A060DAF800003844CAF8BD
:104070000000ED1B002D7FF448AF00202DE72DE957
:10408000FF4F83B0044615469B46049801900020DC
:10409000CBF80000A1882068FFF720FE029002986C
:1040A00018B1029807B0BDE8F08FA07900F0800049
:1040B00008B10220F6E7A07900F0020008B9072055
:1040C000F0E7E0682844E168884200D20025CDE0AE
:1040D0002089C0F30800002877D120688078401E2E
:1040E000A16800EA512000F0FF0ABAF1000F2AD1BE
:1040F000A06858B9D4F81080B8F1000F0BD1002196
:104100002068FEF7E0FD8046206104E061692068D8
:10411000FEF7D9FD8046B8F1000F00D1A9E0B8F153
:10412000010F05D1A07940F08000A0710220B9E70D
:1041300008F1010028B9A07940F08000A0710120A9
:10414000B0E7C4F81480A07900F0400090B1216875
:104150004878012304F12801A269FEF781FB28B108
:10416000A07940F08000A07101209BE7A07920F0A9
:104170004000A07161692068FEF701FE06462EB975
:10418000A07940F08000A07102208BE756444FEAEE
:104190005529B9F1000F2FD00AEB09002168897861
:1041A000884203D920688078A0EB0A0909F0FF0350
:1041B0002168487832460199FEF752FB30B1A07968
:1041C00040F08000A07101206CE72CE0A069801B0A
:1041D00048450ED2A069801B019A02EB40214FF4A2
:1041E000007204F12800FEF75BFBA07920F040008C
:1041F000A0714FEA49272DE0A069B04212D0D4E95E
:10420000020188420ED2216848780123324604F127
:104210002801FEF715FB28B1A07940F08000A071BD
:1042200001203FE7A6612089C0F30800C0F50077B0
:10423000AF4200D92F462189C1F3080204F12801B9
:1042400050183A460199FEF72BFBA07940F0400048
:10425000A07100BF019838440190A0683844A06064
:10426000DBF800003844CBF80000ED1B002D7FF494
:104270002FAF00BFD4E90201884201D9A068E060F5
:10428000A07940F02000A07100200BE72DE9F0415B
:104290000446A1882068FFF721FD0746002F4FD173
:1042A000A07900F0200000284AD0A07900F040005A
:1042B00078B121684878012304F12801A269FEF74A
:1042C000CFFA10B10120BDE8F081A07920F04000C4
:1042D000A071E1692068FEF717FB0746002F2FD178
:1042E000256AE87A40F02000E872207B2877A089D0
:1042F000010A6977E068010CA977E068010EE977A7
:10430000207CA876208A010AE9762069000C2875AD
:104310002069010E6975FEF7BFFA0646AE75310ACF
:10432000E975310C2976310E6976A07920F02000EC
:10433000A0710120216808712068FEF71EFB074666
:104340003846C0E770B504462046FFF79FFF054694
:104350000DB900202060284670BD2DE9FE4F0446AF
:104360000D46A1882068FFF7B9FC0290029810B1B1
:104370000298BDE8FE8FA07900F0800008B102200D
:10438000F7E7606A002876D0676A57F804BB681CB4
:10439000002836D126698EB300BFBBF1040F02D2CC
:1043A0001120029029E0B2464FF0000900BF0196AB
:1043B00009F1010931462068FEF744FB0646012E4B
:1043C00005D8A07940F08000A0710220D1E7701CD0
:1043D00028B9A07940F08000A0710120C9E70198B8
:1043E000401C8642E3D047F8049B47F804ABABF18E
:1043F000020B20688069B042CFD800BF002038602F
:104400006BE0E068A84200D2E568A560002D64D0AA
:10441000681E4FEA502820688078B8FBF0F600BF8D
:1044200057F8049BB9F1000F05D1A07940F0800046
:10443000A07102209DE74E4500D203E0A6EB0906DD
:104440003F1DEDE700BF3868304460612068807828
:10445000401E00EA0800C0B2009061692068FEF7C3
:104460008EFC8046B8F1000F06D1A07940F08000A4
:10447000A07102207DE731E0009880442089C0F3DC
:10448000080050B3A069404527D0A07900F0400053
:1044900090B121684878012304F12801A269FEF750
:1044A000DFF928B1A07940F08000A071012060E719
:1044B000A07920F04000A07121684878012342468D
:1044C00004F12801FEF7BCF928B1A07940F0800082
:1044D000A07101204DE7C4F81880C1E0E068A8424F
:1044E00004D2A07900F0020000B9E568D4F8089081
:1044F0004FF00008C4F80880002D77D0206880783D
:104500004702B9F1000F11D0681EB0FBF7F1A9F115
:104510000100B0FBF7F0814208D3A9F10100791E38
:104520008843A060A0682D1A666918E02669AEB9B4
:1045300000212068FEF7C7FB0646012E05D1A079B1
:1045400040F08000A071022013E7701C28B9A07908
:1045500040F08000A07101200BE726616661EEB398
:1045600029E0A07900F0020038B131462068FEF75A
:10457000AAFB064636B93D461FE031462068FEF7E5
:1045800061FA0646701C28B9A07940F08000A0713D
:104590000120EEE6012E03D920688069B04205D8DB
:1045A000A07940F08000A0710220E2E66661A06878
:1045B0003844A060ED1BBD42D3D800BFA06828449A
:1045C000A060C5F3080048B131462068FEF7D7FB6C
:1045D0008046B8F1000F07D1A07900E006E040F076
:1045E0008000A0710220C4E608EB55282089C0F3A2
:1045F000080050B3A069404527D0A07900F04000E2
:1046000090B121684878012304F12801A269FEF7DE
:1046100027F928B1A07940F08000A0710120A8E618
:10462000A07920F04000A07121684878012342461B
:1046300004F12801FEF704F928B1A07940F08000C8
:10464000A071012095E6C4F81880D4E902018842DF
:1046500005D9A068E060A07940F02000A07100BFFB
:10466000029886E673B584B004460022214605A868
:10467000FFF784F9064646BB01A8A061FE48E06149
:1046800020460599FFF7D7F80646DEB9656985B17A
:10469000E87A00F0100058B1A97EE87E41EA0021D6
:1046A0002A7D687D42EA002041EA0040A06000E0E7
:1046B00005263EB92068C088A08000212046FEF76C
:1046C0006BFB0646042E00D10526304606B070BDB1
:1046D000FEB504460E46A1882068FFF7FFFA05469E
:1046E00015BB2EB900212046FEF756FB05461BE000
:1046F000C4F818D0E048E0612046FEF7B3FD054657
:10470000042D02D10020206100256DB931462046DC
:10471000FEF7FFFF00212046FEF78CFB0546042D27
:1047200002D10020206100252846FEBD33B58DB0A2
:104730000D46002204A90DA8FFF720F904468CB904
:1047400001A80A90CC480B9004A80D99FFF773F8C4
:1047500004463CB9099820B1294604A8FEF7D9FFC0
:1047600000E0062420460FB030BD2DE9F74F82B09F
:104770008B4614460022214602A8FFF7FFF801905D
:104780000198002877D1206801698069801E8142E4
:1047900004D820680069CBF800006CE0206890F82D
:1047A00000A00026BAF1010F1DD1022700BF394633
:1047B0002068FEF747F9804608F1010010B9012092
:1047C00001900FE0B8F1010F02D10220019009E041
:1047D000B8F1000F00D1761C781C07462168896962
:1047E0008842E4D33DE0206887692068006A009031
:1047F0004FF00009002500BFB9F1000F0FD1009A5A
:10480000531C114600932068FEF77EF80190019832
:1048100000B125E0206800F130054FF40079BAF1CD
:10482000020F09D12878697840EA012000B9761C86
:10483000AD1CA9F1020910E0E8780006A97840EA69
:104840000140697840EA01202978084320F070404F
:1048500000B9761C2D1DA9F10409781E071ECBD1C5
:1048600000BF20680661BAF1030F02D10120216860
:104870004871CBF80060019805B0BDE8F08F70B5C5
:104880000446A1882068FFF729FA054655B9A079A2
:1048900000F0800008B1022504E0A07900F00200D9
:1048A00000B90725002D36D1D4E9021088422DD950
:1048B000A068E060A07940F02000A071A06838B93D
:1048C00021692068FEF7CBF90546002020611DE034
:1048D00061692068FEF7B6F806460025701C00B92D
:1048E0000125012E00D1022585B920688069B042DA
:1048F0000CD96FF0704261692068FEF715F9054622
:1049000025B931462068FEF7AAF905461DB1A07900
:1049100040F08000A071284670BD71B595B00122AD
:104920000CA915A8FFF72AF80446002C4DD1CDF8A4
:1049300048D0514813900CA81599FEF77CFF044607
:1049400000BF002C41D1119D0DB9062404E0E87A86
:1049500000F0010000B10724A97EE87E41EA0021B1
:104960002A7D687D42EA002041EA0046E4B9E87AFF
:1049700000F01000C0B1022E01D2022414E0242263
:104980000CA903A8FDF78CFF0596022103A8FEF7EA
:1049900003FA044644B903A8FEF764FC044604B9CC
:1049A0000724042C00D100247CB90CA8FEF781FD5B
:1049B000044654B926B131460C98FEF750F9044626
:1049C0001CB90C98FDF7D9FF0446204616B070BDFF
:1049D0002DE9F1478DB0FDF75FFF0746012204A9DD
:1049E0000DA8FEF7CBFF0646002E71D101A80A9054
:1049F00021480B9004A80D99FEF71DFF064606B945
:104A0000082600BF042EF0D100210498FEF75BF9C0
:104A10000546002605B90726012D00D10226681C8F
:104A200000B9012626B900210498FDF76DFF06465E
:104A3000002E6BD129460498FEF7A1F9824604980E
:104A400000F130044FF4007200212046FDF735FFDD
:104A50000B2220212046FDF730FF2E202070102051
:104A6000E072A775390AE175390C2176390E617645
:104A7000A576290AE17601E0A62B0020280C2075F6
:104A8000290E61752022214604F12000FDF708FF60
:104A90002E2084F82100DDF818800498007803287F
:104AA00004D10498406A404500D1B04684F83A8069
:104AB0004FEA182184F83B10C8F307413420015510
:104AC0004FEA186184F83510049890F8029019E0C4
:104AD0003FE00498C0F82CA00AF1010A01200499D3
:104AE000087100210498FDF70FFF064606B10CE09F
:104AF0004FF4007200212046FDF7DFFEA9F101000E
:104B000000F0FF09B9F1000FE3D100BF1EB904A8FE
:104B1000FEF707FC064626B129460498FEF79FF8E3
:104B200017E0099C1020E072A775390AE175390C6D
:104B30002176390E6176A576290AE176280C207552
:104B4000290E61750120049908710498FDF715FF7D
:104B5000064630460EB0BDE8F087F7B58CB00F467C
:104B60001446012203A90CA8FEF708FF0646EEB979
:104B7000CDF824D0FC480A9003A80C99FEF75BFE00
:104B8000064600BF96B9089D0DB906260EE004F052
:104B9000270407EA0400E97AA1430843E8720120E8
:104BA000039908710398FDF7E8FE064630460FB0FA
:104BB000F0BD73B58CB00D46012203A90CA8FEF719
:104BC000DDFE0646FEB9CDF824D0E7480A9003A8DA
:104BD0000C99FEF730FE064600BFA6B9089C0CB93A
:104BE000062610E0A879A075E8880112E1752879F9
:104BF0002076A88801126176012003990871039834
:104C0000FDF7BBFE064630460EB070BDF3B59BB057
:104C10000F46012212A91BA8FEF7B0FE0546002D83
:104C200010D112980990CDF860D0CF48199012A8F1
:104C30001B99FEF700FE054600BF002D76D11798A0
:104C400008B9042572E0179800F10B01152203A89A
:104C5000FDF726FE242212A909A8FDF721FE3946F8
:104C600009A8FEF7E8FD054605B90825042D5DD124
:104C700009A8FEF756FB0546002D57D10E9C1322BE
:104C80000DF10E0104F10D00FDF70AFE9DF80C0078
:104C900040F02000E0720120129908710B991498DD
:104CA000884239D0E07A00F01000002834D0237D0B
:104CB000627D43EA022294F81AC0E37E4CEA0323A1
:104CC00042EA03010998FEF75AF806460EB9022592
:104CD00022E031460998FDF717FE0546099800F1D4
:104CE0005004CDB960782E2816D109980078032891
:104CF00006D109990B98496A884201D1002000E049
:104D00000B980646A676310AE176300C2075310EF6
:104D1000617501200999087145B912A8FEF7C9FB10
:104D200005461DB91298FDF728FE054628461DB018
:104D3000F0BD2DE9F74F8CB090460C98012803DBAD
:104D40000B200FB0BDE8F08F88490C9851F8200077
:104D50000290029808B90C20F3E700210298017034
:104D60000C980C900C98FDF75BFD0190019800F0F9
:104D7000010008B10320E4E7019800F0040008B145
:104D80000A20DEE704AA01210C98FDF779FD10B98D
:104D90000498802801D20120D3E70D9808B10020A3
:104DA00000E03F2082460498A0EB0A000490A8F19E
:104DB000010000EA080008B14FF00008B8F1000F48
:104DC00013D14FF4FA610498B0FBF1F00A904FF060
:104DD000000901E009F10109654830F819100A9845
:104DE0008142F7D8634830F819804FEA5828B8F163
:104DF000000F01D14FF00108B8F1800F01D94FF039
:104E000080080498B0FBF8F7012540F6F670874259
:104E100000D302254FF6F670874200D30325032DF9
:104E20000AD1082000EB870000F2FF10460A4FF07D
:104E3000200B0020039011E0012D05D107EB470066
:104E4000401C4008C01C01E07800001D064606F228
:104E5000FF10460A4FF0010B202003900AEB0B00D5
:104E600007900798304406900399069808440590E7
:104E7000059840440499884201D90E2061E709AAA7
:104E800003210C98FDF7FCFC28B9099818B1099882
:104E9000B0F5004F01D901200990099905980844FF
:104EA000401E491E8843099009990598081A0990DF
:104EB000032D06D10998834409990798084407905F
:104EC00001E0099806440498A0EB0B00811B0398AD
:104ED000081AB0FBF8F7022D03D140F6F6708742AE
:104EE00005D3032D05D14FF6F670874201D20E206F
:104EF00027E70D9810B1F0200B9068E0049850441B
:104F000000904FF40072002102983030FDF7D5FC7C
:104F1000029800F5F7748020207001206070A07066
:104F20000020E0701449009888420FD23F21009879
:104F3000B0FBF1F0FF21B0FBF1F000900098E071C0
:104F40003F21009841EA9000A07103E0FF20A0718A
:104F5000FF21E171FE206071032D12D00498B0F59D
:104F6000803F0BD204200AE0A62B002088000020FE
:104F7000C8620008DE6200080004FB000620207101
:104F800001E00C2020713F20207200216172A1728B
:104F9000E172049820730498010A61730498010C6B
:104FA000A1730498010EE173552084F84000AA21F2
:104FB0004120015501230022029930310C98FDF760
:104FC0004FFC08B10120BCE6F8200B9000BF02980E
:104FD00000F130044FF4007200212046FDF76DFC13
:104FE0000B22D0A12046FDF75BFC4FF4007984F83A
:104FF0000B904FEA1921217384F80D8084F80EB0CC
:105000004FEA1B21E17301202074032D01D1002000
:1050100001E04FF40070814684F811904FEA1921A5
:10502000A1740498B0F5803F05D20498E074049808
:10503000010A217510E0049884F820000498C0F358
:105040000721212001550498C0F307412220015572
:105050000498010E232001550B9860753F2020769F
:1050600000216176FF20A076E17684F81CA04FEA4B
:105070001A2161774FEA1A41A1774FEA1A61E17765
:10508000FDF70AFC0990032D3ED1099884F84300EE
:105090000998C0F30721442001550998C0F307413E
:1050A000452001550998010E4620015584F82460D9
:1050B000C6F3072125200155C6F3074126200155D7
:1050C000310E27200155022084F82C0000212D20CC
:1050D00001552E2001552F200155012084F8300064
:1050E00031200155062084F83200332001558020FC
:1050F00084F84000292084F8420013228CA104F196
:105100004700FDF7CDFB1FE0099884F827000998B8
:10511000C0F30721282001550998C0F30741292031
:1051200001550998010E2A200155A675310AE1752D
:10513000802084F82400292084F82600132281A1ED
:1051400004F12B00FDF7ACFB552084F8FE01AA21E9
:1051500040F2FF1001550123524621460C98FDF7FD
:105160007FFB08B10120ECE5032D06D101230AF1F4
:10517000060221460C98FDF773FB079808904FF044
:10518000000961E04FF4007200212046FDF795FB15
:105190000B980990032D14D0012D01D16E4801E028
:1051A0006FF0FF0009990843099009982070099849
:1051B000000A60700998000CA0700998000EE07059
:1051C00019E0099860F0FF0009900998207009988B
:1051D000000A60700998000CA0700998000EE07039
:1051E000FF202071FF216171A171E1712072617254
:1051F000A1720F21E1720898411C02460123089117
:1052000021460C98FDF72CFB08B1012099E54FF4DD
:10521000007200212046FDF750FB012009900EE0AE
:105220000898411C02460123089121460C98FDF77D
:1052300017FB08B1012084E50998401C09900998E2
:10524000B042EDD309F10109B9F1000F9AD0032D55
:1052500001D1404600E00398814600BF0898411CF8
:1052600002460123089121460C98FDF7F9FA08B18E
:10527000012066E5A9F10100B0F10009EED1032D8E
:1052800046D1552084F8FE01AA2140F2FF100155B5
:105290005220207060706120A0704120E070722068
:1052A00084F8E401722140F2E51001554121401CCF
:1052B00001556121401C0155781E84F8E801C0F3B6
:1052C000072140F2E9100155781EC0F307414FF461
:1052D000F5700155781E010E40F2EB100155FF20CC
:1052E00084F8EC01FF2140F2ED100155401C0155FE
:1052F000401C015501230AF1010221460C98FDF7DB
:10530000AFFA01230AF1070221460C98FDF7A8FA2B
:10531000002211460C98FDF7B3FA08B1012010E500
:1053200000200EE5EBFE904D53444F53352E3000D8
:105330004E4F204E414D45202020204641543332CF
:10534000202020004E4F204E414D45202020204659
:10535000415420202020200000FFFF0010B502460D
:10536000802A01DA10461BE051B1FF2A01DD00233B
:1053700004E0A2F18003164C34F8133018460FE015
:10538000002007E0124B33F81030934200D103E0C5
:10539000431C98B28028F5DB00BF00F18003D8B22F
:1053A00010BD0246002100E0491C0A4830F81100F7
:1053B00020B1084830F811009042F5D1054830F886
:1053C000110018B1044830F8110070471046FCE78E
:1053D000F4620008F4630008D46500080CB50020EE
:1053E000019000906A48006840F480306849086085
:1053F00000BF6748006800F4003000900198401C2E
:105400000190009818B90198B0F5A06FF1D16048EB
:10541000006800F4003010B10120009001E000208D
:1054200000900098012843D15A48006840F01000CD
:10543000584908600846006820F0030008600846E4
:10544000006840F0020008605148406850494860D8
:105450000846406848600846406840F480604860FC
:105460000846406820F47C1048600846406840F4D4
:10547000E81048600846006840F08070086000BF8F
:105480004348006800F000700028F9D040484068A8
:1054900020F003003E4948600846406840F00200A2
:1054A000486000BF3A48406800F00C000828F9D175
:1054B0000CBD10B5FFF792FF10BD10B53448006861
:1054C00040F001003249086008464068324908400F
:1054D0002F49486008460068304908402C49086058
:1054E0000846006820F4802008600846406820F4E0
:1054F000FE0048604FF41F008860FFF7DAFF10BD20
:1055000010B5002100200022214B5B6803F00C0144
:1055100021B1042906D0082928D107E0204B214CCD
:10552000236027E01E4B1F4C236023E0184B5B6871
:1055300003F47010164B5B6803F48032022303EB14
:10554000904022B9184B4343164C23600DE0104B9A
:105550005B6803F4003323B1134B4343114C2360C6
:1055600003E00F4B43430F4C236003E00C4B0D4C07
:10557000236000BF00BF064B5B68C3F303130B4CF3
:10558000E15C084B1B68CB40064C236010BD00005B
:1055900000100240002002400000FFF8FFFFF6FE6E
:1055A00000127A008C00002000093D0090000020CD
:1055B0000948804709480047FEE7FEE7FEE7FEE7A7
:1055C000FEE7FEE7FEE7FEE7FEE7FEE704480549E3
:1055D000054A064B70470000BB5400083101000823
:1055E000082D0020083D0020082F0020082F002053
:1055F00038B504461CBB01210420FDF7ADF801219C
:105600000803FDF7A9F82020ADF8000003208DF86D
:10561000020018208DF803006946DB48FCF766FAA3
:105620004020ADF800006946D748FCF75FFA8020BB
:10563000ADF800006946D448FCF758FA24E0012C84
:1056400022D101210820FDF787F801218803FDF709
:1056500090F86003ADF8000003208DF802001820D8
:105660008DF803006946C948FCF740FAA003ADF87D
:1056700000006946C548FCF739FAE003ADF80000C0
:105680006946C248FCF732FA38BD38B504460320F3
:105690008DF8020010208DF80300BD4830F814008A
:1056A000ADF80000BB4951F824006946FCF71EFA2A
:1056B000B94951F824000121FCF76AFE38BD70B5E4
:1056C00086B004460E46154636B1012E0AD0022E8B
:1056D0000FD0032E1BD113E00020ADF80A00ADF867
:1056E0000C0015E00020ADF80A000120ADF80C0018
:1056F0000EE00220ADF80A000020ADF80C0007E033
:105700000220ADF80A000120ADF80C0000E000BF57
:1057100000BF0020ADF804004FF48270ADF8060021
:10572000082D03D10020ADF8080004E0102D02D1AF
:10573000E801ADF808004FF40070ADF80E00082045
:10574000ADF810000020ADF812000720ADF81400ED
:10575000914951F8240001A9FCF730FD8E4951F818
:1057600024000121FCF7CFFD06B070BD70B50446E2
:105770000D460026BCB900BF02218848FCF747FE51
:105780000028F9D029468548FCF7EEFD00BF01212D
:105790008248FCF73CFE0028F9D08048FCF7E6FD83
:1057A0000646304670BD012C17D100BF02217C484F
:1057B000FCF72DFE0028F9D029467948FCF7D4FDE6
:1057C00000BF01217648FCF722FE0028F9D074487A
:1057D000FCF7CCFD06463046E4E70020E2E770B572
:1057E00004460D460026BCB900BF02216B48FCF7F9
:1057F0000EFE0028F9D029466848FCF7B5FD00BF29
:1058000001216648FCF703FE0028F9D06348FCF745
:10581000ADFD0646304670BD012C17D100BF0221F8
:105820005F48FCF7F4FD0028F9D029465C48FCF7F6
:105830009BFD00BF01215A48FCF7E9FD0028F9D083
:105840005748FCF793FD06463046E4E70020E2E7C0
:1058500010B504464E4A32F814104E4A52F824004D
:10586000FCF7F1F910BD10B50446494A32F814109E
:10587000484A52F82400FCF7E8F910BD7FB5064607
:105880000D460024474B0FCB8DE80F00072D00DDA0
:1058900007258EB900214148FCF735FD3F480488B3
:1058A0004FF6C77004403DF8150004433B480480A0
:1058B0000121FCF728FD12E0012E10D1002138480B
:1058C000FCF721FD364804884FF6C77004403DF8C8
:1058D00015000443324804800121FCF714FD7FBD0C
:1058E000024642F4004204E0431CD8B2C82800DD5E
:1058F00006E02B4B08331B8803F00203002BF3D088
:1059000000BF274B0C331A8000BF254B08331B8880
:1059100003F00103002BF8D0214B0C331A8804E06C
:10592000431CD8B2C82800DD06E01D4B08331B8895
:1059300003F00203002BF3D000BF194B0C33198086
:1059400000BF174B08331B8803F00103002BF8D06E
:10595000134B0C331A887047044600BF00BF204623
:10596000FFF746FE2046FFF790FE1022002120465A
:10597000FFF7A5FE03212046FFF780FF02E00A2083
:10598000FBF734FDFBE7000000080140000C01407C
:10599000B4670008A8000020A000002000300140EB
:1059A00000380040B867000810B504462046FBF7F1
:1059B00041FF00214FF00060FBF773FF10BD02466E
:1059C000002100BF08E0404850F82100904201D17A
:1059D00008467047481CC1B20629F4DB0020F8E7EE
:1059E0000246002100BF08E0384830F8110090421C
:1059F00001D108467047481CC1B21029F4DB0020D1
:105A0000F8E72DE9F84307460D4616461C464FF0C9
:105A100000083846FFF7D3FF80462D4951F828008B
:105A20000121FCF799FE8DF80360ADF800500CB130
:105A30008DF8024069463846FCF758F8BDE8F8830F
:105A40002DE9FE4F07460D4690461E46DDE90C9AAD
:105A50004FF0000B00243846FFF7B1FF834628467D
:105A6000FFF7BEFF04460023424629463846FFF7AB
:105A7000C8FF01210846FCF76FFE164A115D164A61
:105A800012F80B00FCF748F9144850F82400019074
:105A900000208DF808008DF8096001208DF80A00BB
:105AA00001A8FBF743FF0E48005D8DF800008DF85C
:105AB00001908DF802A001208DF803006846FBF7E5
:105AC000BEFEBDE8FE8F0000B0000020C8670008E1
:105AD000E86700080B680008046800081C680008F4
