:020000040800F2
:10000000F00702209902000835150008D1140008F5
:10001000A502000849030008F91B000800000000C1
:10002000000000000000000000000000391500087A
:10003000D50300080000000037150008DD15000892
:10004000B3020008B3020008B3020008B3020008BC
:10005000B3020008B3020008B3020008B3020008AC
:10006000B3020008B3020008B3020008B30200089C
:10007000B3020008B3020008B3020008B30200088C
:10008000B3020008B3020008B3020008B30200087C
:10009000B3020008B3020008B3020008B30200086C
:1000A000B3020008B3020008B3020008B30200085C
:1000B000B3020008B3020008B3020008B30200084C
:1000C000B3020008B3020008B3020008B30200083C
:1000D000B3020008311B0008B11B0008B30200087E
:1000E000B3020008B3020008B3020008B30200081C
:1000F000B3020008B3020008B3020008B30200080C
:10010000B3020008B3020008B3020008B3020008FB
:10011000B3020008B3020008B3020008B3020008EB
:10012000B3020008B3020008B3020008B3020008DB
:10013000B3020008B3020008B3020008B3020008CB
:10014000B3020008B3020008B3020008B3020008BB
:10015000B3020008B3020008B3020008B3020008AB
:10016000B3020008B3020008B3020008B30200089B
:10017000B3020008B3020008B30200080000000048
:10018000B3020008B3020008B3020008B30200087B
:10019000B3020008B3020008B3020008B30200086B
:1001A000B3020008B3020008B3020008B30200085B
:1001B000B3020008B3020008B3020008B30200084B
:1001C000B3020008B302000800000000B3020008F8
:1001D000B3020008B3020008B3020008B30200082B
:1001E000B3020008B3020008B3020008B30200081B
:1001F000B3020008B302000800F002F800F03CF877
:100200000AA090E8000C82448344AAF10107DA4571
:1002100001D100F031F8AFF2090EBAE80F0013F087
:10022000010F18BFFB1A43F001031847201C000000
:10023000401C0000103A24BF78C878C1FAD8520791
:1002400024BF30C830C144BF04680C607047000050
:100250000023002400250026103A28BF78C1FBD8CF
:10026000520728BF30C148BF0B6070471FB501F06F
:10027000D7FD1FBD10B510BD00F033F81146FFF7D4
:10028000F5FF01F07BFD00F051F803B4FFF7F2FF3A
:1002900003BC01F041FD00000948804709480047C0
:1002A000FEE7FEE7FEE7FEE7FEE7FEE7FEE7FEE726
:1002B000FEE7FEE704480549054A064B7047000083
:1002C000E1150008F9010008F0010220F007022002
:1002D000F0030220F0030220704770477047704718
:1002E0007047754600F02CF8AE4605006946534647
:1002F00020F00700854618B020B5FFF7DBFFBDE80A
:1003000020404FF000064FF000074FF000084FF07C
:10031000000B21F00701AC46ACE8C009ACE8C0090D
:10032000ACE8C009ACE8C0098D46704710B504467A
:10033000AFF300802046BDE81040FFF7A6BF0000E5
:10034000004870478C010220FEE7000070B4BFF344
:100350004F8FBFF36F8F1A4900200860194D29682D
:1003600041F400312960BFF34F8FBFF36F8F1649FF
:100370000860BFF34F8F081F006843F6FF76134AEB
:10038000C0F34E3CC0F3C90406EA4C11204641EAD2
:1003900080731360401EFAD2BCF1010CF4D2BFF39B
:1003A0004F8F286840F480302860BFF34F8FBFF331
:1003B0006F8F0748016841F00401016070BC70470D
:1003C00050EF00E014ED00E084ED00E060EF00E0AD
:1003D0009CEF00E070472DE9F041866D044600F087
:1003E000B9FA054694F835000027022806D0802087
:1003F0006065012084F83470BDE8F08120680168F0
:1004000021F0160101602068416921F080014161FD
:10041000206C002804BFA06C002804D0206801686C
:1004200021F0080101602068016821F001010160EC
:100430002068006810F0010F12D000F08BFA401B0A
:10044000052808D92020606584F83470032084F8DA
:100450003500BDE8F0812068006810F0010FECD194
:1004600094F85C003F2101FA00F0B060012084F8AC
:10047000347084F835000020BDE8F081002804BF06
:100480000120704790F83510022904BF0220704700
:1004900001680A6822F001020A6001684FF0000C4E
:1004A000C1F800C00168C1F804C00168C1F808C003
:1004B0000168C1F80CC00168C1F810C021210268B0
:1004C000516101680C4BCAB2103A6FF30901A3FBEA
:1004D00002320A4B1209032A9B5CC36588BF091DBF
:1004E0003F2281659A408A60C0F854C080F835C0C8
:1004F00080F834C000207047ABAAAAAA421E0008A8
:1005000070B5044600F026FA002C054604BF012011
:1005100070BD0026022084F8346084F8350020681D
:10052000016821F0010101602068006810F0010FEE
:100530000FD000F00FFA401B052805D92020606578
:10054000032084F8350070BD2068006810F0010FAA
:10055000EFD121680868404A1040D4E901231A43CA
:10056000D4E9033C43EA0C031A4363691A43A369C1
:100570001A43E3691A43236A1A431043626A042A3E
:1005800003D1D4E90B231A43104308602368586948
:100590004FF0010C20F00701606A0143042840D1AC
:1005A000A06AA269014352B1B2F5005F1CD00028D5
:1005B0001CBF012802282CD0032826D031E020B10E
:1005C000012807D002280AD02BE0E06A10F0807FD3
:1005D0001FD126E0E06AB0F1C07F22D119E0E06AC5
:1005E00010F0807F15D11CE098B1012808D00228B6
:1005F0000FD0032804BFE06AB0F1C07F09D010E03B
:10060000E06A10F0807F04D10BE0E06A10F0807F98
:1006100007D04FF04000606584F835C04FF001000E
:1006200070BD596120680D4AC1B2A1F110016FF38C
:100630000900A2FB01210A4A4FEA11110329525C69
:10064000E26588BF001D3F21A0659140816066651D
:1006500084F835C0002070BD3F8010E0ABAAAAAA84
:10066000421E000870B490F834C00024856DBCF1BF
:10067000010F02BF022070BC70474FF0010C80F8E0
:1006800034C090F835604FF0000C012E1CBF80F88C
:1006900034C0022402D0204670BC7047022680F885
:1006A0003560C0F854C0D0F800C0DCF8006026F413
:1006B0008026CCF80060D0F800C0CCF80430836805
:1006C000402B036803BF9A600268D16099601CBF29
:1006D0000168CA6090F85C103F2202FA01F1A9603B
:1006E00001680A6842F016020A6001684A6942F02D
:1006F00080024A61016C21B101680A6842F0080277
:100700000A600068016841F001010160C3E7000070
:100710002DE9F84FDFF830920022DFF828820F270A
:1007200009F1040A4FF0010E0B680EFA02F52B4096
:10073000AB4240F00181D1F804C0BCF1020F18BFF8
:10074000BCF1120F15D14FEAD20C00EB8C0CDCF887
:1007500020604FEA42744FEAD46407FA04FB26EAA9
:100760000B06D1F810B00BFA04F444EA0604CCF8F6
:10077000204006684FEA420C91F804B04FF00304A1
:100780000BF0030B04FA0CF40BFA0CFB26EA04063C
:100790004BEA060606604E68012E18BF022E03D0F3
:1007A000112E18BF122E14D18668D1F80CB026EA8B
:1007B00004060BFA0CFB4BEA06068660466826EA3E
:1007C00005050E79C6F3001606FA02F646EA050597
:1007D0004560C56825EA04048D6805FA0CFC4CEAFE
:1007E000040CC0F80CC0D1F804C01CF0805F7CD0B1
:1007F000D8F800C04CF4804CC8F800C0D8F800C04D
:100800000CF4804CCDF800C022F0030C0CF18045B4
:1008100005F59835D5F808C84FEA82744FEA147484
:1008200007FA04F62CEA0606A0F1804CBCF5003C61
:1008300048D0A0F1804CBCF5013C08BF4FF0010C42
:1008400040D0A0F1804CBCF5023C08BF4FF0020C38
:1008500038D0A0F1804CBCF5033C08BF4FF0030C2E
:1008600030D0A0F1804CBCF5043C08BF4FF0040C24
:1008700028D0A0F1804CBCF5053C08BF4FF0050C1A
:1008800020D0A0F1804CBCF5063C08BF4FF0060C10
:1008900018D0A0F1804CBCF5073C08BF4FF0070C06
:1008A00010D0A0F1804CBCF5083C08BF4FF0080CFC
:1008B00008D0A0F1804CBCF5093C0CBF4FF0090CEE
:1008C0004FF00A0C0CFA04FC4CEA060CC5F808C8F8
:1008D000D9F800C04C682CEA030C14F4803F18BF10
:1008E0004CEA030CC9F800C000E025E0DAF800C0CB
:1008F0004C682CEA030C14F4003F18BF4CEA030CBC
:10090000CAF800C0114CD4F800C04D682CEA030CA2
:1009100015F4801F18BF4CEA030CC4F800C00C4C3F
:10092000D4F800C04D682CEA030C15F4001F18BF62
:100930004CEA030CC4F800C0521C102AFFF4F4AEB9
:10094000BDE8F88F44380240003C0140083C0140BB
:100950000C3C014001480068704700000400022080
:1009600002480168491C0160704700000400022031
:10097000074810B5016841F400710160052000F0DE
:100980005DF80F2000F006F800F018F8002010BD08
:10099000003C024010B5044607484FF47A720068E4
:1009A000B0FBF2F000F0C6FB00222146501E00F022
:1009B00013F8002010BD0000000002207047012243
:1009C00000F01F0102FA01F14009800000F1E0206F
:1009D000C0F8001170470000174B4DF8044D1B681C
:1009E000C3F30223C3F1070CBCF1040F88BF4FF01F
:1009F000040C1C1D072C34BF0023DB1E012404FA49
:100A00000CFCACF1010C0CEA0101994004FA03F36F
:100A10005B1E1A40114300284FEA0111B8BF00F0D5
:100A20000F0000F1E020B4BF80F8141D80F800141E
:100A30005DF8044B704700000CED00E0074A00F041
:100A4000070011684FF6FF03194041EA002040F00B
:100A5000FD7040F080601060704700000CED00E019
:100A60001C4838B5016841F08051016000681A4C9B
:100A700000F080500090206840F480302060FFF744
:100A800069FF0546606810F4803F09D1FFF762FFF7
:100A9000401BB0F57A7F14D8606810F4803FF5D021
:100AA000206840F400302060FFF754FF054660687E
:100AB00010F4003F0BD1FFF74DFF401BB0F57A7FDC
:100AC00001D9032038BD606810F4003FF3D0002046
:100AD00038BD000040380240007000402DE9F0476A
:100AE000DFF8688104460D46D8F8000000F00F00DA
:100AF000A8420CD2D8F8000020F00F002843C8F814
:100B00000000D8F8000000F00F00A84270D1207853
:100B10004F4F10F0020F05D03868A16820F0F000A8
:100B200008433860207810F0010F4ED060684949C2
:100B3000012820D00968022822D011F0020F57D0D6
:100B4000396821F0030108433860FFF703FF0646C8
:100B5000606841F28839012816D00228386800F010
:100B60000C0021D0F8B1FFF7F5FE801B484528D9CD
:100B70000320BDE8F087096811F4003FE0D137E0B9
:100B800011F0007FDCD133E0386800F00C0004285D
:100B90001BD0FFF7DFFE801B4845E9D8386800F01E
:100BA0000C000428F5D110E008280ED0FFF7D2FE83
:100BB000801B4845DCD8386800F00C000828F5D1C7
:100BC00003E0386810F00C0FCDD1D8F8000000F029
:100BD0000F00A8420FD9D8F8000020F00F002843DA
:100BE000C8F80000D8F8000000F00F00A84202D0BA
:100BF0000120BDE8F087207810F0040F05D0386898
:100C0000E16820F4E05008433860207810F0080FC5
:100C100006D03868216920F4604040EAC10038609D
:100C200000F04EF83968F02292FAA2F201F0F001D9
:100C3000B2FA82F2D140084A515CC84007490860C4
:100C40000F20FFF7A7FE0020BDE8F087003C024020
:100C500008380240003802402A1E00080000022026
:100C600008480949006809684FF4E05292FAA2F274
:100C700001F4E051B2FA82F2D140044A515CC8401A
:100C80007047000000000220083802403A1E0008A9
:100C900008480949006809684FF4604292FAA2F2D4
:100CA00001F46041B2FA82F2D140044A515CC8407A
:100CB0007047000000000220083802403A1E000879
:100CC0002148006810F00C01204808BF7047DFF889
:100CD00080C0042904BF60467047082918BF7047C8
:100CE0004DF8044D1B4A1168136801F03F0113F4DD
:100CF000800F47F6C0730BD0BCFBF1F011681940B0
:100D000093FAA3F3B3FA83F3D94000FB01F00AE0AE
:100D1000B0FBF1F01168194093FAA3F3B3FA83F32F
:100D2000D94000FB01F011684FF440325DF8044BEC
:100D300092FAA2F201F44031B2FA82F2D140491C97
:100D40004900B0FBF1F07047083802400024F4007D
:100D500040787D01043802402DE9F84FDFF8A88380
:100D600004460078A8F1040710F0010FA7F104056C
:100D70005AD0D8F8000000F00C00042809D0D8F8A8
:100D8000000000F00C0008280CD1386810F4800F27
:100D900008D0286810F4003F46D06068002800F0B2
:100DA000AF8141E06068B0F5803F04BF286840F43F
:100DB00080300AD010B1B0F5A02F11D0286820F4EF
:100DC00080302860286820F4802028606068D0B1D6
:100DD000FFF7C0FD0646286810F4003F08D023E066
:100DE000286840F480202860286840F48030ECE7D0
:100DF000FFF7B0FD801B642800F22581286810F4FD
:100E0000003FF5D010E0FFF7A5FD0646286810F476
:100E1000003F09D0FFF79EFD801B642800F213817C
:100E2000286810F4003FF5D1207810F0020F50D060
:100E3000D8F800004FF0F80910F00C0F18D0D8F8CF
:100E4000000000F00C00082804BF386810F4800F80
:100E50000ED0E0680028286828D040F00100286003
:100E6000FFF778FD0646286810F0020F09D011E060
:100E7000286810F0020F1CBFE06801280AD000F0BB
:100E80003FB9FFF767FD801B02287DD8286810F066
:100E9000020FF6D0286899FAA9F22169B2FA82F213
:100EA00020F0F80091400843286012E020F0010093
:100EB0002860FFF74FFD0646286810F0020F08D0A3
:100EC000FFF748FD801B02285ED8286810F0020F4B
:100ED000F6D1207810F0080F33D0DFF83092606937
:100EE0000028D9F8000016D040F00100C9F8000031
:100EF000FFF730FD0646D9F8000010F0020F20D1B0
:100F0000FFF728FD801B02283ED8D9F8000010F01A
:100F1000020FF5D015E020F00100C9F80000FFF73E
:100F200019FD0646D9F8000010F0020F09D0FFF7AE
:100F300011FD801B022827D8D9F8000010F0020FFD
:100F4000F5D1207810F0040F63D07148016841F0AA
:100F50008051016000686F4E00F080500090306852
:100F600040F480703060FFF7F5FC8146306810F483
:100F7000807F0BD1FFF7EEFCA0EB0900642862D85C
:100F8000306810F4807F00E05DE0F3D0A068624E2E
:100F9000012804BF306840F0010009D008B10528DD
:100FA00013D0306820F001003060306820F0040079
:100FB0003060A06841F2883AD0B1FFF7CBFC81469F
:100FC000306810F0020F08D023E0306840F00400D1
:100FD0003060306840F00100EAE7FFF7BBFCA0EBAF
:100FE000090050452FD8306810F0020FF5D010E0FE
:100FF000FFF7B0FC8146306810F0020F09D0FFF710
:10100000A9FCA0EB090050451DD8306810F0020F74
:10101000F5D1A069E8B3D8F8001001F00C01082957
:101020006ED00228286820F0807028600ED0FFF76C
:1010300091FC0446286810F0007F5ED0FFF78AFC20
:10104000001B022855D90320BDE8F88FFFF782FC6A
:101050000646286810F0007F08D0FFF77BFC801B55
:101060000228F0D8286810F0007FF6D1D4E90701F3
:1010700047F6C0724FF0FF3392FAA2F20843616A5A
:10108000B2FA82F29140A26A03EB52024FF440336B
:1010900000E032E093FAA3F3B3FA83F39A401143EA
:1010A0004FF070620843E16A92FAA2F2B2FA82F259
:1010B00091404FF0E0420843216B92FAA2F2B2FA5B
:1010C00082F2914008433860286840F080702860C0
:1010D000FFF740FC0446286810F0007F0DD1FFF7B1
:1010E00039FC001B0228AED8286810F0007FF6D02B
:1010F00003E0286810F0007FA0D10020BDE8F88F41
:101100000120BDE8F88F0000083802407438024022
:101110004038024000700040703802404FF0E0213B
:10112000042808690CBF40F0040020F004000861A6
:1011300070470000401EB0F1807F24BF012070473F
:101140004FF0E0214861F020044A82F8140D00209D
:101150008861072008610020704700000FE000E070
:1011600070B5044690F869002025212814D1206824
:10117000816811F0800F0FD0816821F080018160BB
:10118000206E002818BFFFF726F92068016821F0BB
:10119000C001016084F8695094F86A00222819D1CE
:1011A0002068816811F0400F14D0816821F040015F
:1011B0008160606E002818BFFFF70DF92068016894
:1011C00021F4907101602068816821F00101816043
:1011D00084F86A50002070BD7047002804BF0120C9
:1011E000704710B5044690F8690028B9002084F8CB
:1011F0006800204600F028F8242084F86900206860
:10120000016821F001010160204600F003FB012884
:1012100008BF10BD606A00281CBF204600F00CFA11
:101220002068416821F4904141602068816821F084
:101230002A0181602068016841F0010101602046B7
:10124000BDE8104000F065BA2DE9F04301680226C0
:10125000384D0446384FA1F18040B0F588404FF03A
:10126000010887B04FF0070921D1286840F001003C
:101270002860286800F0010005903048016841F4BA
:101280000031016000686946CDE9028600F4003053
:1012900005900420CDF81090CDE900063846FFF700
:1012A00037FA0820694600903846FFF731FA21687E
:1012B000A1F18040B0F588301CBF07B0BDE8F083D5
:1012C000286840F001002860286800F001000590BF
:1012D0001B48016841F01001016000686946CDE9D2
:1012E000028600F0100005904FF48060CDF8109059
:1012F000CDE900063846FFF70BFA4FF40070694657
:1013000000903846FFF704FA2068016841F01001A8
:1013100001602068016841F0200101602520FFF78D
:101320004EFB032225201146FFF756FB07B0BDE810
:10133000F083000030380240000002404038024094
:10134000443802402DE9F84F044690F86A00984668
:1013500016460D4620286CD1002D12BF002E01200C
:10136000BDE8F88F94F86800012862D0012084F865
:1013700068004FF00009C4F86C90222084F86A00DD
:10138000FFF7E8FAA4F858608246A4F85A60FF21F3
:10139000A068B0F5805F05D07F2250B1B0F1805FCA
:1013A0000CD012E02069002808BF40F2FF1002D1E3
:1013B00009E02069E8B9A4F85C1006E0206900287B
:1013C00018BF3F2015D0A4F85C00B4F85C60F7B2F9
:1013D000B4F85A0000225346401EA4F85A002021B7
:1013E0002046CDF8008000F069FB28B10320BDE85D
:1013F000F88FA4F85C20E8E7A068B0F5805F04BF30
:10140000206900282068406A19BF384005F8010BA0
:10141000304025F8020BB4F85A000028D8D14FF01C
:10142000200084F86A004FF0000084F86890BDE85E
:10143000F88F4FF00200BDE8F88F000037B5044682
:1014400090F86900202837D10199002911BF002A9E
:10145000012003B030BD94F8680001282CD0012091
:1014600084F86800E1640025A4F85020A4F8522014
:10147000E566212084F86900236E1148D863236E45
:1014800010481864236E1048D8641346206E056512
:10149000206800F1280C206E6246FFF7E3F821680F
:1014A0004020086284F868502068816841F080011B
:1014B000816003B0002030BD03B0022030BD0000C9
:1014C000D7170008091800087317000870477047FD
:1014D000FEE70000144A08B5136843F400131360D4
:1014E0001268134B02F400120092104A1A669363BA
:1014F000C2E900014FF48061402090600020C2E901
:101500000301890150619061C2E907010321C2E929
:101510000901D06210631046FEF7B0FFBDE8084035
:101520000248FEF7EDBF0000303802402C010220D7
:101530004C0002207047704770470000DFF894C0ED
:1015400010B594B0DCF8004044F08054CCF8004072
:10155000DCF800C00CF0805CCDF848C0DFF878C043
:10156000DCF8004044F44044CCF80040DCF800C013
:1015700002240CF4404CCDF848C04FF0010CCDF8DB
:1015800000C04FF4803CCDF804C04FF4800CCDE98E
:101590000810CDE90A23CDE9064C6846FFF7DCFBCD
:1015A00000B1FEE7FFF75CFA00B1FEE70F20CDE9DE
:1015B0000D0400200F904FF4A05010904FF4805075
:1015C000119007210DA8FFF789FA002804BF14B075
:1015D00010BDFEE74038024000700040FFF7C0B980
:1015E0000F48016841F4700101600E48016841F044
:1015F000010101600C4A00211160026822F41022EE
:1016000022F080720260031D084A1A60026822F408
:10161000802202600648016058060649086070474B
:1016200088ED00E000380240083802401030002405
:101630000C38024008ED00E090F8241011F0010F82
:1016400006D001684A68836A22F400321A434A606D
:1016500090F8241011F0020F06D001684A68C36A9E
:1016600022F480321A434A6090F8241011F0040FDB
:1016700006D001684A68036B22F480221A434A604C
:1016800090F8241011F0080F06D001684A68436BE7
:1016900022F400421A434A6090F8241011F0100F0F
:1016A00006D001688A68836B22F480521A438A60EC
:1016B00090F8241011F0200F06D001688A68C36BDF
:1016C00022F400521A438A6090F8241011F0400F5F
:1016D00011D001684A68036C22F480121A434A60F0
:1016E000016CB1F5801F06D101684A68436C22F491
:1016F000C0021A434A6090F8241011F0800F08BF0E
:10170000704701684A68806C22F4002210434860E8
:101710007047F8B500260446C666FFF71BF9074672
:10172000206800686FF07E4510F0080F08D0002296
:101730003B464FF400112046009500F0BFF968B910
:101740002068006810F0040F0AD000223B464FF4D6
:1017500080012046009500F0B1F908B10320F8BDE2
:10176000202084F8690084F86A00002084F868600A
:10177000F8BD10B5806B0021A0F85A10A0F85210E7
:1017800090F86910202221290AD101688B6813F092
:10179000800F05D00B6823F0C0030B6080F8692030
:1017A00090F86A1022290FD101688B6813F0400F5E
:1017B0000AD00B6823F490730B6001688B6823F0E8
:1017C00001038B6080F86A20C16E41F01001C16690
:1017D000FFF702FD10BD014610B5806B096809686E
:1017E00011F4807F02D0FFF771FE10BD0021A0F838
:1017F000521001688A6822F080028A6000680168DD
:1018000041F04001016010BD10B5806BFFF75FFE35
:1018100010BD000070B504468068102100222369C5
:101820001546D4F81CC01843636943EA0C0303430C
:101830002068D0F800C09D4E0CEA060C4CEA030369
:10184000036020684368D4F80CC023F4405343EA93
:101850000C034360236AA06903432068D0F808C0E2
:101860002CF4306C4CEA030383602068904BA0F1A9
:10187000804CBCF5883C23D0A0F1804CBCF5884C52
:1018800029D0A0F1804CBCF5904C2FD0A0F1804C19
:10189000BCF5984C35D0A0F1804CBCF5A04C3BD0A9
:1018A000A0F1804CBCF58A3C44D0A0F1804CBCF542
:1018B000F04C4FD0A0F1804CBCF5F84C58D06CE007
:1018C0001B6813F0030343D0012B63D0022B5FD0BE
:1018D000032B61D061E01B6813F00C0356D0042B7E
:1018E00058D0082B54D00C2B56D056E01B6813F060
:1018F00030034BD0102B4DD0202B49D0302B4BD068
:101900004BE01B6813F0C00340D0402B42D0802B2B
:101910003ED0C02B40D040E01B6813F4407335D05C
:10192000B3F5807F36D0B3F5007F31D0B3F5407F7B
:1019300032D032E01B6813F4406309D0B3F5806FF6
:1019400028D0B3F5006F23D0B3F5406F24D024E046
:10195000012122E01B6813F4405317D0B3F5805FD8
:1019600018D0B3F5005F13D0B3F5405F14D014E086
:101970001B6813F4404309D0B3F5804F0AD0B3F588
:10198000004F05D0B3F5404F06D006E0002104E03B
:10199000022102E0042100E00821E369B3F5004FD1
:1019A00008D009297FD2DFE801F046525E7E677ECB
:1019B0007E7E7400092935D2DFE801F0050F193465
:1019C000213434342B00FFF74BF94100606801EB00
:1019D0005001B1FBF0F082B225E0FFF759F9410068
:1019E000606801EB5001B1FBF0F082B21BE060686F
:1019F000304901EB5001B1FBF0F082B213E0FFF788
:101A00005FF94100606801EB5001B1FBF0F082B278
:101A100009E060684FF4803101EB5001B1FBF0F058
:101A200082B200E0012522F00F00C2F34201084318
:101A30002168C86038E0FFF713F90146606801EBE0
:101A40005001B1FBF0F0216880B2C8602CE0FFF7D4
:101A50001FF90146606801EB5001B1FBF0F021680D
:101A600080B2C86020E06168134A02EB5102B2FB09
:101A7000F1F189B2C16017E0FFF722F90146606811
:101A800001EB5001B1FBF0F0216880B2C8600BE0BF
:101A900009E061684FF4004202EB5102B2FBF1F140
:101AA00089B2C16000E00125284670BDF369FFEFEF
:101AB000903802400048E8010024F4002DE9F0418C
:101AC000044600681E461746069D8846C06931EAEE
:101AD00000000CBF01200020B84226D1B5F1FF3F25
:101AE0001AD025B1FEF736FF801BA84214D3206818
:101AF000016821F4D07101602068816821F0010142
:101B00008160202084F8690084F86A00002084F84D
:101B100068000320BDE8F0812068C06938EA000051
:101B20000CBF01200020B842D8D00020BDE8F081D1
:101B3000F8B51B4E002569468DF800503068C06925
:101B4000184C10F0200F20D0012240F6FF733046D1
:101B5000FFF7F8FB9DF80000CF2808BF072103D04E
:101B6000D02808BF082100D1A170A178072902D090
:101B7000082904D006E00C496278885402E00B4939
:101B8000627888546078401C60703068C16911F0D8
:101B9000100F08BFF8BD657010210162F8BD00008C
:101BA000BC0002200C00022022000220360002208D
:101BB00070B50F4D2868C0690E4C10F0200F0CD086
:101BC0002178A5F13400012240F6FF73014434303E
:101BD000FFF7B8FB2078401C20702868C16911F01D
:101BE000100F08BF70BD002121701021016270BD6F
:101BF0004C0002200C000220FEE700001D48F0B45B
:101C0000184D174A184B2E1F184CDFF864C0006897
:101C1000904288BF296809D8984288BF316805D8A2
:101C2000A0428CBFDCF80410DCF8001011F4001F97
:101C3000EED090424FF4001188BF0F4803D898426D
:101C400088BF0E4804D90160F0BC0D48FFF788BA80
:101C5000A0428CBFCCF80C10CCF80810F4E70000C0
:101C60005864024004640240B86002405860024078
:101C7000006002402C0102200C6402400864024013
:101C80004C00022070B584B04FF0000CCDB2092496
:101C9000CDF800C01E0ACDF804C0CDF808C0CDF8BC
:101CA0000CC04FF0FF0C8DF800C08DF801C04FF054
:101CB000030C8DF8020036308DF804C04FF02A0C6A
:101CC0008DF805C04FEA112C60448DF80340140ACA
:101CD0008DF8084028448DF806C0D1B28DF809105F
:101CE00020448DF80A6008448DF807503044DAB279
:101CF0008DF80B201044FF2888BFC0B2C0438DF878
:101D00000C0004480D226946FFF798FBFFF776FFA9
:101D100004B070BD4C0002207047000010B50446AE
:101D20000420FFF7FBF90148046010BD0800022001
:101D3000F0B4002400289CBFF0BC70470E494FF45B
:101D40007A724FF0E026096801FB02F5D6F814C05C
:101D50000021B369B2699A42FCD026BFACEB0207FE
:101D60003B449B1A19441346A942F3D3641C844292
:101D7000ECD3F0BC7047000008000220FEF7E6FA42
:101D8000FEF7F6FD0923022219214FF4D870FFF760
:101D9000D5FBD820FFF7C2FF0B484FF00061FFF7DB
:101DA00099FB0A494FF478400860094800F012F89E
:101DB0001420FFF7BDFF00220F204FF4FA734FF4F9
:101DC000C871FFF75FFFF3E7A06002401000022038
:101DD00040420F000F4970B500240D4A0A600C25DF
:101DE000C1E90104CC6008460C61C1E90554FFF764
:101DF000F4F90A48084901604FF4FA31C0E90114C6
:101E0000C4600461C0E90554BDE87040FFF7E5B95E
:101E1000004400404C00022000100140BC000220A1
:101E20004FF04070E1EE100A704700000000000023
:101E30000000010203040607080900000000010277
:101E40000304000610160006101600006C1E0008A1
:101E5000000002201800000034020008841E000860
:101E600018000220D8070000500200080024F400E7
:101E7000000000000000000000000000000000FF63
:041E8000FFFFFFFF62
:04000005080001F9F5
:00000001FF
