:020000040800F2
:10000000F8230520850300082DCC000899B50008C9
:1000100079BE00084D7D000831160108000000007F
:100020000000000000000000000000006F0B01084D
:10003000578200080000000029790008990C010887
:10004000BF030008BF030008BF030008BF03000888
:10005000BF030008BF030008BF030008BF03000878
:10006000BF030008BF030008BF030008BF03000868
:10007000BF030008BF030008BF030008BF03000858
:10008000BF030008BF030008BF030008BF03000848
:10009000BF030008BF030008BF030008BF03000838
:1000A000BF030008BF030008BF030008BF03000828
:1000B000BF030008BF0300081D0D0108BF030008AF
:1000C000BF030008BF030008BF030008BF03000808
:1000D000BF03000859150108C5150108BF03000832
:1000E000BF030008BF030008BF030008BF030008E8
:1000F000BF030008BF030008BF030008BF030008D8
:10010000BF030008BF030008BF030008BF030008C7
:10011000BF030008BF030008BF030008BF030008B7
:10012000BF030008BF030008BF030008BF030008A7
:10013000BF030008BF030008BF030008BF03000897
:10014000BF030008BF030008BF030008BF03000887
:10015000BF030008BF030008BF030008BF03000877
:10016000BF030008BF030008BF030008BF03000867
:10017000BF030008BF030008BF0300080000000021
:10018000BF030008BF030008B10E0108BF03000849
:10019000BF030008BF030008BF030008BF03000837
:1001A000BF030008BF030008BF030008BF03000827
:1001B000BF030008BF030008BF030008BF03000817
:1001C000BF030008BF03000800000000BF030008D1
:1001D000BF030008BF030008BF030008BF030008F7
:1001E000BF030008BF030008BF030008BF030008E7
:1001F000BF030008BF03000800F002F800F0B2F8E7
:100200000AA090E8000C82448344AAF10107DA4571
:1002100001D100F0A7F8AFF2090EBAE80F0013F011
:10022000010F18BFFB1A43F00103184798AF0100F4
:10023000B8AF01000A444FF0000C10F8013B13F076
:10024000070408BF10F8014B1D1108BF10F8015B2F
:10025000641E05D010F8016B641E01F8016BF9D122
:1002600013F0080F1EBF10F8014BAD1C0C1B09D179
:100270006D1E58BF01F801CBFAD505E014F8016BEB
:1002800001F8016B6D1EF9D59142D6D3704700007D
:100290000023002400250026103A28BF78C1FBD88F
:1002A000520728BF30C148BF0B6070476E2906F067
:1002B0001F80702905F07F85662919F0FC84652967
:1002C00019F0F984672919F0F684612919F0F58489
:1002D00003681B0A28BF41F08001692905F0F084FA
:1002E000642905F0ED84752905F0EA846F2906F08C
:1002F0002683782905F04B85E92906F0C182E42997
:1003000006F0BE82F52906F0BB82EF2906F02383B2
:10031000F82905F04A850368DB0928BF41F0800110
:10032000632906F03082732906F03582E32906F04E
:100330007385F32906F07885002070471FB519F002
:1003400072FC06F057FB04000020002119F0FAFAB5
:10035000401C60600020002119F0DEFAE0601FBD43
:1003600010B510BD06F04AFE1146FFF7E7FF16F084
:100370009DF906F076FE03B4FFF7F2FF03BC12F01E
:1003800038FC000011488047DFF84400016841F460
:1003900070010160BFF34F8FDFF83800016821F072
:1003A00040410160BFF36F8F0B480047FEE7FEE757
:1003B000FEE7FEE7FEE7FEE7FEE7FEE7FEE7FEE715
:1003C00006480749074A084B70470000B90C010866
:1003D00088ED00E034EF00E0F9010008F81D052089
:1003E000F8230520F81F0520F81F052072B6704776
:1003F00062B67047EFF3108072B6704780F31088D2
:10040000704730BF704720BF7047B0FA80F0704728
:1004100090FAA0F0B0FA80F0704790FAA0F0704720
:10042000FE4880ED3A0A70472DE9F047DFF8EC937B
:1004300000262DED0A8B0446B0EE408AF0EE608A6D
:10044000884635463746D9F8AC0019F0D6FA53EC51
:10045000182B19F0D9FA6FD3D9F8B00019F0CDFAEA
:1004600053EC182B19F03FFBF5D3B4F90000B4F9A5
:100470000610401A19F0C1FA53EC182B19F0C4FAFF
:1004800000D20126B4F90E00B4F91410401A19F084
:10049000B4FA53EC182B19F0B7FA00D2761CB4F961
:1004A0001C00B4F92210401A19F0A7FA53EC182BCB
:1004B00019F0AAFA00D2761C9FEDD90B012E3BDC75
:1004C00053EC102B51EC180B19F0B6FA894606467E
:1004D00049EC180BB4F90000B4F90610401A19F0F1
:1004E0008CFA53EC182B19F0FEFA00D20125B4F95E
:1004F0000E00B4F9141049EC186B401A19F07DFA8B
:1005000053EC182B19F0EFFA00D26D1CB4F91C0053
:10051000B4F9221049EC186B401A19F06EFA53EC3A
:10052000182B19F0E0FA00D26D1C002D05DD022019
:10053000BDEC0A8BBDE8F08765E000269FEDBACBE5
:1005400006EB460904EB8905B5F90A0019F055FADE
:1005500098ED048B53EC182B19F0DFFA41EC190BD2
:10056000B5F9040019F049FA53EC182B19F0D5FA33
:1005700053EC192B19F060FA41EC190BB5F908008E
:1005800019F03BFA98ED028B53EC182B19F0C5FAD1
:1005900041EC1A0BB5F9020019F02FFA53EC182BA5
:1005A00019F0BBFA53EC1A2B19F046FA41EC1A0B6E
:1005B000B5F9060019F021FA98ED008B53EC182BD1
:1005C00019F0ABFA41EC1B0B34F9290019F015FABC
:1005D00053EC182B19F0A1FA53EC1B2B19F02CFA41
:1005E00053EC1A2B19F0CBF953EC192B19F0C7F96E
:1005F00053EC1C2B19F008FA00D27F1C761C032E3A
:100600009EDB022F01DA012092E7002090E7884963
:100610000A684B68D00180EAD20080EA0310486083
:100620008B68520380EAC30382EA5312520282EAC1
:10063000D0208B600860704710B52DED048BF0EE74
:10064000408AFFF7E4FF00EE100AB8EE400ADFED43
:10065000790A20EE200A9FED789A20EE090A11F01F
:100660004BFCB0EE408AFFF7D2FF00EE100AB8EE66
:10067000400A20EE090AB5EEC00AF1EE10FA01D1E7
:10068000B7EE000A10EE100A19F050FA41EC100B08
:1006900011F0E6FC9FED691B51EC100B53EC112B94
:1006A00019F0CAF919F064F900EE100A11F0F3FE1E
:1006B00020EE280A20EE080ABDEC048B10BD2DE9BF
:1006C000F04105462DED048BB0EE608AF0EE408AD5
:1006D0000F4618EE100A19F029FA97ED301B53EC6B
:1006E000112B19F0A9F941EC190B18EE900A19F029
:1006F0001DFA95ED301B53EC112B19F09DF953ECBD
:10070000192B19F03CF90024C5E9300118EE100A44
:1007100019F00CFA07EBC40898ED001B53EC112BF1
:1007200019F08AF941EC190B18EE900A19F0FEF94C
:1007300005EBC40696ED001B53EC112B19F07CF968
:1007400053EC192B19F01BF9C6E9000118EE100A39
:1007500019F0ECF998ED241B53EC112B19F06CF9FE
:1007600041EC190B18EE900A19F0E0F996ED241BF4
:1007700053EC112B19F060F953EC192B19F0FFF819
:10078000641CC6E92401062CC0DB002418EE100A04
:1007900019F0CCF941EC100B07EBC40090ED121BE3
:1007A00051EC100B53EC112B19F046F941EC190BDD
:1007B00018EE900A19F0BAF905EBC40696ED121B73
:1007C00053EC112B19F038F953EC192B19F0D7F819
:1007D000641CC6E91201092CD8DB002418EE100AAB
:1007E00019F0A4F941EC100B07EBC40090ED0C1BC1
:1007F00051EC100B53EC112B19F01EF941EC190BB5
:1008000018EE900A19F092F905EBC40696ED0C1B50
:1008100053EC112B19F010F914E0000078100520AA
:100820000000000000000440000000000000000084
:1008300020040220DB0FC9400000802F00000000D0
:10084000000000C053EC192B19F099F8641CC6E99C
:100850000C01032CC2DBBDEC048BBDE8F0812DE95B
:10086000F04F04462DED068B83B00D46086819F055
:10087000C4F841EC1A0B686819F0BFF841EC190B89
:10088000A86819F0BAF841EC180B94ED300B9FED05
:10089000FE1B51EC100B53EC112B19F070F8C4E94E
:1008A000300194ED0C0B53EC1A2B51EC100B19F09A
:1008B00066F8C4E90C0194ED0E0B53EC192B51ECC6
:1008C000100B19F05CF8C4E90E0194ED100B53EC19
:1008D000182B51EC100B19F052F8C4E9100153EC2D
:1008E0001A2B51EC1A0B19F0A7F8029194ED001B8A
:1008F000064653EC112B19F042F8C4E9000153EC01
:10090000192B51EC1A0B19F097F8894649EC100B8A
:1009100094ED021B054653EC112B51EC100B19F012
:100920002EF8C4E9020153EC182B51EC1A0B19F004
:1009300083F88B464BEC100B94ED041B804653EC74
:10094000112B51EC100B19F01AF8C4E9040153EC07
:10095000192B51EC190B19F06FF8019194ED061B4E
:10096000074653EC112B19F00AF8C4E9060153ECC1
:10097000182B51EC190B19F05FF8009194ED081B3E
:10098000824653EC112B18F0FAFFC4E9080153EC2E
:10099000182B51EC180B19F04FF894ED0A1B53EC7F
:1009A000112B18F0ECFFC4E90A01029953EC1A2B41
:1009B00041EC106B51EC100B19F03EF894ED121B4A
:1009C00053EC112B18F0DBFF49EC105BC4E912016A
:1009D00053EC192B51EC100B19F02EF894ED141B5D
:1009E00053EC112B18F0CBFF4BEC108BC4E9140126
:1009F00053EC182B51EC100B19F01EF894ED161B4C
:100A000053EC112B18F0BBFF49EC105BC4E9160145
:100A100053EC1A2B51EC100B19F00EF894ED181B37
:100A200053EC112B18F0ABFFC4E91801019953ECFA
:100A3000192B41EC107B51EC100B18F0FDFF94EDDD
:100A40001A1B53EC112B18F09AFFC4E91A010099F4
:100A5000554641EC10AB0E4653EC182B51EC100BE5
:100A600018F0EAFF94ED1C1B53EC112B18F087FFD4
:100A7000C4E91C0153EC1A2B51EC180B18F0DCFFE5
:100A800053EC1A2B18F0D8FF94ED1E1B53EC112BCE
:100A900018F075FF46EC105BC4E91E0153EC192BEE
:100AA00051EC100B18F0C8FF94ED201B53EC112BE8
:100AB00018F065FFC4E9200153EC182B51EC180B1A
:100AC00018F0BAFF894649EC100B074653EC182B77
:100AD00051EC100B18F0B0FF94ED221B53EC112BCE
:100AE00018F04DFFC4E9220153EC1A2B51EC1A0BFC
:100AF00018F0A2FF884648EC100B054653EC1A2B61
:100B000051EC100B18F098FF53EC1A2B18F094FFCF
:100B100094ED241B53EC112B18F031FFC4E9240190
:100B200053EC192B51EC190B18F086FF8A464AEC4E
:100B3000100B064653EC192B51EC100B18F07CFFF0
:100B400053EC192B18F078FF94ED261B53EC112B66
:100B500018F015FF49EC107BC4E9260153EC182B63
:100B600051EC100B18F068FF53EC182B18F064FFD1
:100B700094ED281B53EC112B18F001FF48EC105B8F
:100B8000C4E9280153EC192B51EC100B18F054FF59
:100B900053EC192B18F050FF94ED2A1B53EC112B3A
:100BA00018F0EDFE48EC105BC4E92A0153EC182B59
:100BB00051EC100B18F040FF53EC182B18F03CFFD1
:100BC00094ED2C1B53EC112B18F0D9FE4AEC106B52
:100BD000C4E92C0153EC182B51EC100B18F02CFF2E
:100BE00053EC182B18F028FF94ED2E1B53EC112B0F
:100BF00018F0C5FEC4E92E0103B0BDEC068BBDE8BC
:100C0000F08F2DE9F04F93462DED108B0D460446E5
:100C100093B090ED0CEB53EC1E2B51EC1E0B18F027
:100C20000BFF94ED000B41EC190B8DED080B94EDCF
:100C3000308B53EC102B51EC180B18F0FDFE53ECDD
:100C4000192B18F06AFF94ED0EDB41EC1F0B53ECEF
:100C50001D2B51EC1D0B18F0EFFE94ED060B41EC33
:100C6000190B8DED060B53EC102B51EC180B18F0F3
:100C7000E3FE53EC192B18F050FF41EC100B8DEDF7
:100C8000040B94ED10CB03E0000000000000F03FE7
:100C900053EC1C2B51EC1C0B18F0CEFE94ED0A0B00
:100CA00041EC190B8DED020B53EC102B51EC180B92
:100CB00018F0C2FE53EC192B18F02FFF41EC110B6A
:100CC00053EC1D2B8DED001B51EC1E0B18F0B4FEE8
:100CD00094ED020B41EC190B53EC102B51EC180B5B
:100CE00018F0AAFE53EC192B18F017FF41EC1B0B60
:100CF00053EC1C2B51EC1E0B18F09EFE94ED040BD4
:100D000041EC190B53EC102B51EC180B18F094FE1E
:100D100053EC192B18F001FF41EC1A0B53EC1C2B70
:100D200051EC1D0B18F088FE94ED080B41EC190BEB
:100D300053EC102B51EC180B18F07EFE53EC192BD2
:100D400018F0EBFE9DED020B41EC190B53EC102B50
:100D500051EC1E0B18F070FE41EC110B51EC180B0E
:100D60008DED101B94ED160B53EC102B18F064FE58
:100D700041EC110B51EC1E0B8DED0E1B9DED060B86
:100D800053EC102B18F058FE41EC110B51EC180BE2
:100D90008DED0C1B94ED140B53EC102B18F04CFE46
:100DA00041EC110B51EC1E0B8DED0A1B9DED080B58
:100DB00053EC102B18F040FE94ED120B41EC1E0B7F
:100DC00053EC102B51EC180B18F036FE53EC1E2B85
:100DD00018F0A3FE9DED0A1B53EC112B18F0CFFD6C
:100DE0009DED0C1B53EC112B18F097FE9DED0E1B87
:100DF00053EC112B18F0C3FD9DED101B53EC112B80
:100E000018F08BFE9FEDFE1B53EC112B18F014FE17
:100E10009DED020B41EC1E0B53EC102B51EC1D0B06
:100E200018F00AFE41EC110B51EC180B8DED101B64
:100E300094ED1C0B53EC102B18F0FEFD41EC110B44
:100E400051EC1D0B8DED0E1B9DED060B53EC102B85
:100E500018F0F2FD41EC110B51EC180B8DED0C1B51
:100E600094ED1A0B53EC102B18F0E6FD41EC110B2E
:100E700051EC1D0B8DED0A1B9DED080B53EC102B57
:100E800018F0DAFD94ED180B41EC1D0B53EC102B10
:100E900051EC180B18F0D0FD53EC1D2B18F03DFE53
:100EA0009DED0A1B53EC112B18F069FD9DED0C1BF9
:100EB00053EC112B18F031FE9DED0E1B53EC112B52
:100EC00018F05DFD9DED101B53EC112B18F025FE65
:100ED0009FEDCB1B53EC112B18F0AEFD9DED020BDB
:100EE00041EC1D0B53EC102B51EC1C0B18F0A4FD26
:100EF00041EC110B51EC180B8DED021B94ED220B04
:100F000053EC102B18F098FD41EC110B51EC1C0B1D
:100F10008DED0A1B9DED060B53EC102B18F08CFD8C
:100F200041EC110B51EC180B8DED0C1B94ED200BCB
:100F300053EC102B18F080FD41EC110B51EC1C0B05
:100F40008DED061B9DED080B53EC102B18F074FD76
:100F500094ED1E0B41EC1C0B53EC102B51EC180BB9
:100F600018F06AFD53EC1C2B18F0D7FD9DED061B05
:100F700053EC112B18F003FD9DED0C1B53EC112BC2
:100F800018F0CBFD9DED0A1B53EC112B18F0F7FC6C
:100F90009DED021B53EC112B18F0BFFD9FED981B2C
:100FA00053EC112B18F048FD9DED040B41EC180B90
:100FB00053EC102B51EC1F0B18F03EFD10919DEDE2
:100FC000001B824653EC112B18F036FD41EC110B3F
:100FD00053EC192B8DED0A1B51EC1F0B18F02CFD57
:100FE00053EC192B18F028FD41EC110B53EC1A2B84
:100FF0008DED081B9DED040B51EC100B18F01CFD42
:10100000814653EC1A2B119118F016FD41EC110B8F
:101010008DED061B9FED7C0B51EC1B0B53EC102B45
:1010200018F00AFD53EC1A2B18F006FD53EC192B9F
:1010300018F002FD9DED001B41EC1C0B53EC1B2B2B
:1010400051EC110B18F0F8FC074653EC1B2B0291E6
:1010500018F0F2FC53EC1C2B18F05FFD9DED061B05
:1010600053EC112B18F08BFC9DED081B53EC112B4E
:1010700018F085FC9DED0A1B53EC112B18F04DFD6B
:1010800041EC1C0B9FED620B53EC102B18F096FCFF
:101090007DD053EC192B51EC1B0B18F0CDFC53EC0D
:1010A000182B18F0C9FC41EC110B53EC1D2B8DEDE6
:1010B0000E1B029941EC107B51EC100B18F0BCFC9C
:1010C00041EC110B8DED0C1B9DED000B53EC102B27
:1010D0009DED040B51EC100B18F0AEFC53EC1E2BE5
:1010E00018F0AAFC41EC110B53EC192B8DED081BE9
:1010F00051EC190B18F0A0FC53EC1E2B18F09CFCC3
:1011000041EC110B53EC1D2B8DED0A1B51EC190B0F
:1011100018F092FC41EC110B53EC182B8DED061BD3
:101120009DED040B51EC100B18F086FC9DED061B99
:1011300053EC112B18F0F1FC53EC1A2B18F07CFC3B
:101140009DED0A1B53EC112B18F019FC9DED081BAB
:1011500053EC112B18F0E1FC9DED0C1B53EC112B03
:1011600018F00DFC9DED0E1B53EC112B18F0D5FC67
:1011700041EC100B53EC1A2B8DED060B51EC1B0BB5
:1011800018F05AFC8846064648EC100B00E065E172
:1011900053EC182B51EC100B18F04EFC41EC110BDA
:1011A00053EC1E2B8DED041B029941EC107B51EC8E
:1011B000100B18F041FC41EC110B51EC1F0B8DEDA5
:1011C000021B9DED000B53EC102B18F035FC53EC7B
:1011D0001D2B18F031FC41EC110B53EC1A2B8DED4B
:1011E000081B51EC1A0B18F027FC53EC1D2B18F0C0
:1011F00023FC41EC110B53EC1E2B8DED001B0BE07F
:10120000000000000000E03F00000000000000407F
:10121000000000000000000051EC1A0B18F00CFC5C
:1012200041EC1A0B53EC182B51EC1F0B18F004FC7B
:1012300053EC1A2B18F071FC53EC192B18F0FCFB33
:101240009DED001B53EC112B18F099FB9DED081B35
:1012500053EC112B18F061FC9DED021B53EC112B8C
:1012600018F08DFB9DED041B53EC112B18F055FC71
:1012700041EC100B53EC1D2B8DED040B48EC106B67
:1012800051EC100B18F0D8FB41EC110B53EC1E2B5A
:101290008DED001B119941EC109B51EC100B18F0D7
:1012A000CBFB41EC110B53EC182B8DED021B10996D
:1012B00041EC10AB51EC100B18F0BEFB41EC1A0BDB
:1012C00053EC1B2B51EC1B0B18F0B6FB53EC182BFB
:1012D00018F0B2FB41EC180B53EC1E2B51EC1B0B1E
:1012E00018F0AAFB41EC1B0B53EC1D2B51EC1F0B10
:1012F00018F0A2FB53EC1B2B18F00FFC53EC192B2E
:1013000018F09AFB53EC182B18F039FB53EC1A2BFE
:1013100018F003FC9DED021B53EC112B18F02FFB72
:101320009DED001B53EC112B18F0F7FB9DED060B08
:1013300041EC190B53EC1C2B51EC100B18F034FB47
:1013400041EC180B53EC1C2B85ED008B9DED040B31
:1013500051EC100B18F028FB41EC1A0B53EC1C2B32
:1013600085ED02AB51EC190B18F01EFB41EC190B8B
:1013700085ED049B94ED100B53EC102B18F05CFBE7
:1013800094ED0E0B41EC1B0B53EC102B51EC1A0B94
:1013900018F052FB94ED0C0B41EC1C0B53EC102B92
:1013A00051EC180B18F048FB53EC1C2B18F0E7FA23
:1013B00053EC1B2B18F0E3FA1FED6D1B53EC112BB4
:1013C00018F03AFB94ED061B94ED000B41EC1B0B5F
:1013D00053EC112B51EC100B18F0D1FA94ED0A1BC1
:1013E00053EC112B18F0CBFA53EC1B2B18F095FB98
:1013F00094ED301B53EC112B18F0D6FA41EC1B0B7B
:1014000053EC192B51EC190B18F016FB41EC190B8E
:1014100053EC1A2B51EC1A0B18F00EFB41EC1A0B83
:1014200053EC182B51EC180B18F006FB53EC1A2B4D
:1014300018F0A5FA53EC192B18F0A1FA53EC1B2B5A
:1014400018F09DFA41EC100B10F0F2FF8BED000B41
:10145000012013B0BDEC108BBDE8F08F0020F8E741
:101460002DE9F04F0D462DED108B04468BB091ED1C
:1014700000AB53EC1A2B51EC1A0B18F0DDFA94ED7B
:101480000CCB53EC1C2B18F0D7FA53EC1C2B18F098
:10149000D3FA94ED30FB41EC180B53EC1A2B51ECC2
:1014A0001F0B18F0C9FA8B464BEC100B074653EC98
:1014B0001A2B51EC100B18F0BFFA94ED00EB53EC23
:1014C0001E2B18F0B9FA53EC182B18F026FB41EC40
:1014D000190B53EC1E2B51EC1A0B18F0ADFA53EC10
:1014E0001C2B18F0A9FA4BEC107B94ED121B41EC6D
:1014F000180B53EC112B51EC100B18F09DFA53EC18
:10150000192B18F001FB53EC182B18F038FA41ECAA
:101510001B0B1FEDC30B51EC1A0B53EC102B18F0E7
:101520008BFA894649EC100B95ED029B064653EC6D
:10153000192B51EC100B18F07FFA53EC1C2B18F000
:101540007BFA94ED0EDB53EC1D2B18F075FA41EC91
:10155000180B1FEDD30B51EC1F0B53EC102B18F095
:101560006BFA824653EC1A2B069118F065FA53EC8D
:10157000192B18F061FA94ED021B53EC112B18F0A3
:101580005BFA53EC1B2B18F0FAF953EC182B18F0FC
:10159000C4FA41EC180B53EC1C2B51EC1A0B18F04D
:1015A0004BFA049194ED06BB804653EC1B2B18F0CC
:1015B00043FA41EC110B4BEC107B8DED001B94EDCD
:1015C000141B51EC100B53EC112B18F035FA53ECA3
:1015D000182B18F099FA9DED001B53EC112B18F005
:1015E000CEF941EC110B49EC106B8DED001B95ED24
:1015F000048B51EC100B53EC182B18F01DFA53EC24
:101600001C2B18F019FA94ED10CB53EC1C2B18F08E
:1016100013FA41EC110B53EC1A2B8DED021B0699BA
:1016200041EC10AB51EC100B18F006FA53EC182BF0
:1016300018F002FA94ED041B53EC112B18F0FCF98E
:101640009DED001B53EC112B18F099F99DED021B39
:1016500053EC112B18F061FA41EC100B8DED000BDF
:10166000049994ED0AAB41EC108B53EC1A2B51EC1E
:10167000100B18F0E1F941EC110B4BEC107B8DEDE8
:10168000021B94ED161B51EC100B53EC112B18F0B0
:10169000D3F99DED001B53EC112B18F035FA9DED9D
:1016A000021B53EC112B18F06AF941EC110B8DED74
:1016B000001B9FEDFE0B51EC1E0B53EC102B18F092
:1016C000BBF953EC1E2B18F0B7F941EC110B8DED63
:1016D000021B9FEDF60B51EC1F0B53EC102B18F077
:1016E000ABF9059194ED241B814653EC112B18F0B6
:1016F000A3F99DED001B53EC112B18F040F99DED63
:10170000021B53EC112B18F008FA41EC110B53ECAF
:101710001E2B8DED001B51EC190B18F08DF953ECBD
:101720001D2B18F089F941EC110B53EC192B8DEDA1
:10173000081B51EC1F0B18F07FF9039194ED181B57
:10174000064653EC112B18F077F99DED001B53EC76
:10175000112B18F0D9F99DED081B53EC112B18F043
:101760000EF941EC110B8DED001B9FEDD20B51ECEE
:101770001E0B53EC102B18F05FF98B464BEC100B43
:10178000054653EC1B2B51EC100B18F055F941ECAE
:10179000110B8DED081B9FEDC70B51EC1F0B53EC8C
:1017A000102B18F049F9049194ED2A1B804653EC54
:1017B000112B18F041F99DED001B53EC112B18F083
:1017C000DEF89DED081B53EC112B18F0A6F941EC47
:1017D000110B53EC1E2B8DED001B51EC180B18F068
:1017E0002BF953EC1C2B18F027F941EC1E0B53EC92
:1017F000182B51EC1F0B18F01FF9029194ED1E1BD2
:10180000074653EC112B18F017F99DED001B53EC14
:10181000112B18F079F953EC1E2B18F0B0F84BECA3
:10182000105B41EC1F0B53EC1A2B51EC100B18F012
:1018300003F941EC1E0B049994ED2C1B41EC108B29
:1018400053EC112B51EC100B18F0F6F853EC1F2B46
:1018500018F095F853EC1E2B18F05FF941EC1F0BB4
:1018600053EC192B51EC190B18F0E6F853EC1D2B27
:1018700018F0E2F853EC1D2B18F0DEF841EC1E0BCB
:10188000039953EC192B41EC106B51EC100B18F031
:10189000D3F853EC1B2B18F0CFF853EC1F2B18F098
:1018A0006EF853EC1E2B18F038F941EC1F0B53EC7B
:1018B0001B2B51EC190B18F0BFF853EC1D2B18F033
:1018C000BBF841EC1E0B039994ED1A1B41EC106B15
:1018D00053EC112B51EC100B18F0AEF853EC1F2BFE
:1018E00018F012F953EC1E2B18F049F841EC1F0BBD
:1018F0009FED720B51EC190B53EC102B18F09CF868
:1019000053EC182B18F098F853EC1D2B18F094F8A2
:1019100053EC1C2B18F090F841EC1E0B069953EC7D
:10192000192B41EC10AB51EC100B18F085F853EC6F
:10193000182B18F081F894ED081B53EC112B18F0BC
:101940007BF853EC1F2B18F01AF853EC1E2B18F0F1
:10195000E4F841EC1E0B53EC1D2B51EC190B18F065
:101960006BF853EC1A2B18F067F841EC190B03993C
:1019700094ED1C1B41EC106B53EC112B51EC100B34
:1019800018F05AF853EC1E2B18F0BEF853EC192B34
:1019900017F0F5FF41EC1D0B9FED44EB51EC1B0BD9
:1019A00053EC1E2B18F048F853EC1B2B18F044F89E
:1019B00041EC190B059994ED261B41EC109B53EC5F
:1019C000112B51EC100B18F037F853EC1D2B17F0BE
:1019D000D6FF53EC192B18F0A0F841EC1D0B53EC7B
:1019E0001B2B51EC180B18F027F853EC1C2B18F09C
:1019F00023F841EC190B029994ED201B41EC107B6C
:101A000053EC112B51EC100B18F016F853EC1D2B66
:101A100018F07AF853EC192B17F0B1FF9FED250B56
:101A200041EC190B53EC102B51EC1B0B18F004F884
:101A300053EC1A2B18F000F841EC1B0B049994EDB1
:101A40002E1B41EC108B53EC112B51EC100B17F0AB
:101A5000F3FF53EC192B17F092FF53EC1B2B18F0EC
:101A60005CF841EC1B0B53EC182B51EC180B17F0E6
:101A7000E3FF53EC1C2B17F0DFFF53EC1C2B17F08C
:101A8000DBFF41EC190B029953EC182B41EC107B56
:101A900051EC100B17F0D0FF53EC1A2B17F0CCFFC2
:101AA00053EC1B2B17F06BFF0CE000000000000054
:101AB0000000D03F000000000000E03F00000000F8
:101AC0000000004053EC192B18F027F841EC190BDB
:101AD00053EC1A2B51EC180B17F0AEFF53EC1C2BE8
:101AE00017F0AAFF41EC180B029994ED221B41EC70
:101AF000107B53EC112B51EC100B17F09DFF53ECA6
:101B0000192B18F001F853EC182B17F038FF41ECA3
:101B1000180B53EC1E2B51EC1A0B17F08DFF53ECE6
:101B20001A2B17F089FF41EC190B059994ED281B2E
:101B300041EC109B53EC112B51EC100B17F07CFF78
:101B400053EC182B17F01BFF53EC192B17F0E5FF84
:101B500041EC100B0BB07DE430B50446B0F88C00BE
:101B600089B000040690B4F88E000D46000407907A
:101B7000B4F8900088340004089002A813F038FBF1
:101B8000029906982B46401A06900399079806AAD0
:101B9000401A079004990898401A08902088616AB2
:101BA00080B213F075F909B030BDF0B50D462DEDDA
:101BB000048B87B06946FFF7CFFF9FEDFE8B0024B3
:101BC0006F469FEDFE9A03AE57F8240000EE100A10
:101BD00006EB8400B8EEC00A20EE090A80ED000A88
:101BE00020EE000A10EE100A17F0A0FF53EC182B9D
:101BF00017F0C5FE41EC180B641C032CE4DBB0EEBF
:101C0000480AF0EE680A10F013FCB0EE408AF0EEDD
:101C1000608A002456F8240017F088FF53EC182B34
:101C200017F0C2FE17F0A4FE00EE100A05EB8400C8
:101C3000641CD0ED000A032C30EE200A80ED000A6F
:101C4000E8DB686D401C686513F0C2FDE86707B00B
:101C5000BDEC048BF0BD2DE9F041044613F072FB9E
:101C600040BB13F0F3FA042824D0D54920460E4691
:101C7000FFF79BFFD34DD5E95C01814205DB304680
:101C800003F0E5FB0020C5F87401208E4FF0040638
:101C9000C00515D504F1180013F046FB8009B0F516
:101CA000C87F0AD2D5F8B800002850DD401EC5F81C
:101CB000B8004AE00120BDE8F081C5F8B86044E012
:101CC000D4F8A010D5F81401081A01D4034600E096
:101CD0004342BB4A4FF4A02C583A634505DDD4E992
:101CE00029035365C2E913102FE00312D4F8A4703E
:101CF000D5F818015B43381A01D4864601E0C0F1DB
:101D0000000EE64505DDD4F8A800D164C2E91470E0
:101D10001BE0001200FB0033D4F8A800D5F81C111A
:101D2000401A01D4014600E0414261450DDC001239
:101D300000FB0030B0F5403FB4DBA034C5F8B8601C
:101D400094E80B004C3282E80B000020B3E702203D
:101D5000B1E72DE9F04F9B4C2DED028B93B0D4F8F9
:101D6000A81090ED000B04EBC10181ED000BD4F83D
:101D7000A810491CC4F8A81090ED020B04EBC10197
:101D800081ED000BD4F8A810491CC4F8A81090ED00
:101D9000040B04EBC10080ED000BD4F8A800401C3C
:101DA000C4F8A800152802DB0020C4F8A8001822F7
:101DB00084490CA804F05EF91822824904A804F0B2
:101DC00059F901260DF1300A0DF1100BA14600243E
:101DD00006EB460808EB040109EBC1050AEBC40752
:101DE00095ED001B97ED000B53EC112B51EC100BF4
:101DF00017F079FE03D295ED000B87ED000B0BEB8E
:101E0000C40795ED001B97ED000B53EC112B51EC23
:101E1000100B17F0F9FD03D295ED000B87ED000BC9
:101E2000641C032CD6DB761C072ED0DB9DED0C1B2F
:101E30009DED040B53EC112B51EC100B17F06DFEC4
:101E40009DED0E1B9DED060B41EC180B53EC112B79
:101E500051EC100B17F061FE53EC182B17F0D4FD6A
:101E60000BD39DED0E1B9DED060B53EC112B51EC8E
:101E7000100B17F052FE41EC180B9DED101B9DED61
:101E8000080B53EC112B51EC100B17F046FE53ECE2
:101E9000182B17F0B9FD0BD39DED101B9DED080B12
:101EA00053EC112B51EC100B17F037FE41EC180BD3
:101EB00013B0B0EE480AF0EE680ABDEC028BBDE844
:101EC000F08F10B504462DED068B9CB000215520F7
:101ED0000E91CDE90F1011909FED3B8B0AA813F0E6
:101EE00051F912A90AA813F07CFD16AA0EA912A88E
:101EF00013F09AFD6A460AA916A813F095FD0198F9
:101F0000B2EE059A00F5967001900298B0EE490A7B
:101F100000F596700290039800F596700390FEF716
:101F20008BFBBDEEC00A019910EE100AB0EE490A13
:101F300008440190FEF780FBBDEEC00A029810EE47
:101F4000101AB0EE490A08440290FEF775FBBDEE88
:101F5000C00A039910EE100A08440390204601A914
:101F6000FEF77DFC94ED300B9FED191B51EC100B2F
:101F700053EC112B17F0B7FD5DD21AAA04A9204625
:101F8000FEF73FFE60B39DED080B9FED138B51EC08
:101F9000100B53EC182B17F0C0FD41EC100B53EC59
:101FA000102B17F049FD41EC190B9DED060B53EC7E
:101FB000182B16E000000000000000000000803731
:101FC00098110520781005200000000000408F4087
:101FD00000000000000034400000000000C072401B
:101FE00029E051EC100B17F098FD41EC100B53EC6D
:101FF000102B17F021FD9DED040B41EC1A0B53EC57
:10200000182B51EC100B17F088FD41EC100B53EC22
:10201000102B17F011FD53EC1A2B17F0B0FC53ECFA
:10202000192B17F0ACFC41EC100B10F001FAB0EEDC
:10203000408AF0EE608A9FEDFD0B51EC180B53ECDB
:10204000102B17F0B1FC1CB041EC100BBDEC068B53
:1020500010BD10B5E821F74804F0A5F8F648F74997
:1020600020F8BC1F4A0CC280C181828281834284D5
:10207000F048E821E83004F096F8EF490020C1F874
:10208000B40010BD2DE9F043EB4D04462DED108B4F
:10209000C3B0006BC5F8A0012046FFF7DCFD0028A7
:1020A0007ED1D5F8941105F1BC08012911D1B4F9FC
:1020B0008C003D90B4F98E003E90B4F990003F90B2
:1020C0003DA9DC48FEF7CBFB04F18C01404600F053
:1020D000A4FB1FED48DB9FEDDABB9FEDDBCB9FED53
:1020E000DCAB9FEDDDEBD34ED5F80801E83E0028D0
:1020F00002DD401EC5F8080196ED300B53EC1D2B98
:1021000051EC100B17F0EFFC7DD2CA49E822E839F8
:10211000684603F0AFFFC7483DA9E838FEF79FFBCC
:10212000C44940AA20390F46A1F1C800FEF769FD55
:1021300000287BD0BF483946E838FFF791F9B0EE68
:10214000408AF0EE608A95ED400B51EC180B53EC91
:10215000102B17F0E2FC96ED300B41EC190B53EC11
:102160001B2B51EC100B17F0D8FC41EC100B51EC71
:10217000190B53EC102B17F017FC41EC100B10F05F
:1021800057F996ED30FBB0EE409AF0EE609A53ECC2
:102190001B2B51EC1F0B17F0C0FC53EC1F2B00E066
:1021A000E9E017F049FC41EC1F0B53EC1C2B51EC00
:1021B000180B17F041FC53EC1F2B17F0F5FB41EC0B
:1021C000100B10F035F9D5F8E80017F0AFFC95EDDD
:1021D000381B53EC112B17F02FFC53EC192B17F075
:1021E00013FC03D3D5F80801002826DD9148E82226
:1021F0006946E83803F03EFFD5F8E80017F096FC92
:1022000095ED381B01E010E010E053EC112B17F0B6
:1022100013FC53EC192B17F0F7FB5CD24FF4FA7058
:1022200001F03CFE0A20C5F8080154E08148E8228C
:102230006946E83803F01EFF4DE0D5F89801012803
:1022400049D1D5F8B400401CC5F8B400002014F002
:102250005DF896ED320B53EC1A2B51EC100B17F086
:10226000EBFB17F0C3FB3A9096ED340B53EC1A2BB3
:1022700051EC100B17F0E0FB17F0B8FB3B9096ED1C
:10228000360B53EC1A2B51EC100B17F0D5FB17F053
:10229000ADFB3C9003213AA813F09CFF96ED300B68
:1022A00053EC1E2B51EC100B17F01DFC11D29FEDBF
:1022B0006C0A6049E839F0EE400A0846FEF7FFF97B
:1022C0005C483946E838FFF7CBF8B0EE408AF0EECC
:1022D000608A85ED408B208E564FC0050CD5B4F832
:1022E0007400C00508D507F1E800FFF7EAFDB0EE7D
:1022F000408AF0EE608A01E09FED4C8B97ED300B49
:102300001FEDCD1B51EC100B53EC112B17F07CFB88
:1023100031D3484940AAC83189464648FEF771FC86
:1023200000287CD0D4F8AC0017F067FB41EC100B10
:1023300053EC102B9FED4B0B51EC100B17F034FBB3
:1023400041EC1F0B4846FFF704FDB0EE409AF0EE5B
:10235000609A53EC1F2B51EC190B17F0C4FB0BD2F6
:102360009FED420B51EC180B53EC102B17F04CFB6C
:1023700002D2FFF76EFEDBE153EC1F2B51EC190B81
:1023800017F042FB51D251EC180B9FED3A9B53ECE6
:10239000192B17F039FBF5D297ED300B9FED371B5A
:1023A00051EC100B53EC112B17F09DFBEAD296ED7C
:1023B000300B53EC1D2B51EC100B17F0FFFA7CD1B6
:1023C00049461C48FFF74CF8B0EE408AF0EE608AB0
:1023D00085ED408B97ED309B53EC1B2B51EC190B8B
:1023E00017F09BFB53EC192B17F026FB41EC190B54
:1023F00053EC1C2B51EC180B17F01EFB53EC192B54
:1024000017F0D2FA41EC100B10F012F8B0EE408A3F
:10241000F0EE608AD5F8E80017F088FB00E088E16C
:1024200095ED381B53EC112B2CE078E100000000F7
:1024300000000840A80E0520781005200080FFFF4E
:10244000000000000000F03F00000000000000401D
:10245000000000000000F0400000000000409F402D
:102460006666E63E9A9999999999A94100000000FB
:102470000000F83F000000000000104000000000D5
:1024800000003E4017F0D8FA53EC182B17F0BCFAB6
:10249000FFF46FAF9DED400B49464046FDF7C4FF8A
:1024A00002283FF466AF00287ED1D5F898010128B4
:1024B000FAD1002013F02AFF00E02FE097ED320B55
:1024C00053EC1A2B51EC100B17F0B6FA17F08EFAEA
:1024D0003A9097ED340B53EC1A2B51EC100B17F08C
:1024E000ABFA17F083FA3B9097ED360B53EC1A2BAF
:1024F00051EC100B17F0A0FA17F078FA3C9003217A
:102500003AA813F067FE012013F094FE1920009002
:1025100001900290684613F083FEF6E0D5F8B4000F
:1025200017F06BFA97ED301B53EC112B17F03CFAB8
:102530009FEDE71B53EC112B17F0D5FAA8D34946B2
:10254000E548FEF78DFF97ED30DBB0EE408AF0EE08
:10255000608A53EC1B2B51EC1D0B17F0DEFA53EC89
:102560001D2B17F069FA41EC1B0B53EC1C2B51ECA3
:10257000180B17F061FA53EC1B2B17F015FA41EC0E
:10258000100B0FF055FFB0EE40BAF0EE60BAD5F880
:10259000E80017F0CBFA95ED381B53EC112B17F030
:1025A0004BFA53EC1B2B00E087E017F02DFAC5D354
:1025B0009DED400B49464046FDF736FF00287CD193
:1025C00096ED361B97ED360B53EC112B51EC100B9F
:1025D00017F0A3FA41EC100B53EC102B17F02CFA68
:1025E00096ED341B97ED340B41EC1B0B53EC112B88
:1025F00051EC100B17F091FA41EC100B53EC102B2F
:1026000017F01AFA96ED321B97ED320B41EC1C0BCA
:1026100053EC112B51EC100B17F07FFA41EC100B1F
:1026200053EC102B17F008FA53EC1C2B17F0A7F9FA
:1026300053EC1B2B17F0A3F941EC100B0FF0F8FE35
:10264000B0EE40BAF0EE60BAD4F8AC0017F0D5F9AD
:1026500053EC1B2B17F0F0F99FEDA01B53EC112B43
:1026600017F0EAF941EC1B0B53EC192B17F03BFA6E
:102670001AD39FED9C0B51EC1B0B53EC102B17F056
:1026800032FABFF476AED5F8B40017F0B6F997ED8C
:10269000301B53EC112B17F087F99FED941B53EC73
:1026A000112B17F0B1F9ECD2D5F8980101287FF47D
:1026B00060AE002013F02AFE00E039E085ED408B8B
:1026C00097ED320B53EC1A2B51EC100B17F0B4F9B9
:1026D00017F08CF93A9097ED340B53EC1A2B51EC20
:1026E000100B17F0A9F917F081F93B9097ED360B15
:1026F00053EC1A2B51EC100B17F09EF917F076F9EA
:102700003C9003213AA813F065FDF7EE000A9FED17
:10271000790A7149A1F1E800FDF7D1FF29E697EDAB
:10272000300B53EC1E2B51EC100B17F0DCF9F5D3EA
:10273000002043B0BDEC108BBDE8F08370B56E4C4B
:102740000546D4F80C0110B9284600F091F8D5F8E8
:10275000B01044F6206081420ADAD4F81021114406
:102760008142C4F810114FF0000005DBC4F81001DD
:102770002846BDE8704085E470BD04224FF4C8715E
:10278000AFF2470013F08EBBAFF24F0013F02CBF37
:10279000514810B5E821E83803F005FDFFF759FC72
:1027A0004FF4D471544803F0FEFC534CB7EE000ACA
:1027B00004F5907084ED3A0A02F095FD0A20C4F801
:1027C0007001B2EE000A84ED570A1E209FED4B0AFD
:1027D000C4F87C0184ED620A9FED490A84ED610A28
:1027E0009FED480A002084ED630A10BD10B5FFF785
:1027F000CFFF002805D1AFF27D00BDE8104013F0F7
:1028000015BC10BD10B5AFF2CB0013F0EDFEAFF26A
:102810009500BDE8104013F019BF30B50022C2EB9F
:10282000C20331F9124030F91350AC420ADD02EB19
:1028300042040D8820F8245000EB84044D88658004
:102840008D88A58000EB430331F91240B3F90630BF
:102850009C4209DA02EB420300EB83030C88DC8024
:102860004C881C818C885C81521C032AD7DB30BDCC
:1028700070B5214DD0F8AC200446EAB1D317002042
:10288000192103F075F945F8AC0F54F8AC2F00206E
:10289000D317052103F06CF9686022680020D31774
:1028A000962103F065F917F0A8F8C5E90D01AC3DD4
:1028B0000120C5F80C0170BD6FF00040C5F8AC00F8
:1028C0009FED110BC5F8B00085ED380BF0E7000067
:1028D0000AD7A3703D0AE73FA80E052000000000BC
:1028E0000000103E0000000000000440333333338A
:1028F0003333C33F0000000078100520CDCCCC3E20
:102900003333333F9A99193F0000C0FFFFFFDF4187
:1029100010B5FF49C4074FF040434FF0804205D047
:102920008B66CB66C1E91C328A67CA67840709D502
:10293000C1F80031C1F80431C1E94232C1F81021B7
:10294000C1F81421400709D5C1F89831C1F89C316C
:10295000C1E96832C1F8A821C1F8AC2110BD2DE948
:10296000F14F002082B0824681460298806F002895
:102970007ED000220020401C0428FCDB029800EBE3
:10298000C203D3E90010A1FB0167D3E9065400FBA1
:10299000017701FB0077AB46AD1BCDE9006703264D
:1029A000A5FB06C8A64664EB070404FB06840027C3
:1029B00005FB0745DDE900671CEB06047D41A4FB30
:1029C000016705FB017504FB0055D3E90C47341B77
:1029D00065EB0705CDE900455D46A5FB05670324CA
:1029E000A6FB04580EFB0B770BFB0E7707FB04844A
:1029F0004FF0000C06FB0C44D3E91263761B63EB2B
:102A000004034C18A4FB017C40EB000505FB01C549
:102A100004FB0055A7FB014C05FB01C507FB005556
:102A2000A4FB017C05FB01C504FB0054F6196341BE
:102A3000DDE90045AD0045EA9475A400A4FB017CE6
:102A400005FB01C104FB0014F01B73EB040103D56B
:102A50000023404263EB0101BAEB000479EB010370
:102A600001DA82468946521C032A83DB504600E085
:102A700016E0494617F064F800EE900AA54890ED7C
:102A80000E1A80EE810A10EE100A17F0D1F8A04A53
:102A9000D2F80C2203B09200BDE8F04F03F055B815
:102AA000002003B00146BDE8F08F2DE9F14F002072
:102AB000009A0146926FE2B300240022521C042ABD
:102AC000FCDB009A02EBC405AA46D5E90029A2FB6B
:102AD000023CD5E906769E46FB1A0325A3FB057842
:102AE00009FB02CC02FB09CB66EB0B0606FB058556
:102AF0004FF0000C03FB0C5617EB0E03A3FB027CFC
:102B000046EB0B0606FB02C203FB0923DAE90C25A0
:102B1000BA1AAB4103D50025524265EB0303851A6F
:102B200071EB030501DA10461946641C032CC4DB63
:102B300000E015E017F004F800EE900A754890EDFB
:102B40000E1A80EE810A10EE100A17F071F8704A22
:102B5000D2F80C22BDE8F84F02EB420202F0F5BFBA
:102B600000200146BDE8F88F2DE9FE43684D804600
:102B70000024D5F810626F4605EBC4013246D1E956
:102B8000020102F0CFFF05EB8401B1F884100904C3
:102B9000401847F8240004F10104032CECDB5C48E6
:102BA0009821083003F0FFFA0120FFF7B1FE95F8F5
:102BB000E8010199042807D1D5F81802B0F5201FC3
:102BC00002DD052085F8E801524C0098636AC11ABD
:102BD00001D40E4600E01E1A0198A26A801A01D4A0
:102BE000074601E0019FD71BBE4206DD002901D444
:102BF000084606E00098181A03E0002801D501985D
:102C0000101A029AE16A521A01D4134601E0029B9B
:102C1000CB1A834205DB002A01D4104601E002985A
:102C2000081AD8F8241012F094FED5F81812814230
:102C300006DD0321684613F0FFFB022013F064FC5D
:102C4000009860620198A0620298E062BDE8FE838D
:102C5000304AC2E9020170472E4AC2E906017047B4
:102C60002C4AC2E904017047294AD2F8E0310360D6
:102C7000D2E97402C1E900027047254AD2F8E03176
:102C80000360D2E97602C1E9000270472DE9FE47F0
:102C900081460020EA468A6F22B901EB800339F9A8
:102CA0001020DA6701EB800239F91030D46F1D1B58
:102CB0004AF82050136E9D4200DD1566D36E9D428A
:102CC00000DAD5660123002422464FEAE578A3FB0B
:102CD000056704FB057403FB0844334602EB420618
:102CE00001EBC60606EBC00CDCE90076FF18664176
:102CF000CCE90076521C042AE9DB401C0328CADB1D
:102D0000886F401C88670120C1F89000BDE8FE87ED
:102D1000201205208014052030B5002302EB830526
:102D200050F823405B1CEC66032BF7DBC2F88810DD
:102D3000916F79B1002102EB810450F82130E56FE9
:102D40005B1B00D55B42256E9D4200DA2366491C61
:102D50000329F0DB906F401C90670120C2F89000BF
:102D600030BD10B500210B4600EB8102491CD46E2A
:102D7000D46713660329F7DBD0F8881040F8783F52
:102D8000C0E9051310BDD0E92210081A70470146AA
:102D9000D1E91802824200DB1046896E814200DBD5
:102DA000084670472DE9F0478046501E01268640B0
:102DB0008946C2F12007404602F0C7FE04460D4690
:102DC000404649463A4602F0ADFE3A4602F0BDFEA4
:102DD000B04203DD641C45F1000505E07142884204
:102DE00002DA641E45F1FF3520462946BDE8F0872A
:102DF000F7490020086248628862C8620864486433
:102E00008864C864086348638863C8630865486564
:102E10008865C865704730B5EE4AD2F8483223B1AC
:102E2000D2E990542D1A8C4101DAC2E990015B1C61
:102E3000C2F8483230BD30B5E64AD2F8583223B134
:102E4000D2E994542D1A8C4101DAC2E994015B1C39
:102E5000C2F8583230BD30B5DE4AD2F828322BB134
:102E6000D2E98845041B71EB050401DAC2E9880147
:102E70005B1CC2F8283230BD30B5D64AD2F83832A1
:102E80002BB1D2E98C45041B71EB050401DAC2E9D0
:102E90008C015B1CC2F8383230BD2DE9F047024688
:102EA000CC48012508308046C36E016E046FC91AF4
:102EB000436E1B1B8B4200DB1946836ED8F87400EF
:102EC000181A884200DB0146C14F6037F86B884210
:102ED00004DA002400F010FA204687E7108E01245F
:102EE000BC4EC0054FF000010ED5D6F880303068DA
:102EF000834209DBB2F87420D20506D5D6F8B0219A
:102F0000824201DB052400E00C4674B3600719D54A
:102F1000AF48C8388146FFF722FD000D40EA013076
:102F20000915C6E97601D7E904321B1A8A4102DA8B
:102F30000025FFF7A1FF9821484603F034F904204B
:102F4000FFF7E6FCE0070ED04046FFF708FDC6E9B4
:102F50007C01D7E906340246181A8C4103DA0025B1
:102F60001046FFF778FF284640E7FFE702203DE7DD
:102F70001EB5044690F83000C0F38110032804D138
:102F80009449201D0831FFF781FE94F87400C0F3C6
:102F90008110032805D18E4904F14800C839FFF794
:102FA00075FED4F8B8008B4AC0F38113A03269468D
:102FB000032B0FD0C0F3411003281AD1002004EBDB
:102FC0008003D3F8A0309B1341F82030401C032825
:102FD000F5DB09E0002004EB4003B3F98C3041F845
:102FE0002030401C0328F6DB6846D4F8C010FFF7F9
:102FF00093FE1EBD2DE9F04705460020296BCA054A
:103000006AD501F05001402900D1012095F87410D3
:1030100001F05001402900D1012095F8B8106D4C05
:1030200001F05001402900D030B100F065F90020D6
:10303000C4F8E00184F8E801654ED4F80812E86AA3
:103040006036814228D0C4F808020A28306B0CDAB6
:1030500040002060716B00EE100A491CC4F80C128D
:10306000B8EEC00A0FF017FA05E02060706BC4F8E4
:103070000C0296ED0E0A84ED850AD4F80C02C0F11C
:103080001000C4F810024FF48040C4F8180296F8FB
:10309000341019208840F0632846FFF769FF94F840
:1030A000E811DFF8309105274FF0020809F1A00977
:1030B000072911D2DFE801F0041127305E7E850078
:1030C000D4F8E001411CC4F8E0110A2804DB00F048
:1030D00013F9012084F8E80186E0D4F8980001286B
:1030E00010D12846FFF7D9FE10B1012803D004E023
:1030F00084F8E87101E084F8E8814846FFF731FE82
:10310000FFF776FE70E0032084F8E8012846FFF719
:103110002BFD00F0F1F867E02846FFF7BEFEE8B3AC
:10312000012861D1B5F8B8004FF00403C00515D5EA
:103130004846FFF72CFE0146C017C4E97410D6E9D3
:1031400002C2BCEB0101824102DA84F8E87108E0B6
:103150004846FFF718FE316A884202D384F8E83106
:1031600024E0F4E97601FFF766FED4E90601FFF7F3
:1031700052FE39E0B5F8B800C0050BD54846FFF758
:1031800006FE0146C017C4E97410D6E90232591A86
:10319000824108DB2846FFF780FE00E003E010B123
:1031A000012803D020E084F8E8711DE02846FFF7ED
:1031B000DBFCD6E7062084F8E801012013F0A4F92F
:1031C0000DE02846FFF769FE012805D038B10BE075
:1031D000201405202012052084F8E88104E000F086
:1031E0008BF84846FFF7BDFD0020FFE510B5002134
:1031F0004010002802D001F10101F9DC4FF001007C
:1032000001F1010100FA01F0434C00EE100AC4E99B
:103210000C01B8EEC00A0FF03EF984ED0E0A94F8E6
:10322000341019208840E06310BD10B54FF41871B8
:103230003A4802F0B8FF4021374802F0B4FF0720B7
:10324000FFF766FB344840F2DC510022C0E9061269
:103250001421C0E902124FF41671C0E9041230497A
:103260002E4C01620120C4F8E4011920FFF7BEFFD3
:103270000020C4F8080210BD10B54FF4187127489B
:1032800002F091FF0720FFF743FB244801210022B1
:10329000C0F8E41180F8E8110321012013F026F9A9
:1032A00007226421AFF2B320BDE8104012F0FABD4E
:1032B00010B5012013F028F9AFF2C720BDE8104087
:1032C00013F092B910B5FFF7B0FF002805D1AFF2A7
:1032D0005700BDE8104012F0A9BE10BD10B5FFF7B1
:1032E000E7FFAFF26B00BDE8104013F0AFB90B4938
:1032F000D1E97C0170477047084810B59821083023
:1033000002F051FF9821074802F04DFFBDE8104040
:103310000520FFF7FDBA00008014052020120520CB
:103320000008AF2F58130520F0B516462DED028B7F
:1033300085B01F460C4605463C22FE49A1F10C0013
:1033400002F0CAFEFB4950224C31A1F1100002F0FC
:10335000C3FEF84996E80D000C3901F13C0C8CE8ED
:103360000D005CCC01F1980080E85C009FEDF28AD2
:10337000D1F82401401CC1F82401062802DD0620F2
:10338000C1F82401C0F106060C46A0351AE004EB92
:1033900006116A463846483112F046FB06EB4600F5
:1033A00004EB80016A46284611F01AFDF0EEC00ACF
:1033B000B0EEC81AF4EEC10AF1EE10FA01D2B0EE86
:1033C000408A761C062EE2DB05B0B0EE480ABDEC62
:1033D000028BF0BD70B514462DED048B0E46B0EE99
:1033E000408A00259FEDD59A416BF0EE498A00296D
:1033F00004DBD0F8BC00032800D10125CD492422EC
:10340000B431081F02F068FECA480C38002380ED72
:10341000388A00EB83015B1C91ED2F0A0A2B70EEBA
:10342000288AF6DBB2EE040AC822C8EE800AC0ED94
:10343000390A9FEDC31A322E1DDB9FEDC20AC0F878
:103440001C21B6F57A7FC8EE001A00EE104AB8EEDD
:10345000C00A61EE801A81EE810A2FDB9FEDBA0A65
:10346000C8EE001A00EE104AB8EEC00A61EE801AEB
:1034700081EE810A22E041F2883194FBF1F1494268
:10348000D0F81C3101EB8101C918C0F81C1102D51C
:103490000021C0F81C119FEDAD0AC8EE001A00EE25
:1034A000104AB8EEC00A61EE801A81EE810A29B98D
:1034B000D0F82811012901D1B0EE490AD0F8201125
:1034C00009B1B0EE480AA2498C4201D1B0EE480AD7
:1034D000B5EEC00AF1EE10FA01D0C0ED3A0A90ED57
:1034E0003A1A9C4B71EE600AF0EEE00A10EE901A68
:1034F000994227DDD0ED2E0AF5EEC00AF1EE10FA62
:1035000020D1002D1ED0C0F81C21204616F075FADF
:1035100041EC190B18EE100A16F008FB9FED8E1BFC
:1035200053EC112B16F040FA53EC192B16F084FAD9
:103530009FED8B1B53EC112B16F036FA16F018FA90
:1035400000EE100ABDEC048B70BD2DE9F04F04466F
:103550002DED048BA9B09FED799A4FF0000A754EBE
:10356000CDF810A00C3ECDF814A0CDF818A0D6F8D8
:103570002011022003297DD000209FED7B8A20AD01
:1035800006EB800191ED2A0A05EB8001401CB8EEA4
:10359000C00A042820EE080A81ED000AF0DB0FA81B
:1035A00011F0F0FD24A811F057FE624B24AA9C33C1
:1035B0000FA920462793FFF7B7FEF0EE408A04F1EB
:1035C000180011F0B1FE81096148D6F8302182421D
:1035D00000DB0246B0EE680A2046FFF7FBFED6EDA0
:1035E0003B0AB3460BA820EE200A86ED2E0A11F006
:1035F000C9FD13A90BA812F0E8FB4E480FAAF03042
:103600000BA9064612F010FA31460BA812F0E9F9A0
:1036100000210DF13C080DF14C090DF1100E0022B6
:103620001346104601EB410C0CEB000759F82760DC
:1036300008EB8007401C7F680328C6FB0723F3DBE9
:10364000900F40EA83004EF82100491C0329E6DB75
:10365000DBF820015E4600286AD05046CDF818A05D
:10366000404200EE100AB8EEC00A20EE080A0EF042
:1036700043FC00E0A2E08DED000A8DED019A8DED96
:10368000029A0698404200EE100AB8EEC00A20EEF8
:10369000080A0EF003FE8DED030A9DED060ADFED2C
:1036A000330AD6F83001B8EEC00A41F2883190FBF7
:1036B000F1F080EE201A00EE100AF8EEC01A81EE4A
:1036C000210AB0EE001AC0EE011ABDEEE10A10EEBA
:1036D000101A490000EE101A0691B8EEC00A60EE0A
:1036E000200A00EE100AB8EEC00A20EE800ABDEEF5
:1036F000C00A8DED060AB8EEC00A20EE080A0EF0E8
:10370000FBFB8DED070A8DED089A8DED099A9DED75
:10371000060AB8EEC00A20EE080A0EF0BFFD8DEDD5
:103720000A0A1CAA694620A812F0D7F96A461FE0C7
:103730004BE00000CC140520002474490000000078
:1037400000409C4500004843000048420000C84338
:1037500040420F000E2DB23D0000000000007940F5
:10376000000000000088B34000008030E1023747CD
:1037700007A91CA812F0B1F96F46DFED958AD4F8BD
:10378000BC00002813DD002007EB800191ED000A4A
:1037900005EB800181ED000A20EE280A06EB80018E
:1037A000401C0428BDEEC00A81ED2A0AECDBD4F8E7
:1037B000BC00F6EE009A03280CD108E0C6F8200100
:1037C00029B0BDEC048BBDE8F08F069848E700F007
:1037D0003DFEE0B396ED2A0AB8EEC00A20EE080AD4
:1037E0008DED1C0A96ED2B0AB8EEC00A20EE080AF1
:1037F0008DED1D0A96ED2C0AB8EEC00A20EE080ADF
:103800008DED1E0A96ED2D0AB8EEC00A20EE080ACC
:103810008DED1F0AD6F820010028D1D096ED2E0A92
:1038200020EE290A0EF068FB20EE280ABDEEC00A41
:1038300086ED2A0AC6F8ACA0C6F8B0A096ED2E0A0E
:1038400020EE290A0EF02AFD20EE280A00E004E00E
:10385000BDEEC00A86ED2D0A2BE096ED2E0A20EE75
:10386000290A0EF049FB8DED070A8DED089A8DEDC2
:10387000099A96ED2E0A20EE290A0EF00FFD8DED25
:103880000A0A6A4607A920A812F027F9684612F02A
:10389000E1F9002007EB800191ED000A06EB8001C1
:1038A000401C20EE280A0428BDEEC00A81ED2A0A39
:1038B000F0DBD4F8C010279812F0C2FCD6F8200133
:1038C0000028AAD0401E79E770B590F8B810414A98
:1038D000CC064FF000034FF0030101D4C2E94813B6
:1038E000B0F82041E40509D4048EE40503D5B0F80E
:1038F0007440E40502D4C2E948131AE0D2F8341146
:1039000039B1D0E93013C91A4FF47A73B1FBF3F12E
:1039100005E0D0F8B01044F62064A14202DBC2F802
:1039200030110AE0D2F82C512944C2F82C11A142DE
:1039300001DA002070BDC2E94B31FFF706FEF8E75F
:1039400010B54FF49C71234802F02DFC214C4FF030
:1039500080400021C4F8FC0044F8A80F1D48A8309E
:1039600012F06EFC4FF47A70B7EE000A606784EDD7
:10397000110A10BD174880ED3B0A00207047154919
:10398000C1F82801002070471249C1F83401002015
:10399000704704224FF41671AFF2D30012F082BACE
:1039A000AFF2DB0012F020BE10B5FFF7C9FF0949E6
:1039B0000020C1F82801C1F83401AFF22900BDE8A8
:1039C000104012F033BBAFF2350012F03FBE0000E2
:1039D0000000804EC01405201FB501461022684625
:1039E00002F003FBF7489DE80E0080E80E00F64960
:1039F0009DF80C0081F8B001002004B010BD1FB587
:103A0000F0490EC98DE80E00EF49102291F8B0116F
:103A10008DF80C10694602F0E8FA0020EDE72DE978
:103A2000F04F91B000251821684602F0BCFB00243D
:103A3000182106A802F0B7FBE348A046C14690F85B
:103A4000C01101297ED1D0F8B8B1D0F8B4A10022BC
:103A5000C2EBC20000EB4001DB4800EB810E9EF898
:103A600050000F90002864D000215FE0DDE90007DE
:103A70006D1C5EF821300E93181847EBE376CDE904
:103A800000060EEB8100EDB243690D93DDE9027C87
:103A90004FEAE376DB1946EB0C06CDE90236836A82
:103AA000DDE9047CDE170C93DB1946EB0C06CDE94F
:103AB0000436C06B0E9BDDE9067C83FB0063360C8D
:103AC00046EA0346F6194CEB2343CDE906630D9B0A
:103AD000DDE9087C83FB00634FEA164646EA0346AD
:103AE000F6194CEB2343CDE908630C9BDDE90A7C16
:103AF00083FB00634FEA164646EA0346F6194CEB91
:103B00002343CDE90A6380FB00634FEA164646EA89
:103B1000034616EB080849EB23490444584501DAEB
:103B2000834602E0504500DD8246491C0F988842DA
:103B30009CDC521C052A8BDBA348AAEB0B01D0F8B6
:103B4000BC0100E056E0814254DBA5FB0823E017EE
:103B50000026109006FB083005FB0900CDE90C207B
:103B600084FB0420110C41EA00410014CDE90E0150
:103B700006A800EBC601D1E90003A0FB05B203FBD8
:103B80000522002100FB012C684600EBC601D1E9AB
:103B90000001A0FB043701FB0471109A00FB021026
:103BA000190C41EA00490CAA4FEA204A92E8890020
:103BB0000F9983EA070880EA010252EA080212D04C
:103BC000421A63EB0703BBEB09006CEB0A0C4FEAEC
:103BD0000C4141EA1041000401F0CAFF7A4901EBAF
:103BE0008601C1F8A401761C032EC1DB76480121B1
:103BF00080F8B01111B00020BDE8F08FF8B5724D1B
:103C00000E460446D5E96D01091A052291FBF2F131
:103C1000301A90FBF1F0C0B28DF80000042801D9F1
:103C20002020F8BDC0EBC00000EB400005EB800198
:103C300091F85000052816D0421C81F850209DF8BC
:103C40000010C1EBC10101EB410105EB810202EB68
:103C50008001CE63236842F8203060684861A06824
:103C600088620020F8BD01F14003181F1022194698
:103C700002F032FA9DF800001022C0EBC00000EB09
:103C8000400005EB8000011D02F026FA9DF80000BF
:103C90001022C0EBC00000EB400005EB800000F1FB
:103CA0001801143002F018FA9DF800001022C0EB41
:103CB000C00000EB400005EB800000F12C01283033
:103CC00002F00AFA0420BAE730B585B0044603A929
:103CD000684611F0FFFA04A811F0C4FB02282BD0AB
:103CE000D4F8E4000399401A374991F8B02112B38F
:103CF00008B3D1F8A421009C80FB0232150445EAE8
:103D0000134222440092D1F8A821019C80FB023288
:103D1000150445EA134222440192D1F8AC11029AEB
:103D200080FB0110030443EA114010440290032178
:103D3000684612F081FB0CE0606B032809D111F09A
:103D4000DBFA30B168460399FFF758FF08B9FFF76F
:103D500066FE05B0002030BD10B54FF4E2711A4880
:103D600002F021FA18481949C0F8B4114FF4AA0119
:103D7000C0F8B8114FF4A021C0F8BC11012180F89F
:103D8000C011002010BD1049C1F8B80100207047D3
:103D90000D49C1F8B401002070470B49C1F8BC01BE
:103DA0000020704758B10849D1F8A4210260D1F829
:103DB000A8214260D1F8AC11816000207047052035
:103DC000704700009C170520F81505200000D8FF5B
:103DD0002420F5E720B12D4981F8C0010020EFE74C
:103DE0002420EDE7294B93F8B1010028E8D0D3E96E
:103DF0006D10401A052190FBF1F00020C0EBC001CE
:103E000001EB410103EB810191F8502022B1002127
:103E100000E0491C8A42FCDC401C0528EEDB002047
:103E2000CEE7082296211A4812F03CB8184812F042
:103E3000DBBB10B5FFF790FF4FF49A7310221549C2
:103E4000154812F0ABF820B9AFF2290012F0EEF8E5
:103E500008B1012010BD0D49012081F8B1010020F9
:103E600010BD10B5094C94F8B101002808D00848DD
:103E700012F0BAFBAFF2550012F0E8FB08B10120D6
:103E800010BD002084F8B10110BD0000F815052018
:103E9000C93C0008FF390008D9390008002803DDB3
:103EA000FE490122C1E920020020704710B5B82167
:103EB000FA4802F078F99FEDFA0AF84880ED030A13
:103EC0009FEDF80A80ED020A9FEDF70A4FF080415E
:103ED00080ED000AB3EE0E0A80ED010A41664FF450
:103EE000FA619FEDF20AC16780ED270A002010BD3C
:103EF00070B5EA4C002594ED001AB4EEC01AF1EE4C
:103F000010FA17D394ED011AB4EEC01AF1EE10FABC
:103F100010DC2069012817D194ED030AB4EEE00A01
:103F2000F1EE10FA06D394ED020AB4EEE00AF1EED7
:103F300010FA09DD606F20B9D848A16D183012F071
:103F40007FF90120C4E91D05D4E91E01884204DB84
:103F5000606F012800D1E565656770BD10B5044646
:103F60002DED028BB0EE408A11F018F9CB490022FA
:103F700020B918EE100ACE4B984202DD0A614A6160
:103F800002E00869002808D1486920444861B0F57A
:103F9000FA7F02DD0120C1E90402BDEC028B10BDF5
:103FA000F0B58DB00D4614460646694611F00DFF7A
:103FB00009AA3146284611F037FD2946304611F04E
:103FC00010FD0021EC460DF1240E00231A46184680
:103FD00001EB41073D180EEB80065CF82550766832
:103FE000401CC5FB06320328F4DB980F40EA820030
:103FF00044F82100491C0329E7DB0DB0F0BDA749B7
:104000000020C1F88C00704710B590ED000AD0ED8B
:10401000010AB8EEC00AB8EEE01AF8EEE00A20EEA7
:10402000000A01EE200AD0ED020AB8EEE01AF8EE1E
:10403000E00A01EE200A0EF02EFADFED9E0A20EED5
:10404000200A10BD00229549012330B1012810D06B
:10405000C1F8983041F88C2F31E081ED280A81EDCC
:10406000290A9FED950A81ED2A0AE1E924328A6046
:104070007047D1ED280A91ED271A70EE600AF0EE34
:10408000E00AF4EEC10AF1EE10FA16D2D1F894006B
:10409000401CC1F89400D1ED290A312830EE800A85
:1040A00081ED290AE4DD0220DFED840AC1F89000E9
:1040B00080EE201A81ED2A1A704741F8902F4A604D
:1040C00070472DE9F04798462DED088B8AB01746CA
:1040D0008A4604469FED788A0025704E0395049524
:1040E0000595D6F8880000287DD011F015F910B19B
:1040F00003A811F0E1F8D6F880004FF0010900287C
:1041000017DDC6F8849011F007F948B103A811F043
:104110000BF98009B0F5C87F02D2D6F8800004E020
:10412000D6F88000001BC6F88000002801DCC6F825
:10413000845011F04DFB002855D000209FED5D9A72
:1041400057F8201000EE101A58F82010401CB8EE56
:10415000C00A032860EE090A00EE101AB8EEC00A81
:1041600020EE800A00EE098AEADB3846FFF74CFFB2
:10417000F0EE408A4FF07E5788EE280AF7EE00AA4C
:1041800010EE100AB84201DDB0EE6A0A10EE100A15
:10419000DFF82C81BFEE00BA404501D9B0EE4B0AE2
:1041A0000DF092FCD6F88C00B0EE40AA98B196EDD6
:1041B000000AB4EEE80AF1EE10FA0CDD96ED010A01
:1041C000B4EEE80AF1EE10FA05D2B0EE4A0AD6F8DB
:1041D0009000FFF737FF684611F02EF92F490C22A7
:1041E000AC31684600E0E2E001F0D3FE18B9D6F841
:1041F000980001286BD129489DE80E00AC3080E87A
:104200000E00009818B9019808B90298F0B36846F2
:10421000FFF7FAFEB0EE408AB5EEC08AF1EE10FA72
:1042200055D0F2EE049A38EE690A20EE000A0EF03C
:1042300032F986ED010A38EE290A20EE000A0EF066
:104240002AF986ED000A9DED020AB8EEC00A60EE7A
:10425000090AB0EE480A80EE808A18EE100AB842C9
:1042600001DDB0EE6A8A18EE100A404501D9B0EEC1
:104270004B8AB0EE480A0DF027FCD6ED270A30EE47
:10428000600A86ED020AB0EE480A00E024E00DF074
:104290001BFCD6ED270A30EE200A14E0BC170520DF
:1042A0000000B4420000B4C2000070427B142E3EF5
:1042B00000401C460000803700000000000048421B
:1042C000000080BF03E086ED030AC6F88C50DFF8DB
:1042D0008481F16D21B32FE01FED0D0A86ED000AF8
:1042E000B3EE0E0A86ED010AD6F89800012808D030
:1042F0001FED140A86ED020A1FED170A86ED030A68
:10430000E5E796ED2A0A96ED271A70EE410A30EE9F
:10431000010AC6ED020A86ED030AC6F89850D6E7F0
:104320000027C6F85C9006EB07104146183010F0E5
:104330006BFF7F1C042FF6DB464906AA0C310F46A3
:104340005046FFF72DFE3946504611F04AFB03A8B0
:1043500010F0EAFF00EE100ADFED3F0A2046B8EE4B
:10436000400A20EE200AFFF7F9FDF0EE4A0AB0EE0F
:10437000680AFFF7BDFDD6E91E01884201DA204434
:10438000B067706F90B9306E20443066B0F57A7FB8
:104390000CDD304930223039A1F11000356601F0D2
:1043A0009BFE2C484146103810F02EFF706F0AB06B
:1043B000BDEC088BBDE8F08770B588B0044604A852
:1043C00010F04AFFD4E93001451A684610F0DAFED1
:1043D000064604AB04F1A00269462846FFF771FEC9
:1043E00011F040FF08B0304670BD04224FF49671C2
:1043F000AFF23B0011F056BDAFF2430012F0F4B83B
:1044000010B5FFF753FD00280DD112480021583890
:10441000C0F88C100121C0F88810AFF23100BDE85F
:10442000104011F003BE10BD10B5AFF2730012F0D2
:10443000DBF8AFF27B00BDE8104012F0D5B80549BB
:1044400001205839C1F88C000020704701485838C5
:10445000406F7047141805200000803CF0B51D46E1
:104460002DED028B99B090ED000AD0ED010A1746B0
:10447000B8EEC00AB8EEE01AF8EEE00A0E4620EEFA
:10448000000A044601EE200AD0ED020AB8EEE01A56
:10449000F8EEE00A01EE200A0DF0FDFFF0EEC00A92
:1044A00010EE900AB0F18D4F7EDDD6ED000AB8EE29
:1044B000E01ADFEDFE0A21EE201A8DED041A96EDCA
:1044C000011AB8EEC11A21EE201A8DED051A96EDEB
:1044D000021AB8EEC11A21EE201A8DED061A96EDD9
:1044E000031AB8EEC11A61EE200ACDED070A9FED5E
:1044F000F08A10AA8DED0C8AD4ED000A0CA904A84C
:10450000F8EEE00A80EE801A8DED0D1AD4ED010A66
:10451000F8EEE00A80EE801A8DED0E1AD4ED020A54
:10452000F8EEE00A80EE801A8DED0F1A11F0D5FA40
:1045300014A904A811F061FA6A4614A910A811F090
:10454000CCFA9DED021ADDED010ADA4921EE010AED
:1045500000EEA00A10EE100A884202DA9FEDD60A99
:1045600011E010EE100AD549884202DA9FEDD40A14
:1045700009E010EE100AD349884202DAB5EE000ACB
:1045800001E09FEDD10A01EE907AB8EEE12ADFED6D
:10459000CF2A8DED088AC2EE221A21EE800A21EE82
:1045A000001A8DED091A00E038E020EEC00A6A46D4
:1045B00004A98DED0A0A8DED0B8A08A811F08DFA79
:1045C0006A4604A9104611F0EBF9684611F0EEFABC
:1045D000DDED000A9FEDBE0A60EE800AFDEEE00A06
:1045E000C5ED000ADDED010A60EE800AFDEEE00A8D
:1045F000C5ED010ADDED020A60EE800AFDEEE00A7B
:10460000C5ED020ADDED030A20EE800ABDEEC00A08
:1046100085ED030A19B0BDEC028BF0BD96E80F00E2
:1046200085E80F00F6E72DE9F0410C462DED068BED
:10463000054690ED000AD0ED010AB8EEC00AB8EECA
:10464000E01AF8EEE00A20EE000A01EE200AD0EDB2
:10465000020AB8EEE01AF8EEE00A01EE200A0DF0C8
:104660001AFF10EE100A4FF07E5800264FF08047D8
:1046700040453FDDD5ED020AB7EE009AF8EEE00ABC
:10468000C0EE808A39EE680A9FED89AAB5EEC00AAD
:10469000F1EE10FA01DCB0EE4A0AF6EE009A20EED6
:1046A000290A0DF0F8FEB0EE408A38EE890AB5EE20
:1046B000C00AF1EE10FA01DCB0EE4A0A20EE290A37
:1046C0000DF0E9FEF0EE408A95ED000AB8EEC00A62
:1046D00060EE000A95ED010AB8EEC01AB8EEC00A05
:1046E00041EE000AB0EE600A0DF0D5FE10EE100AA1
:1046F000404503DCC4E90076A66025E0DFED740ADE
:1047000028EEA01ABDEEC11A84ED001A95ED011A2B
:10471000F8EEC11A81EE801A21EE081A61EE200A25
:10472000FDEEE00AC4ED010AD5ED000AF8EEE00A5C
:1047300080EE801A21EE080ADFED660A20EE200ADC
:10474000BDEEC00A84ED020AE660BDEC068BBDE852
:10475000F08170B590ED000AD0ED010A0546B8EE83
:10476000C00AB8EEE01AF8EEE00A0C4620EE000AA5
:1047700001EE200AD0ED020AB8EEE01AF8EEE00AE7
:1047800001EE200AD0ED030AB8EEE01AF8EEE00AD6
:1047900001EE200AB5EEC00AF1EE10FA07D84FF08C
:1047A0008040206000206060A060C86070BD0DF097
:1047B00072FEB7EE001AC1EE000A9FED450A20EE28
:1047C000800AD5ED000AF8EEE00A60EE800AFDEE00
:1047D000E00AC4ED000AD5ED010AF8EEE00A60EE49
:1047E000800AFDEEE00AC4ED010AD5ED020AF8EEFA
:1047F000E00A60EE800AFDEEE00AC4ED020AD5EDA3
:10480000030AF8EEE00A20EE800ABDEEC00A84ED4D
:10481000030A70BD70B5044690F8300088B04006B9
:104820007ED5A069002801DB014600E041424FF43B
:1048300080320026284D91420BDAE169002900DA26
:104840004942914205DA216A002900DA494291423F
:1048500067DB002800DA40424FF4C80188420BDCD5
:10486000E069002800DA4042884205DC206A00281E
:1048700000DA4042884201DD032000E00220A86304
:10488000696BA06A814242D0686394ED0A0A9FED89
:10489000131AF8EEC00A80EE810ADFED110A20EE4D
:1048A000200A10EE100A15F041F91BE000008030DC
:1048B0000000000017B75139A69BC43B0AD7233C20
:1048C0008FC2753DCDCC4C3ECDCCCC3E0014CD47F7
:1048D0000000804E000080CE74180520002474492A
:1048E0000000004E9FEDFA1B53EC112B15F0A4F8BD
:1048F0009FEDF91B53EC112B15F09EF89FEDF81B63
:1049000053EC112B15F050F815F070F8286304964D
:10491000296BA06911F01DF80590296BE06901E091
:1049200022E023E011F015F80690296B206A11F0BF
:1049300010F807906A4604A9EB4811F075F8009842
:10494000E94A80010090019869468001019002982F
:1049500080010290039880010390104611F00EF838
:10496000E1490846FFF7F5FE08B070BDAE63FBE70E
:1049700070B504462DED048B8EB0D0F820014106B1
:1049800076D5D94DD4F81011D84B2A68891AD4F8A5
:104990002C215A438A4201DA032100E00221A96353
:1049A000800504F5887602D5CF493046B5E0002170
:1049B00007A810F08FFCCC490C223C3107A801F06D
:1049C000E8FA20B9D4F82801A96D88427ED0208861
:1049D0006B4680B207AA616A10F05AFA9DED000A90
:1049E000DDED010AB8EEC00AB8EEE01AF8EEE00A12
:1049F00020EE000A01EE200ADDED020AB8EEE01A10
:104A0000F8EEE00A01EE200A0DF045FDB0EE408A16
:104A10009FEDB70A68EE000A9FEDB61A80EE810A94
:104A2000DFEDB50A20EE200AD4ED4A0AF8EEE00ADE
:104A300060EE800A1FED571A80EE810AF6EE000A3A
:104A400020EE209AB0EE490A0DF056FAF0EE408AB8
:104A5000B0EE490A0DF022FC18EE100A4FF080412A
:104A6000884206DA0020C5E912102865686532E040
:104A700055E05FED690A68EEA00AFDEEE00AC5EDBB
:104A8000120A5FED6C0A20EE200ADDED000AF8EE56
:104A9000E00A60EE200A80EE881AFDEEC10AC5ED3C
:104AA000130ADDED010AF8EEE00A60EE200A80EE5E
:104AB000881AFDEEC10AC5ED140ADDED020AF8EE12
:104AC000E00A20EE200AC0EE080A00E00DE0BDEE8C
:104AD000E00A85ED150A07AB93E8070005F13C03F2
:104AE00083E80700D4F82801A8657F4903AA483164
:104AF000304610F099FF7C480AAA5C3003A90446AE
:104B000010F092FF2146304610F06BFF03AA0AA96D
:104B1000754810F089FF744903A8FFF71AFE0EB01C
:104B2000BDEC048B70BD1FB5044669466E4810F09D
:104B300058FF6D4A69462032204610F075FF6A49D9
:104B40001DCC103181E81D001FBD2DE9F047044642
:104B5000654E90F8740006F15C0A06F12008012504
:104B600000F05001103692B004F5887904F15C072A
:104B7000402906D094F8200100F0500040280DD0C4
:104B80001DE031463846FFF74EFDB4F82001C00560
:104B90000CD55146484610F024FF07E051464846E0
:104BA00010F01FFFB4F87400C00508D569464E48E0
:104BB00010F017FF42466946304610F035FFB4F852
:104BC0002001C005204602D5FFF7D2FE01E0FFF725
:104BD00021FE32464449404610F026FF94F8740006
:104BE00040066FD5208EB4F820110843C0056DD55E
:104BF0000FAA3946304611F0C7F8D4E9172080FBD8
:104C00000001C2FB0201626E374FC2FB02014FF08E
:104C10008042801A71F1020014DB04A810F0CCFB72
:104C2000DDE9042080FB0001C2FB0201069AC2FB01
:104C300002014FF08042801A71F1020002DB042071
:104C4000B8630BE0B86B042808D041F28832022820
:104C500006D0032804D0012852D009E0002507E03F
:104C6000E16E91FBF2F5012D00DA0125032800D059
:104C7000AD0022480024454310980794800229463D
:104C800010F067FE08900F9829464042800210F00D
:104C900060FECDE909040BAA314607A810F0C4FE56
:104CA00032460BA9104610F069FE31460846FFF760
:104CB00050FD69460C4810F094FE42466946304665
:104CC00010F0B2FE12B00020BDE8F08720E0000036
:104CD000112D4454FB2109400000000000007040E9
:104CE00000000000008066407418052071981C00C8
:104CF000DB0F49400000344300008037A69BC4000E
:104D0000E06E90FBF2F0012800DA01204500AFE7E9
:104D1000334619463846E26EFFF7A0FBC9E770B587
:104D20000446008EC105D4F8200107D4B4F87410ED
:104D3000C90503D4C10501D4002070BDC0F3012012
:104D4000032807D02046FFF700FF2348A16B11F08E
:104D500039FCF1E704F588711F482EC980E82E0060
:104D6000F3E71E4811F040BC1B4810B56C21103809
:104D700001F019FA18484FF08041103801610160C4
:104D80000162C163C165002010BD184810B508223A
:104D900013A1006801F0FDF808B1322010BD132204
:104DA000BDE81040C8210D4811F07CB810B5FFF7E0
:104DB000DBFF002805D1AFF22D00BDE8104011F057
:104DC00035B910BD10B5054811F00EFCAFF2450025
:104DD000BDE8104011F03ABC841805201F4D0008B2
:104DE000654D504C20352E3100000000700202202D
:104DF00000209FEDFE0AFE4ADFEDFE0A02EB800175
:104E0000401C81ED080AC0B2C1ED0B0A0328F5D39E
:104E10007047F74A002002EB8001D1ED080A91EDBE
:104E20002D0AF4EEC00AF1EE10FA01D281ED080A63
:104E3000D1ED0B0AF4EEC00AF1EE10FA01DD81EDBE
:104E40000B0A401CC0B20328E5D370473EB50B46A1
:104E5000B0F8481009040091B0F84A10009A09040B
:104E60000191B0F84C1009040291E1494C6E121BFB
:104E70000092019A8C6E121B0192029AC96E511A0D
:104E80000291816EB0F844006A4680B210F000F8DA
:104E90003EBDF0B5D64F00242546D7F894208DB0FE
:104EA0002E46012A01D1C7F8946009A9FFF7CEFF69
:104EB00005A810F0D1F9059909986022A0EBA1305E
:104EC000099006990A98A0EBA1300A9007990B98CF
:104ED000A0EBA130C8490B90081F01F0FDF80DF1BF
:104EE000240CC5489CE80E00143080E80E0068468B
:104EF00010F062FAC04960226C31081F01F0ECF832
:104F0000BD489DE80E00803080E80E000021092297
:104F1000D7F82C04401CC7F82C0401EB410007EB28
:104F20008000DDF800C0D0F84C33491C93FBF2F34D
:104F30001C44D0F85033092993FBF2F31D44D0F8F8
:104F4000543393FBF2F31E44D0F8B83393FBF2F3DF
:104F500063440093D0F8BC33DDF804C093FBF2F354
:104F600063440193D0F8C003029B90FBF2F0184415
:104F70000290CDDB002C00DA6442002D00DA6D4295
:104F8000002E00DA76420098002800DA40420090B5
:104F90000198002800DA404201900298002800DAC7
:104FA00040420290009900208C4200DA01200199D1
:104FB0008D4200DA401C02998E4200DA401CD7F87C
:104FC0002C14092900DB401C04280DD197F8240477
:104FD00002280BD901468648D7F82824643011F0FE
:104FE000A7F8012011F09EF80DB0F0BD11F088F87F
:104FF000FAE72DE9F0417E4D00272DED048B0646A2
:105000003C4685F824749FED7D9B9FED7E8BC5F813
:10501000287405EB8400D5ED0F0A90ED330AB4EE49
:10502000E00AF1EE10FA1EDB95ED140B53EC182B91
:1050300051EC100B14F071FD41EC100B0DF004F865
:1050400053EC192B51EC100B14F0DEFC0BD295F83D
:1050500024040121401C85F82404D5F82804A1402B
:105060000843C5F82804641CE4B2032CD1D395F896
:105070002404B8B3002406EBC40090ED000B51ECFF
:10508000100B14F0B3FC05EB8401641CE4B2486619
:10509000032CF0D3C5F82C74A868042802DA95F81C
:1050A0002404A86095F8240403281BD15749E86814
:1050B000884217DC95ED140B53EC182B51EC100BB8
:1050C00014F02BFD41EC100B0CF0BEFF53EC192B30
:1050D00051EC100B14F098FC04D2A868032801D1FD
:1050E0000420A8604A49286988421DDA4949E868CD
:1050F000884219DC95ED140B53EC182B51EC100B76
:1051000014F00BFD41EC100B0CF09EFF9FED421BC9
:1051100051EC100B53EC112B14F076FC04D2A86860
:10512000042801D10520A860BDEC048BBDE8F08106
:105130002DE9F0412E4C0746D4F8A404012802D0F2
:1051400000252846F2E73649F7EE000AA1F1E8000B
:10515000B7EE000A0646FBF7B2FA254A304650324F
:1051600002F5AC71FBF74DFD0500EAD06068401C0C
:10517000606094ED140B51EC100B14F037FCB96E19
:1051800010F0E7FB00EE100ADFED260AB8EEC00AC9
:1051900020EE200A10EE100A14F0C8FCC4E9140135
:1051A00094ED6A0B51EC100B14F020FCA06594ED0B
:1051B0006C0B51EC100B14F019FCE06594ED6E0BC8
:1051C00051EC100B14F012FC206694ED680B9FED6F
:1051D000161B51EC100B53EC112B14F084FCB0D2C5
:1051E00031469FED130AF0EE400A23E000401CC652
:1051F000E018052000401C46301C05209A9999991A
:105200009999B93F000000000000F03FAE47E13D32
:1052100000007A43BC74933C9CC420B07268913FF8
:10522000A81A052000008037000000000070A74089
:10523000CDCCCC3E0846FBF742FA82E7D0ED030A1C
:1052400090ED040A00210122F4EEC00A0223F1EEDF
:1052500010FA12DD90ED051AF4EEC10AF1EE10FA23
:105260000BDDB4EEC10A0164F1EE10FA02DBC0E915
:1052700011237047C0E911327047B4EEE00AF1EE35
:1052800010FA12DD90ED051AB4EEC10AF1EE10FA33
:105290000BDDF4EEC10A0264F1EE10FA02DBC0E9A4
:1052A00011137047C0E911317047F4EEC00A03646E
:1052B000F1EE10FA02DBC0E911127047C0E91121CA
:1052C0007047002319469FEDFE0AC36400EB81027C
:1052D000491C82ED000A82ED090A0329F6DB01214F
:1052E000C0E91D13704730B504461420A0650A209C
:1052F0002066002584F870502046FFF7E2FF6565C0
:1053000030BD70B52DED048B86B06946FFF79EFD6C
:105310009FEDEC8B1FED3D9A00246E4603AD56F8D1
:10532000240000EE100A05EB8400B8EEC00A20EE5F
:10533000090A80ED000A20EE000A10EE100A14F0AF
:10534000F5FB53EC182B14F01AFB41EC180B641C02
:10535000032CE4DBB0EE480AF0EE680A0DF068F8C2
:10536000DA4EB0EE408AF0EE608A002455F8240050
:1053700014F0DCFB53EC182B14F016FB14F0F8FAC5
:1053800000EE100A06EB840000F58060641CD0ED8E
:105390000C0A032C30EE200A80ED0C0AE6DBD6F86E
:1053A0008404401CC6F884040120C6F8AC0406B08E
:1053B000BDEC048B70BD70B505462DED028B86B03B
:1053C00004AA03A9684610F0CBF99FEDBE8B002418
:1053D0006E4606EB840090ED000A20EE000A10EE07
:1053E000100A14F0A3FB53EC182B14F0C8FA41EC8C
:1053F000180B641C032CECDBB0EE480AF0EE680AD4
:105400000DF016F8B0EE408AF0EE608A002456F8EF
:10541000240014F08BFB53EC182B14F0C5FA14F095
:10542000A7FA00EE100A05EB8400641CD0ED000A18
:10543000032C30EE200A80ED000AE8DB686D401C8A
:1054400068650120E86706B0BDEC028B70BDF0B561
:1054500004460021F7EE001A9FED992A94ED140AF4
:1054600004EB8100B8EEC01AD0ED000A80EE810A8C
:10547000B5EEC00AF1EE10FA02DBB0EE401A01E020
:10548000B1EE401AD0ED060AF5EEC00AF1EE10FAC0
:1054900001DAF1EE600A71EE600AC0ED0C0A80EDEF
:1054A000060A94ED0F1AD0ED092A71EE610A00EE9A
:1054B000A20AC0EE010AC0ED090AF5EEC00AF1EE3B
:1054C00010FA01DAF1EE600AC0ED030A491C80ED22
:1054D000002A0329C2DB2046FFF7B0FEE06CB0F5DE
:1054E0007A7F01DA401CE06494F870700021052690
:1054F000042303250122206C062F09D2DFE807F0E0
:105500000309102B52376267A267E16484F87020A8
:10551000F0BDE06F0128FBD1022084F870000DE09F
:1055200004EB8000D4ED190A90ED030AB4EEE00A12
:10553000F1EE10FA04DB84F8703031E0A167F0BDC1
:10554000D4ED1A0AB4EEE00AF1EE10FA22D934E0F2
:105550006267A267F0BD04EB8000D4ED190A90EDFC
:10556000030AB4EEE00AF1EE10FAE4DAF0BD04EB5F
:105570008000D4ED1A0A90ED030AB4EEE00AF1EED1
:1055800010FA07D9006B524EB04206D9216EE06C7A
:105590008842EBDB84F87050DAE784F87030E1641D
:1055A0006167CBE704EB8000D4ED1B0A90ED030AA2
:1055B000B4EEE00AF1EE10FAD8D884F87060E16435
:1055C000C6E710B5044600EE104AB8EEC00ADFED9B
:1055D000410A20EE200A9FED401AC0EE010AB6EE05
:1055E000000A20EE800A10EE100A14F09FFA41EC37
:1055F000100B0CF029FC9FED391B51EC100B53ECF8
:10560000112B14F019FA14F0F1F901462F48C0E9F2
:10561000204110BD2DE9F04F00242DED028B91B0FB
:105620000546049405940694C06E44F62061274E06
:10563000884206DBD6F88010884210D0FFF7C1FF01
:105640000DE0D6F848231044C6F8480388427DDBB5
:10565000E96E814201D0FFF7B4FFC6F84843286BDA
:10566000C6F8B0042846FFF74CFE06F5906003C864
:10567000814204DB1B48FFF7EAFEC6F88444D6F8F3
:10568000A804012802D12846FFF703FCD6F8A40499
:1056900001285BD104A80FF0ADFE9DED040ADDEDFD
:1056A000050A20EE000A00EEA00ADDED060A00EE73
:1056B000A00A0CF0F0FE86ED030ADFED0B0A15E000
:1056C000000000000000000000000000E0180520BD
:1056D000CDCC4CBD368D274000247449000000001D
:1056E0000000D041101D05200000804620EE200A59
:1056F000C149A146ADF82040BDEEC00A099110EEA7
:10570000100AADF81C00ADF81E4007A8FDF7BEFA60
:1057100068460FF0B1FE316F009810F01AF9044698
:10572000716F019810F015F90444B16F029810F0F0
:1057300010F90444F16F039810F00BF904EB000822
:105740009DE80F0000240DF1340A00E0A2E006F10C
:1057500070079FEDAA8A87E80F000DF1280B05EB73
:105760004407A96E37F8480F000410F0F2F800EE75
:10577000100A4AF8240006EB8400B8EEC00A20EEB6
:10578000080A80ED050A388801044BF82410641CCF
:10579000E4B2032CE3D398480AA9E8380446FBF79F
:1057A0005EF83168D6F82803884273DB95ED390A34
:1057B000D6ED360AB8EEC00AF5EEC00A20EE080AA9
:1057C000F1EE10FA05D070EE600AF0EEE00AC6EDD8
:1057D000370A86ED360AB068062818D2DFE800F0EE
:1057E000030303030D249FED860AC82086ED0E0AED
:1057F000B7EE000A86ED0F0A08E09FED820A86EDFB
:105800000E0A9FED810A642086ED0F0A3064288E0F
:10581000C005099812D4FDF748F914F091F900EE8B
:10582000100A5FED530A11E09FED780A86ED0E0A2B
:105830009FED770A322086ED0F0AE7E7FDF78FF834
:1058400014F07EF900EE100ADFED720A982180EE66
:10585000201A86ED041A099800F0A5FCD6F88410E9
:10586000414543DA96ED040AB5EEC00AF1EE10FAAE
:105870003CDDD6ED0E0AB4EEE00AF1EE10FA35D2B8
:10588000316C7068884206DA2846FFF751FC002820
:1058900059D00CE056E06049D6F8B000884206DBEB
:1058A0002846FFF745FC00284DD0C6F8049000209C
:1058B00006EB8001401C91ED050AC0B281ED2D0A76
:1058C0000328F5D3FFF7A5FA002006EB8001401C62
:1058D00091ED080AD1ED0B0AC0B2032830EE600A40
:1058E00081ED330AF1D34D48FFF783FB002006EB2F
:1058F0008001401C91ED260AD1ED050AC0B20328B3
:1059000030EE600AB0EEC00A81ED290AEFD396EDC1
:10591000290AD6ED2A0A002030EE200AD6ED2B0AFD
:1059200030EE200A86ED2C0A06EB8001401C91ED3A
:10593000050AC0B281ED260A0328F5D3E8212046E6
:1059400000F031FC002011B0BDEC028BBDE8F08FFF
:1059500010B54FF49761324800F025FC304C0A2016
:10596000206040072067FFF743FA04F58660FFF7E1
:10597000BAFC2068C4F880049FED2A0A04F5806010
:105980001E2180ED1B0A9FED280AC4F88C1480EDBF
:10599000260A9FED260A80ED250A9FED250A80ED57
:1059A000270A1920FDF722FC002010BD012240F239
:1059B0005231AFF29F3010F075BAAFF2A73010F04D
:1059C00013BE10B5FFF7C4FF002805D1AFF22300C6
:1059D000BDE8104010F02ABB10BD10B5AFF2CB30BF
:1059E00010F002FEAFF23B00BDE8104010F02EBEFA
:1059F0000B48806870470000901B0520000080372E
:105A00000080BB44000096439A99993F0000704281
:105A10003333B33F0050C347CDCC4C3D881A0520EB
:105A2000E018052000000042CDCCCC3ECDCC4C3F50
:105A30003333333F704753EA020C00F069802DE99D
:105A4000F04B4FF00006002B1FBFB3FA83F503FAAB
:105A500005F424FA05F65E4012BF1643B2FA82F549
:105A600002FA05F4C5F120051EBF22FA05FC44EA3E
:105A70000C04203556EA044C4FEA144418BF641C49
:105A80004FF000084FF00009904271EB030C39D33E
:105A9000002919BFB1FA81F701FA07F6B0FA80F7C9
:105AA00000FA07F6C7F120071EBF20FA07FC46EAF6
:105AB0000C062037B6FBF4FCA7EB0507103F07F0F8
:105AC0001F0BCBF120060CFA0BFB2CFA06F644BF99
:105AD000B3460026202FA4BF5E464FF0000B5BEAC2
