:020000040800F2
:10000000982E0220A9020008916C0008A53400086F
:10001000D50200080907000829AB0008000000000D
:100020000000000000000000000000003DA30008E8
:10003000D109000800000000A1060008F5A300088F
:10004000E3020008E3020008E3020008E3020008FC
:10005000E3020008E3020008E3020008E3020008EC
:10006000E3020008E3020008E3020008E3020008DC
:10007000E3020008E3020008E3020008E3020008CC
:10008000E3020008E3020008E3020008E3020008BC
:10009000E3020008E3020008E3020008E3020008AC
:1000A000E3020008E3020008E3020008E30200089C
:1000B000E3020008E3020008E3020008E30200088C
:1000C000E3020008E3020008E3020008E30200087C
:1000D000E3020008E302000859AA0008E30200084E
:1000E000E3020008E3020008E3020008E30200085C
:1000F000E3020008E3020008E3020008E30200084C
:10010000E3020008E3020008E3020008E30200083B
:10011000E3020008E3020008E3020008E30200082B
:10012000E3020008E3020008E3020008E30200081B
:10013000E3020008E3020008E3020008E30200080B
:10014000E3020008E3020008E3020008E3020008FB
:10015000E3020008E3020008E3020008E3020008EB
:10016000E3020008E3020008E3020008E3020008DB
:10017000E3020008E3020008E302000800000000B8
:10018000E3020008E302000879A40008E302000883
:10019000E3020008E3020008E3020008E3020008AB
:1001A000E3020008E3020008E3020008E30200089B
:1001B000E3020008E3020008E3020008E30200088B
:1001C000E3020008E302000800000000E302000868
:1001D000E3020008E3020008E3020008E30200086B
:1001E000E3020008E3020008E3020008E30200085B
:1001F000E3020008E302000800F002F800F045F80E
:100200000AA090E8000C82448344AAF10107DA4571
:1002100001D100F03AF8AFF2090EBAE80F0013F07E
:10022000010F18BFFB1A43F00103184768F60000DE
:1002300088F60000103A24BF78C878C1FAD852076F
:1002400024BF30C830C144BF04680C607047000050
:100250000023002400250026103A28BF78C1FBD8CF
:10026000520728BF30C148BF0B6070471FB50AF066
:100270005FFE00F067F90400002000210AF042FE52
:10028000401C60601FBD10B510BD00F036F911466E
:10029000FFF7ECFF0AF0E0FC00F066F903B4FFF7AB
:1002A000F2FF03BC0AF042FC11488047DFF844002B
:1002B000016841F470010160BFF34F8FDFF838002F
:1002C000016821F040410160BFF36F8F0B48004788
:1002D000FEE7FEE7FEE7FEE7FEE7FEE7FEE7FEE7F6
:1002E000FEE7FEE706480749074A084B704700004B
:1002F00015A4000888ED00E034EF00E0F9010008E3
:1003000098280220982E0220982A0220982A02205B
:1003100072B6704762B67047EFF3108072B67047DE
:1003200080F31088704730BF704720BF7047B0FA25
:1003300080F0704790FAA0F0B0FA80F0704790FA21
:10034000A0F07047704770B5064600F03FF80468AB
:10035000054630460A22002100F03CF82C6070BDB2
:1003600010B5203AC0F00B80B1E81850203AA0E850
:100370001850B1E81850A0E81850BFF4F5AF5FEA84
:10038000027C24BFB1E81850A0E8185044BF18C937
:1003900018C0BDE810405FEA827C24BF51F8043BDE
:1003A00040F8043B08BF7047D20728BF31F8023B32
:1003B00048BF11F8012B28BF20F8023B48BF00F8C6
:1003C000012B70477047704770477047004870476F
:1003D000342802202DE9F04791460F468046044616
:1003E000002614F8015B2DB100F030F80068405D84
:1003F000C007F6D12B2D02D02D2D18D0641E4A46F1
:100400003946204600F02AF827B13968A14201D1C7
:10041000C7F800804FF0020471050BD54042002858
:1004200003DDFFF7D3FF0460A007BDE8F08746F4C3
:100430008066E4E70028F8DAFFF7C8FF04606FF091
:100440000040F2E7004870473428022010B500F061
:1004500079F8001D10BD00BFADAA00002DE9F05FC6
:10046000824615468B4600270AF10104B9460078FA
:10047000302801D09DB113E014F8010B0127782832
:1004800003D0582801D045B10AE00DB1102D07D195
:10049000002714F8010B102502E0082500E00A25CA
:1004A0000026B0460EE005FB080005FB06F101271B
:1004B0001FFA80F801EB1046B6F5803F00D3B9462D
:1004C00014F8010B294600F041F80028EBDABBF1E3
:1004D000000F05D00FB1641E00E05446CBF8004079
:1004E000B9F1000F06D0FFF771FF02210160C81EAD
:1004F000BDE8F09F48EA0640FAE77546FFF7A2FF1D
:10050000AE4605006946534620F00700854618B000
:1005100020B5FFF7E7FEBDE820404FF000064FF0A2
:1005200000074FF000084FF0000B21F00701AC4628
:10053000ACE8C009ACE8C009ACE8C009ACE8C00947
:100540008D46704700487047542802203A2800D250
:10055000303820F02002412A01D3A2F1370088422E
:1005600001D34FF0FF30704710B50446AFF3008061
:100570002046BDE81040FFF791BE00004FF0013C5F
:1005800050F8042B51F8043B9A4215D1A2EB0C030E
:10059000934313EACC130BD150F8042B51F8043BCE
:1005A0009A4209D1A2EB0C03934313EACC13E7D090
:1005B0004FF00000704700BFD01A01BAB1FA81F1C4
:1005C00001F0180122FA01F0CB40C1F12001DBB2A9
:1005D000C0B2C01A2CFA01F3D11A914311EAC31127
:1005E000E6D17047EFF3098141B1F1EE101A40F8FE
:1005F000041D20ED200A3E490A6810607047B0ECE7
:10060000200A02C8E1EE101A3A490A6810607047E1
:1006100072B64EF62250CEF2000040F2FF01C0F258
:10062000000101704FF0000080F3098807F03AFEE6
:1006300040F22410C2F20200016881F3088840F2FF
:10064000AA00C2F2020040F2AB01C2F202010A7833
:10065000027040F21C15C2F2020540F22011C2F2F3
:1006600002010A682A60106880F30988EFF3148099
:1006700040F0020080F31488BFF36F8FBDE8F00FE5
:100680000FBCBDE8005006BC62B608471A484FF0E0
:1006900080510160704718484FF0805101607047E9
:1006A00072B6EFF3098020E9F00F40F21C15C2F298
:1006B00002052E683060744607F0F4FD40F2AA008F
:1006C000C2F2020040F2AB01C2F202010A780270EB
:1006D00040F22011C2F202010A682A6044F0F40ECE
:1006E0001068B0E8F00F80F3098862B67047000028
:1006F0001C0102202001022004ED00E010B502F0F0
:1007000091F80446204610BD00BFFEE710B500F08A
:10071000FBF800F003F800F0F3F810BD70B5002608
:1007200000201849088018490880184908601849AD
:1007300008601849086018490860184908600024D2
:1007400000BFFFF7E9FD064600BF00250BE00020D3
:100750001049086000F074F800F08CF80D4800684B
:100760000444681C85B2002DF1D00C4804600020C0
:10077000084908600849086000BF3046FFF7D0FD0F
:1007800000BF70BD480002204A0002204C00022039
:1007900050000220580002205C0002205400022079
:1007A00001460846044A1268904203D9024A126878
:1007B000801A00E0002070475400022070B5002528
:1007C00000BFFFF7A9FD054600BF0648046800BF4B
:1007D0002846FFF7A5FD00BF2046FFF7E1FF0646CC
:1007E000304670BD5800022070B50025FFF7E6FFC7
:1007F000044600BFFFF790FD054600BF00200449F6
:10080000086000BF2846FFF78BFD00BF204670BD83
:100810005800022070B5002500BFFFF77DFD05469A
:1008200000BF0648046800BF2846FFF779FD00BFF7
:100830002046FFF7B5FF0646304670BD5C0002203B
:1008400010B509480088401C0749088007480088FF
:1008500018B900F083F80649086004480088401C75
:100860000249088010BD0000480002204A00022012
:100870004C00022010B50F480088401E0D4908802A
:1008800008460088A0B900F069F80B4908600846DE
:1008900000680A490968441A09480068A04201D260
:1008A0000748046007480068A04201D20548046078
:1008B00010BD00004A000220500002204C0002201F
:1008C000580002205C00022010B5002400BF00BFC9
:1008D000FFF722FD044600BFFFF7B2FF00BF102163
:1008E000064806F0A2F900BFFFF7C4FF00BF20468C
:1008F000FFF716FD00BF00BF10BD000088120220E8
:1009000010B5FFF7E1FF10BD10B5002002490860E7
:1009100000F00AF810BD0000440002200149086000
:10092000704700004400022010B5FFF7E7FE0446C0
:100930000848006840F080700649086000200649B9
:1009400048600846006840F0010008602046FFF754
:10095000E5FF10BDFCED00E0001000E00149486833
:1009600070470000001000E010B500BF00BF00BFDE
:1009700000BF00BFBFF34F8F00BF00BF00BF00BF6D
:1009800000BF00BFBFF36F8F00BF00BF00BF0020DC
:100990000D4908600D48006840F400300B490860BC
:1009A00000BF00BF00BFBFF34F8F00BF00BF00BF3D
:1009B00000BF00BF00BFBFF36F8F00BF00BF00BF0D
:1009C00000BF09F0F3FB10BD50EF00E014ED00E0B4
:1009D0007047000070B504461D460023B5F5804FF2
:1009E00013D154F822300C480340D1E9000640EA04
:1009F00006108E6840EA06208E8940EA06408E691D
:100A00003043034344F8223003E06FF0704044F871
:100A10002200002070BD00000000F0CF10B502469B
:100A20000023086852F820301B480340D1E9010434
:100A30002043CC6820430C6920434C6920438C69D7
:100A40002043CC6920430C6A20434C6A20438C6AC3
:100A50002043CC6A20430C6B20438C6B20434C6BAF
:100A6000204303438868082801D143F04003086805
:100A700042F82030086BB0F5801F05D1086818B126
:100A800010680C6B20431060086818B110684C6B3C
:100A900020431060002010BD8004C0FF30B5034625
:100AA00014460022601C53F8202002F04042D1E995
:100AB000000540EA05108D6840EA05208D8940EA6E
:100AC0000545088A401E45EA0055087D801E45EA16
:100AD00000608D6928430243601C43F82020186899
:100AE00000F4801038B1586820F47002088A401E63
:100AF00042EA00525A60002030BD30B50246002361
:100B000000240868012816D013686FF30E03D1E99A
:100B100001052843CD6828430D6928434D692843C2
:100B20008D692843CD6928430D6A28434D6A2843BF
:100B30000343136019E0136823F4F843D1E9070570
:100B400028434D6A2843034354686FF30E04D1E9E8
:100B500001052843CD6828430D6928434D69284382
:100B60008D692843044313605460002030BD024661
:100B7000506940EA4100506100207047F8B50646D0
:100B80000C461546002000900027D4E900010843D8
:100B9000A168491E40EA4110E16840EA4120009006
:100BA0000098306100F0C4FD074609E0681C38B1C8
:100BB00025B100F0BDFDC01BA84201D90320F8BD3E
:100BC000B06900F020000028F0D100BFF7E7000076
:100BD00070B50346154600220024012D1FD09A68E7
:100BE00002F070420868401E4E68761E40EA061603
:100BF0008868401E46EA0026C868401E46EA00365D
:100C0000088A401E46EA0046888A401E46EA005688
:100C1000087E401E46EA006002439A6022E09A681D
:100C200011480240C868401E0603888A401E46EAF2
:100C300000500243DC6804F070440868401E4E68AF
:100C4000761E40EA06168868401E46EA0026088A94
:100C5000401E46EA0046087E401E46EA0060044305
:100C60009A60DC60002070BDFF0F0FFF70B500259B
:100C70000026002421E01348005D2C2802D1681CC6
:100C8000C5B20026012D02D10EB9012613E0092DAF
:100C900011D186B90B49601C085C2C2803D10020B7
:100CA0000949088006E0074A611C5018FFF74BFB12
:100CB000054908800126601CC4B2044800788442BB
:100CC000D9DB70BD2A0B0220400002201300022055
:100CD00030B500200022002150E02B4B5B5C2C2B18
:100CE00002D1431CD8B20022012802D10AB9012244
:100CF00042E002280AD14AB9234C4B1CE35C303B4A
:100D0000224C23704B1CD9B2012235E0032815D0A8
:100D1000042813D0052811D006280FD007280DD09D
:100D200008280BD0092809D00A2807D00B2805D09D
:100D30000C2803D00D2801D00E281DD1E2B9124C89
:100D40004B1CE35C2C2B04D12C24C31E104DEC5403
:100D50000FE00D4C8B1CE35C303B25464C1C2C5D9E
:100D6000303C04EB840403EB4403DCB2C31E084DA7
:100D7000EC548B1CD9B201224B1CD9B2054B1B7809
:100D80009942AADB30BD00002A0B02203700022066
:100D9000BC11022013000220F0B500210023002422
:100DA00000220020FCE0814D2D5C2C2D02D14D1C39
:100DB000E9B20024012902D10CB90124EEE0022994
:100DC00009D144B9794E451C755D313DEAB2451CE7
:100DD000E8B20124E2E0032912D18CB9734E851CDC
:100DE000755D303D3746461CBE5D303E06EB8606DF
:100DF00005EB46056E4E3570851CE8B20124CDE04A
:100E0000042905D0082903D00C2901D010292CD1A0
:100E10005CBB0D46CE1701EB9676C6F38703634E97
:100E2000451C755D2C2D03D0451C755D2A2D07D101
:100E3000FF265D1E05EB82055E4F27F8356012E048
:100E40005A4E851C755D303D3746461CBE5D303EB2
:100E500006EB860605EB4605AEB25D1E05EB820588
:100E6000544F27F83560012498E0052905D0092959
:100E700003D00D2901D0112928D13CBB4B4E451C74
:100E8000755D2C2D03D0451C755D2A2D08D1FF26DC
:100E90005D1E05EB8205474F07EBC5056E8013E02D
:100EA000424E851C755D303D3746461CBE5D303E6A
:100EB00006EB860605EB4605AEB25D1E05EB820528
:100EC0003C4F07EBC5056E80012467E0062905D07D
:100ED0000A2903D00E2901D012292FD174BB334E19
:100EE000451C755D2C2D03D0451C755D2A2D08D140
:100EF000FF265D1E05EB82052E4F07EBC505AE8074
:100F00001AE02A4E451C755D303D642615FB06F639
:100F1000264F851C7D5D303D05EB850506EB4506BE
:100F2000C51C7D5D303D3544AEB25D1E05EB8205CE
:100F3000204F07EBC505AE8001242FE0072905D01F
:100F40000B2903D00F2901D0132927D134BB174E09
:100F5000451C755D2C2D03D0451C755D2A2D08D1CF
:100F6000FF265D1E05EB8205124F07EBC505EE80DF
:100F700013E00E4E851C755D303D3746461CBE5D48
:100F8000303E06EB860605EB4605AEB25D1E05EB70
:100F90008205084F07EBC505EE800124451CE8B229
:100FA000054D2D78A842FFF6FEAEF0BD2A0B0220BB
:100FB00035000220C81102201300022030B50021A4
:100FC00000220020B7E1DF4B1B5C2C2B02D14B1C15
:100FD000D9B2002201292DD162BBDA4C831CE35C1B
:100FE000303B2546441C2C5D303C04EB840403EB71
:100FF00044030833D44C23702C46031DE35C303B80
:10100000C41C2C5D303C04EB840403EB4403CF4C44
:1010100023702C46831DE35C303B441D2C5D303C2B
:1010200004EB840403EB4403C94C2370831DD8B242
:1010300001227EE1022910D17AB9C24C431CE35C43
:10104000412B03D10123C34C237002E00023C14C88
:101050002370431CD8B201226BE1032972D1002A0C
:1010600070D1B84C431CE35C2C2B05D1DFEDBA0AE0
:10107000BA4BC3ED000A62E0B24C031DE35C303BA7
:101080002546C41C2C5D303C04EB840403EB440374
:1010900000EE903AB8EEE01B9FEDB13B81EE032BE2
:1010A0002C46831CE35C303B441C2C5D303C04EB41
:1010B000840403EB440300EE903AB8EEE01B9FED8E
:1010C000AA3B02EE031B9FEDAA2B21EE021BF7EEBB
:1010D000C10BA24BC3ED000A2C46831DE35C303BE1
:1010E0004FF47A7413FB04F4C31DEB5C303B03EB49
:1010F000C30505EB031304EB8304924D00F10803D1
:10110000EB5C303B03EB830304EB430400F1090386
:10111000EB5C303B234400EE903AB8EEE01B9FEDD1
:10112000962B21EE021BB7EEC10B8C4BD3ED000AC0
:1011300070EE800AC3ED000A00F10903D8B2012263
:10114000F7E0FFE704291ED1EAB97E4C431CE35CBB
:101150002C2B03D100238A4C237010E0794C431CC4
:10116000E35C4E2B03D10023864C237007E0754CC3
:10117000431CE35C532B02D10123824C2370431C9C
:10118000D8B20122D5E005297AD1002A78D16D4C58
:10119000431CE35C2C2B05D1DFED6F0A7A4BC3EDCA
:1011A000000A6AE0674C431DE35C303B2546041DA2
:1011B0002C5D303C04EB840403EB440300EE903AD6
:1011C000B8EEE01B9FED663B81EE032B2C46431CE3
:1011D000E35C303B642413FB04F4831CEB5C303B86
:1011E00003EB830304EB4304C31CEB5C303B23445D
:1011F00000EE903AB8EEE01B9FED5B3B02EE031B66
:101200009FED5B2B21EE021BF7EEC10B5E4BC3ED96
:10121000000A2C46C31DE35C303B4FF47A7413FB89
:1012200004F400F10803EB5C303B03EBC30505EB72
:10123000031304EB8304434D00F10903EB5C303BE3
:1012400003EB830304EB430400F10A03EB5C303B44
:10125000234400EE903AB8EEE01B9FED472B21EEC1
:10126000021BB7EEC10B484BD3ED000A70EE800AAB
:10127000C3ED000A00F10A03D8B2012259E0FFE7EA
:1012800006291ED1EAB92F4C431CE35C2C2B03D159
:1012900000233B4C237010E02A4C431CE35C452B9D
:1012A00003D10023364C237007E0264C431CE35C3B
:1012B000572B02D10123324C2370431CD8B2012298
:1012C00037E0072902D10AB9012232E0082902D108
:1012D0000AB901222DE009292BD152BB194C831CDC
:1012E000E35C303B2546441C2C5D303C04EB84041D
:1012F00003EB4403254C23702C46031DE35C303B79
:10130000C41C2C5D303C04EB840403EB4403204CF0
:1013100023702C46831DE35C303B441D2C5D303C28
:1013200004EB840403EB44031A4C2370831DD8B2EE
:101330000122431CD8B2184B1B789842FFF643AEEB
:1013400030BD00002A0B02202C0002202D000220BC
:101350002E00022032000220000000003C0002208B
:10136000333333333333E33F7B14AE47E17A843F87
:10137000000000000020AC40FA7E6ABC7493783F05
:101380003400022033000220380002202F00022007
:101390003000022031000220130002201FB500BFE0
:1013A00090E003A802AB002211460090464806F0E8
:1013B000BDF84648C07852280AD1444800794D28E3
:1013C00006D142484079432802D1FFF7F7FD2BE0D0
:1013D0003E48C07847280AD13C480079532806D1B6
:1013E0003A484079562802D1FFF7D6FC1CE037482E
:1013F000C07847280AD135480079532806D13348A8
:101400004079412802D1FFF763FC0DE02F48C078F6
:10141000472809D12D480079472805D12B48407924
:10142000412801D1FFF722FC802010210223CDE9C1
:1014300000102748027864210A2004F056FF80201B
:1014400010210223CDE900102248027864211E20D9
:1014500004F04BFF802010210223CDE900101E482C
:1014600002786421322004F040FF80201021022302
:10147000CDE90010194802786421462004F035FFB8
:10148000802010210223CDE9001015480278642144
:101490005A2004F02AFF802010210223CDE90010F9
:1014A0001048027864216E2004F01FFF40F6FF739D
:1014B0000D48027805490D4801F091FF02210C48C2
:1014C00000F02CF96DE70000680902202A0B0220C9
:1014D00031000220300002202F0002202C000220C8
:1014E0002D0002202E000220130002204C0E0220AC
:1014F00000040240F8B502460B46002100250024F6
:10150000002000BFE4E0012606FA01F51E6806EAA5
:101510000504AC4271D15E68022E02D05E68122EC4
:1015200013D1CF0802F1200656F827004E07F70E18
:101530000F26BE40B0434F07FF0E1E69BE4030432A
:10154000CF0802F1200646F8270010684F00032656
:10155000BE40B0431E7906F003064F00BE40304344
:1015600010605E68012E08D05E68022E05D05E68AD
:10157000112E02D05E68122E13D190684F00032600
:10158000BE40B0434F00DE68BE40304390605068BC
:1015900001268E40B0431E79C6F300168E403043BC
:1015A0005060D0684F000326BE40B0434F009E6895
:1015B000BE403043D0605E6806F08056B6F1805F72
:1015C000A8D100BF444E366846F48046424F3E6084
:1015D0003E46366806F48046009600BF00BF3F4E88
:1015E0008F0856F827008E07370F0F26BE40B043EE
:1015F0003B4EB24202D100262EE068E0394EB242A4
:1016000001D1012628E0384EB24201D1022623E062
:10161000364EB24201D103261EE0354EB24201D110
:10162000042619E0334EB24201D1052614E0324EB1
:10163000B24201D106260FE0304EB24201D1072658
:101640000AE02F4EB24201D1082605E02D4EB242EB
:1016500001D1092600E00A268F073F0FBE40304324
:101660001E4E8F0846F82700274E3068A0435E685C
:1016700006F48036B6F5803F00D12043224E30601C
:10168000361D3068A0435E6806F40036B6F5003FAC
:1016900000D120431C4E361D3060361D3068A043FB
:1016A0005E6806F48016B6F5801F00D12043164E02
:1016B00008363060361D3068A0435E6806F40016B8
:1016C000B6F5001F00D120430F4E0C363060491C88
:1016D0001029FFF418AFF8BD443802400838014023
:1016E000000002400004024000080240000C0240DA
:1016F000001002400014024000180240001C02408A
:101700000020024000240240003C014002461369D0
:101710000B400BB1012000E00020704742694A40B5
:10172000426170470AB1816101E00B048361704737
:101730000148006870470000040002200248006869
:10174000401C0149086070470400022010B5084899
:10175000006840F4007006490860052000F06CFA4B
:101760000F2000F007F800F01BFA002010BD000069
:10177000003C024070B50446074800684FF47A7197
:10178000B0FBF1F5284601F0ADFC00222146501EC9
:1017900000F014FA002070BD0000022070B504466D
:1017A0000E46154600BF94F8A000012801D1022082
:1017B00070BD012084F8A00000BF022084F8A100C1
:1017C00005EB850101EBC50204F1380101EB820054
:1017D00034223146FEF7C4FD2A463146204605F044
:1017E0001BF901202168486284F8A10000BF002095
:1017F00084F8A00000BF00BFDAE7000070B504461F
:10180000002500260CB9012070BD94F8A10028B96C
:10181000002084F8A000204600F084F8022084F81C
:10182000A1002068806920F0704021688861D4E9B7
:1018300001010843E1680843216908432168896977
:10184000084321688861206880683549084021681C
:101850008860A08A050420688068A169294308433C
:10186000216888602068C0682D4908402168C860E8
:10187000A08B05042068C068216A294308432168B9
:10188000C860206800692649084021680861A08C6A
:10189000050420680069A16A29430843216808619A
:1018A000206840691E49084021684861A08D0504F0
:1018B00020684069216B294308432168486194F8F6
:1018C0003500050294F8360006042068C06A00F06E
:1018D0007F402168C86246EA050094F83410084346
:1018E0002168C96A08432168C8622068406B40F0DB
:1018F0000400216848632068406B40F002002168C2
:1019000048632068806940F00100216888610020F8
:10191000C4F8A400012084F8A100002074E70000AE
:1019200000F800F010B586B0044600BF47480068D4
:1019300040F08060454908600846006800F080601B
:10194000009000BF00BF00BF40481438006840F45A
:1019500000003E49143908600846006800F40000A1
:10196000009000BF00BF00BF0846006840F00200C2
:1019700008600846006800F00200009000BF00BF49
:1019800000BF0846006840F0200008600846006874
:1019900000F02000009000BF00BF00BF08460068B4
:1019A00040F0400008600846006800F040000090E9
:1019B00000BF00BF00BF0846006840F0800008601C
:1019C0000846006800F08000009000BF00BF00BF24
:1019D0000846006840F4807008600846006800F41B
:1019E0008070009000BF00BF202001900120029075
:1019F00003900320049001A91548FFF77BFD4FF4E5
:101A00008060019002200290002003900320049047
:101A10000E20059001A90F48FFF76CFD4FF40C60F4
:101A2000019001A90C48FFF765FD4FF47E4001903D
:101A300001A90A48FFF75EFD40F2F760019001A995
:101A40000748FFF757FD06B010BD000044380240BC
:101A5000000402400014024000180240001C024032
:101A6000002002402DE9F04104460E4617469846F4
:101A700000BF94F8A000012802D10220BDE8F08147
:101A8000012084F8A00000BF022084F8A10008EB28
:101A9000880000EBC80104F1380000EB81052E60DE
:101AA000A86A30446860AF60E86A3844E86042463B
:101AB0002946204604F0B0FF01202168486284F8DE
:101AC000A10000BF002084F8A00000BF00BFD5E740
:101AD0002DE9F04105460E461746984600BF95F899
:101AE000A000012802D10220BDE8F081012085F884
:101AF000A00000BF022085F8A10008EB880000EBE1
:101B0000C80105F1380000EB810400202060206846
:101B1000304460600020A060A0683844E060A662A5
:101B2000E76242462146284604F076FF01202968F4
:101B3000486285F8A10000BF002085F8A00000BF22
:101B400000BFD1E74178154A11600178F9B1121D43
:101B500041681160017B0907C27A41EA0261827A19
:101B600041EAC241427B41EA8241827B41EA4241F1
:101B7000C27B41EA0241427A41EA0221027A41EA09
:101B8000420102781143054A0832116005E0002144
:101B9000024A121D1160121D1160704798ED00E09D
:101BA000704700BF00F01F020121914042099200DE
:101BB00002F1E022C2F8001100BF70472DE9F05F8A
:101BC00080460D461646002705F064F8074639465C
:101BD0002A46334601F00700C0F1070ABAF1040FA4
:101BE00002D94FF0040A01E0C0F1070AD14600F122
:101BF000040ABAF1070F02D24FF0000A01E0A0F187
:101C0000030AD4464FF0010A0AFA09FAAAF1010AB6
:101C10000AEA020A0AFA0CFA4FF0010B0BFA0CFB63
:101C2000ABF1010B0BEA030B4AEA0B0421464046D9
:101C300005F038F8BDE8F09F00BF00F00702064B42
:101C400019684FF6FF031940044B0B4343EA022186
:101C5000014B196000BF70470CED00E00000FA0571
:101C600038B5002400BF2048006840F080501E496D
:101C700008600846006800F08050009000BF00BF78
:101C80001A48006840F4803018490860FFF750FD9A
:101C9000044607E0FFF74CFD001BB0F57A7F01D941
:101CA000032038BD1148406800F48030B0F5803F13
:101CB000F0D10E48006840F400300C490860FFF78E
:101CC00037FD044607E0FFF733FD001BB0F57A7FD0
:101CD00001D90320E5E70548406800F40030B0F57D
:101CE000003FF0D10020DCE74038024000700040A7
:101CF0002DE9F8430446002600250027A846A946FA
:101D0000207800F0010088B100BFFE48006820F490
:101D10000000FC49086008460068616B0843F94907
:101D2000086000BF606B08B94FF00108206800F43C
:101D30000020B0F5002F13D1F2488430006820F461
:101D40004010E16B0843EF4984310860E06BB0F567
:101D5000801F01D14FF00108E06B08B94FF0010975
:101D6000206800F48010B0F5801F13D1E54884305E
:101D7000006820F44000216C0843E2498431086087
:101D8000206CB0F5800F01D14FF00108206C08B92C
:101D90004FF00109206800F08070B0F1807F01D120
:101DA0004FF00108207800F02000202870D100BFFB
:101DB000D4483830006840F08050D249383108604B
:101DC0000846006800F08050009000BF00BFCE4879
:101DD000006840F48070CC490860FFF7A9FC064613
:101DE00007E0FFF7A5FC801B642802D90320BDE8AB
:101DF000F883C548006800F480700028F1D0C1481D
:101E00006830006800F4407585B3208E00F440709F
:101E1000A8422BD0BB486830006820F44075B94810
:101E20006830006840F48030B64968310860084680
:101E3000006820F48030086008460560006800F003
:101E4000010098B1FFF774FC064608E0FFF770FC4C
:101E5000801B41F28831884201D90320C7E7A94895
:101E600068300068C0F340000028EFD000BF208E2B
:101E700000F44070B0F5407F0BD1A248006820F418
:101E8000F810A24A216B114008439E49086006E001
:101E900010E09C48006820F4F8109A4908609948BE
:101EA00068300068218EC1F30B0108439549683101
:101EB000086000BF207800F01000102810D100BF8B
:101EC00090488430006820F080708E49843108602A
:101ED00008460068A16B08438A498431086000BF46
:101EE000208800F48040B0F5804F09D185488830C3
:101EF000006820F44030616E0843824988310860F0
:101F0000208800F40040B0F5004F09D17D488830AA
:101F1000006820F44020A16E08437A4988310860A7
:101F2000206800F48030B0F5803F09D175488830D2
:101F3000006820F44010E16E08437249883108605F
:101F4000206800F40030B0F5003F09D16D488830BA
:101F5000006820F44000216F08436A498831086016
:101F6000207800F04000402809D166488830006899
:101F700020F00300616C08436249883108602078D2
:101F800000F08000802809D15E488830006820F089
:101F90000C00A16C08435B4988310860208800F47C
:101FA0008070B0F5807F09D156488830006820F0F5
:101FB0003000E16C0843534988310860208800F400
:101FC0000070B0F5007F09D14E488830006820F0DD
:101FD000C000216D08434B4988310860208800F417
:101FE0008060B0F5806F09D146488830006820F4E1
:101FF0004070616D0843434988310860208800F4CF
:102000000060B0F5006F09D13E488830006820F4C8
:102010004060A16D08433B4988310860208800F486
:102020008050B0F5805F09D136488830006820F4D0
:102030004050E16D0843334988310860208800F43E
:102040000050B0F5005F09D12E488830006820F4B8
:102050004040216E08432B4988310860206800F415
:102060008000B0F5800F09D126488830006820F044
:102070008060A16F0843234988310860206800F41C
:102080000010B0F5001F0FD11E488830006820F006
:102090000060E16F08431B4988310860E06FB0F1D0
:1020A000006F01D14FF00109207800F008000828E6
:1020B00001D14FF00109206800F48020B0F5802F95
:1020C00009D110488830006820F04070616F0843E3
:1020D0000C4988310860206800F40000B0F5000F5A
:1020E0000AD108488830006820F08050D4F8801069
:1020F0000843044988310860206800F08060B0F12E
:10210000806F05E00838024000700040FFFCFF0FC0
:1021100008D1FE48006820F00050D4F8841008432D
:10212000FA490860206800F00060B0F1006F0AD141
:10213000F648001F006820F00070D4F888100843AB
:10214000F249091F0860206800F08050B0F1805FFC
:102150000AD1EE48001F006820F08060D4F88C108F
:102160000843EA49091F0860B8F1010F03D020684D
:10217000B0F1007F7DD1E5489038006820F08060A4
:10218000E24990390860FFF7D3FA064606E0FFF708
:10219000CFFA801B642801D9032028E6DB48903859
:1021A0000068C0F3C0600028F1D1207800F0010081
:1021B000F0B3606BE0BBD5480C38006800F44030E9
:1021C0004FF4403191FAA1F1B1FA81F120FA01F511
:1021D000CE480C38006800F070604FF0706191FAE2
:1021E000A1F1B1FA81F120FA01F747F6C07191FA35
:1021F000A1F1B1FA81F1606888404FF4403191FA61
:10220000A1F1B1FA81F105FA01F108434FF07061D3
:1022100091FAA1F1B1FA81F107FA01F108434FF007
:10222000E04292FAA2F2B2FA82F2A168914000E092
:1022300003E00843B5490C390860206800F4002029
:10224000B0F5002F03D1E06BB0F5801F09D02068F6
:1022500000F48010B0F5801F50D1206CB0F5800FD5
:102260004CD1AA480C38006800F440304FF440319B
:1022700000E0CFE091FAA1F1B1FA81F120FA01F585
:10228000A2480C38006800F0E0404FF0E04191FABD
:10229000A1F1B1FA81F120FA01F747F6C07191FA84
:1022A000A1F1B1FA81F1606888404FF4403191FAB0
:1022B000A1F1B1FA81F105FA01F108434FF0706222
:1022C00092FAA2F2B2FA82F2E168914008434FF02A
:1022D000E04191FAA1F1B1FA81F107FA01F1084365
:1022E0008A490C3908608948001F006820F01F00E7
:1022F000616A491E08438549091F0860206800F08B
:102300008070B0F1807F3FD180480C38006800F0C9
:1023100070604FF0706191FAA1F1B1FA81F120FA89
:1023200001F57A480C38006800F0E0404FF0E041D9
:1023300091FAA1F1B1FA81F120FA01F747F6C071E3
:1023400091FAA1F1B1FA81F1606888404FF440320E
:1023500092FAA2F2B2FA82F22169914008434FF058
:10236000706191FAA1F1B1FA81F105FA01F1084326
:102370004FF0E04191FAA1F1B1FA81F107FA01F1D0
:10238000084362490C390860206800F00070B0F121
:10239000007F25D147F6C07191FAA1F1B1FA81F120
:1023A000606888404FF4403292FAA2F2B2FA82F2A8
:1023B0002169914008434FF0706292FAA2F2B2FA9A
:1023C00082F2E168914008434FF0E04292FAA2F2B3
:1023D000B2FA82F2A168914008434C490C39086076
:1023E0004A489038006840F0806048499039086059
:1023F000FFF79EF9064606E0FFF79AF9801B64286E
:1024000001D90320F3E4414890380068C0F3C0606C
:102410000028F1D0B9F1010F69D13C48903800682B
:1024200020F08050394990390860FFF781F906465D
:1024300006E0FFF77DF9801B642801D90320D6E46C
:10244000324890380068C0F340700028F1D120680D
:1024500000F40020B0F5002F01D1E06B38B1206806
:1024600000F48010B0F5801F4FD1206CF0BB2748DE
:102470000838006800F440304FF4403191FAA1F17F
:10248000B1FA81F120FA01F520480838006800F01F
:10249000E0404FF0E04191FAA1F1B1FA81F120FA68
:1024A00001F747F6C07191FAA1F1B1FA81F16069C3
:1024B00088404FF4403191FAA1F1B1FA81F105FA67
:1024C00001F108434FF0706292FAA2F2B2FA82F27E
:1024D000A169914008434FF0E04191FAA1F1B1FAAE
:1024E00081F107FA01F10843084901E00DE0BBE082
:1024F00008390860081D006820F4F851A06A401EE1
:1025000041EA00200149091F086001E090380240BB
:10251000206800F40010B0F5001F40D1E06FB0F16A
:10252000006F3CD15148006800F070604FF070615E
:1025300091FAA1F1B1FA81F120FA01F54B48006856
:1025400000F0E0404FF0E04191FAA1F1B1FA81F1E1
:1025500020FA01F747F6C07191FAA1F1B1FA81F1C1
:10256000606988404FF4403292FAA2F2B2FA82F2E5
:10257000216A914008434FF0706191FAA1F1B1FADC
:1025800081F105FA01F108434FF0E04191FAA1F120
:10259000B1FA81F107FA01F1084334490860207863
:1025A00000F00800082845D13048006800F070604D
:1025B0004FF0706191FAA1F1B1FA81F120FA01F5C1
:1025C0002A48006800F440304FF4403191FAA1F1FC
:1025D000B1FA81F120FA01F747F6C07191FAA1F141
:1025E000B1FA81F1606988404FF4403191FAA1F16C
:1025F000B1FA81F107FA01F108434FF0706191FAE5
:10260000A1F1B1FA81F105FA01F108434FF0E0427E
:1026100092FAA2F2B2FA82F2E169914008431349B8
:102620000860081D006820F44030E16A08430F4943
:10263000091D08600D488838006840F080500B493B
:1026400088390860FFF774F8064606E0FFF770F86F
:10265000801B642801D903209FE50448883800685E
:10266000C0F340700028F1D0002096E58838024081
:1026700070B504460D4600266648006800F00F005D
:10268000A8420ED26348006820F00F002843614939
:1026900008600846006800F00F00A84201D0012041
:1026A00070BD207800F00200022807D15A48006867
:1026B00020F0F000A168084357490860207800F036
:1026C0000100002860D06068012807D1524808380E
:1026D0000068C0F34040A0B90120E1E7606802282B
:1026E00007D14D4808380068C0F3406048B9012060
:1026F000D6E7494808380068C0F3400008B901200F
:10270000CEE74548006820F003006168084342496D
:102710000860FFF70DF806466068012810D108E050
:10272000FFF706F8801B41F28831884201D9032067
:10273000B6E73948006800F00C000428F0D123E027
:102740006068022810D108E0FEF7F2FF801B41F21A
:102750008831884201D90320A2E72F48006800F0A1
:102760000C000828F0D10FE008E0FEF7E1FF801B25
:1027700041F28831884201D9032091E72648006858
:1027800000F00C000028F0D12248006800F00F0093
:10279000A8420ED91F48006820F00F0028431D49A9
:1027A00008600846006800F00F00A84201D0012030
:1027B00076E7207800F00400042807D11648006866
:1027C00020F4E050E168084313490860207800F0E5
:1027D0000800082808D11048006820F460402169EA
:1027E00040EAC1000C49086000F04EF80A49096847
:1027F00001F0F001F02292FAA2F2B2FA82F2D14094
:10280000064A515CC840064908600F20FEF7B2FF37
:10281000002045E7003C0240083802403AAF00087B
:1028200000000220014800687047000000000220FC
:1028300000B5FFF7F7FF0749096801F4E0514FF4CD
:10284000E05292FAA2F2B2FA82F2D140024A515C0C
:10285000C84000BD083802404AAF000800B5FFF785
:10286000E1FF0749096801F460414FF4604292FAC0
:10287000A2F2B2FA82F2D140024A515CC84000BDD5
:10288000083802404AAF000870B50021002200233A
:102890000020274C246804F00C0424B1042C04D03C
:1028A000082C41D103E0234840E023483EE0204C7F
:1028B000241F246804F03F011D4C241F246804F4E5
:1028C000800484B11C4CB4FBF1F5194C241F24681E
:1028D00047F6C076344096FAA6F6B6FA86F6F44085
:1028E00005FB04F20FE0134CB4FBF1F5104C241F70
:1028F000246847F6C076344096FAA6F6B6FA86F60D
:10290000F44005FB04F20A4C241F246804F440340C
:102910004FF4403595FAA5F5B5FA85F5EC40641C01
:102920006300B2FBF3F001E0024800BF00BF70BDDE
:10293000083802400024F40040787D0138B5044690
:102940000025207800F00100002871D0FE480068C2
:1029500000F00C0004280DD0FB48006800F00C00CB
:10296000082813D1F848001F006800F48000B0F573
:10297000800F0BD1F44808380068C0F340400028AD
:1029800069D06068002866D1012038BD00BF60684A
:10299000B0F5803F08D1EC480838006840F480303A
:1029A000E949083908602EE0606868B9E6480838E7
:1029B000006820F48030E44908390860084600685F
:1029C00020F4802008601EE06068B0F5A02F0DD1D3
:1029D000DD480838006840F48020DB490839086089
:1029E0000846006840F4803008600CE0D64808389B
:1029F000006820F48030D44908390860084600682F
:102A000020F48020086000BF606890B1FEF790FE5F
:102A1000054606E0FEF78CFE401B642801D9032022
:102A2000B3E7C94808380068C0F340400028F1D037
:102A300011E0FEF77DFE054606E0FEF779FE401B3D
:102A4000642801D90320A0E7BF4808380068C0F314
:102A500040400028F1D1207800F00200022873D114
:102A6000B948006800F00C0058B1B748006800F0A1
:102A70000C00082821D1B448001F006800F4800031
:102A8000D8B9B14808380068C0F3400020B1E06808
:102A9000012801D0012078E7AB480838006820F011
:102AA000F800F82292FAA2F2B2FA82F22169914079
:102AB0000843A5490839086046E0E06850B3A248D9
:102AC0000838006840F001009F4908390860FEF7A7
:102AD0002FFE054606E0FEF72BFE401B022801D91B
:102AE000032052E7984808380068C0F340000028E7
:102AF000F1D095480838006820F0F800F82292FAE2
:102B0000A2F2B2FA82F22169914008438E49083953
:102B1000086019E08C480838006820F001008A49F4
:102B200008390860FEF704FE054606E0FEF700FEE1
:102B3000401B022801D9032027E783480838006892
:102B4000C0F340000028F1D1207800F008000828E8
:102B500036D16069D0B17C486C30006840F001002B
:102B600079496C310860FEF7E3FD054606E0FEF7A3
:102B7000DFFD401B022801D9032006E772486C30B4
:102B80000068C0F340000028F1D019E06E486C30B6
:102B9000006820F001006C496C310860FEF7C8FD48
:102BA000054606E0FEF7C4FD401B022801D90320BC
:102BB000EBE665486C300068C0F340000028F1D1B6
:102BC000207800F00400042871D100BF5E4838303E
:102BD000006840F080505C49383108600846006861
:102BE00000F08050009000BF00BF5848006840F4DB
:102BF000807056490860FEF79BFD054606E0FEF72B
:102C000097FD401B642801D90320BEE64F480068A9
:102C100000F480700028F2D000BFA068012808D11D
:102C200049486830006840F0010047496831086051
:102C30002DE0A06868B944486830006820F00100C1
:102C40004149683108600846006820F004000860C7
:102C50001DE0A06805280DD13B486830006840F0B1
:102C600004003949683108600846006840F00100F6
:102C700008600CE034486830006820F001003249F8
:102C8000683108600846006820F00400086000BF52
:102C9000A068A8B1FEF74CFD054609E0FEF748FD27
:102CA000401B41F28831884202D903206DE61BE0C7
:102CB000254868300068C0F340000028EED013E0DB
:102CC000FEF736FD054608E0FEF732FD401B41F2F7
:102CD0008831884201D9032057E61B4868300068D4
:102CE000C0F340000028EFD1A06988B316480068FF
:102CF00000F00C00082873D0A069022864D11248A3
:102D00000838006820F080700F4908390860FEF725
:102D10000FFD054606E0FEF70BFD401B022801D91A
:102D2000032032E6084808380068C0F340600028F5
:102D3000F1D1D4E90701084347F6C07292FAA2F232
:102D4000B2FA82F2616A04E0083802400070004082
:102D500058E0914008430122A16AC2EB51014FF4AF
:102D6000403292FAA2F2B2FA82F2914008434FF056
:102D7000706292FAA2F2B2FA82F2E16A91400843DA
:102D80004FF0E04292FAA2F2B2FA82F2216B914045
:102D900008431D490860081F006840F08070091F43
:102DA0000860FEF7C5FC054606E0FEF7C1FC401BC7
:102DB000022801D90320E8E51348001F0068C0F38A
:102DC00040600028F1D01DE00F48001F006820F08F
:102DD00080700D49091F0860FEF7AAFC054607E050
:102DE0000EE0FEF7A5FC401B022801D90320CCE52C
:102DF0000548001F0068C0F340600028F1D101E0E1
:102E00000120C2E50020C0E50438024070B5044648
:102E10000D460CB9012070BD94F82C0028B9002093
:102E200084F82D00204600F011F8022084F82C00D0
:102E3000211D2068FDF761FE2946D4E90002FDF757
:102E4000C7FE012084F82C000020E4E710B586B00E
:102E5000044600BF3E48006840F001003C4908605D
:102E60000846006800F00100009000BF00BF00BFEE
:102E700037480838006840F00400354908390860D0
:102E80000846006800F00400009000BF00BF00BFCB
:102E90000846006840F0080008600846006800F036
:102EA0000800009000BF00BF00BF0846006840F067
:102EB000100008600846006800F01000009000BF95
:102EC00000BF00BF0846006840F0200008600846C8
:102ED000006800F02000009000BF00BF00BF08465F
:102EE000006840F0400008600846006800F04000BC
:102EF000009000BF00BF0D20019002200290012031
:102F00000390032004900C20059001A91148FEF7BE
:102F1000F1FA4CF20370019001A90F48FEF7EAFAAA
:102F20004FF68370019001A90C48FEF7E3FA4FF6C3
:102F30003F00019001A90A48FEF7DCFA48F2371079
:102F4000019001A90748FEF7D5FA06B010BD0000B0
:102F50003838024000080240000C024000100240D5
:102F6000001402400018024070B504460D4694F863
:102F70002C00022800D170BD022084F82C002946C4
:102F80002068FDF7F4FD012084F82C000020F2E712
:102F900070B504460D46164694F82C00022800D160
:102FA00070BD022084F82C00324629462068FDF7C7
:102FB000E5FD2868022803D1052084F82C0002E0F2
:102FC000012084F82C000020EAE770B504460E4684
:102FD00015460CB9012070BD94F8450028B90020B1
:102FE00084F84400204600F01DF804F10801206830
:102FF000FDF714FD3146A2682068FDF74FFD294614
:10300000E36AD4E90102FDF7E5FCA168206850F805
:10301000210040F00100A268216841F82200002050
:10302000D9E7000010B586B0044600BF204800680C
:1030300040F001001E4908600846006800F00100E9
:10304000009000BF00BF00BF19480838006840F07A
:1030500008001749083908600846006800F00800B1
:10306000009000BF00BF00BF0846006840F010009D
:1030700008600846006800F01000009000BF00BF24
:103080004EF2B370019002200290012003900320C1
:1030900004900C20059001A90648FEF72BFA4FF684
:1030A0008070019001A90448FEF724FA06B010BD13
:1030B00038380240000C024000100240042808D1B9
:1030C0004FF0E021096941F004014FF0E022116165
:1030D00007E04FF0E021096921F004014FF0E02200
:1030E0001161704770B504462546681EB0F1807FB7
:1030F00001D301200FE0681E4FF0E02148610F214D
:103100004FF0FF3003F0CEFD00204FF0E02188614A
:1031100007200861002070BD10B504460CB90120DD
:1031200010BDA06900B100E000BF94F8690028B9A3
:10313000002084F86800204600F02AF8242084F853
:1031400069002068006820F00100216808602046BE
:1031500007F086FA012800D1E2E7606A10B1204644
:1031600007F0CEF92068406820F49040216848605C
:103170002068806820F02A00216888602068006844
:1031800040F0010021680860204607F02EFAC7E7EA
:1031900010B586B0044648492068884245D100BF32
:1031A0004648006840F0010044490860084600684D
:1031B00000F00100009000BF00BF00BF3F4810308A
:1031C000006840F400303D4910310860084600684E
:1031D00000F40030009000BF00BF042001900220E6
:1031E000029001200390022004900720059001A97D
:1031F0003348FEF77FF90820019001A93048FEF717
:1032000079F92068006840F01000216808602068A3
:10321000006840F02000216808602620FEF7C1FC0D
:10322000022203212620FEF7C9FC26492068884295
:103230003FD100BF2148006840F020001F490860CE
:103240000846006800F02000009000BF00BF00BFEB
:103250001A481030006840F080401849103108606A
:103260000846006800F08040009000BF00BF40208A
:103270000190022002900120039002200490082077
:10328000059001A91048FEF735F98020019001A9A9
:103290000D48FEF72FF92068006840F020002168F3
:1032A00008605220FEF77DFC022204215220FEF726
:1032B00085FC06B010BD00000044004030380240DC
:1032C0000000024000780040001402402DE9F84F51
:1032D00004460D46164699464FF0000A94F86A00D7
:1032E00020287AD105B116B90120BDE8F88F00BFBA
:1032F00094F86800012801D10220F6E7012084F843
:10330000680000BF0020583460612220A074FEF7DE
:103310000FFA824626806680583C00BFA068B0F550
:10332000805F0AD1206920B940F2FF10A4F85C0048
:103330001CE0FF20A4F85C0018E0A06848B92069F0
:1033400018B9FF20A4F85C0010E07F20A4F85C000E
:103350000CE0A068B0F1805F08D1206918B97F2027
:10336000A4F85C0002E03F20A4F85C0000BFB4F8C1
:103370005C8024E0B4F85A00401EA4F85A0053467A
:10338000002220212046CDF8009007F02FFB08B145
:103390000320AAE7A068B0F5805F09D1206938B999
:1033A0002F462068406A00EA08003880AD1C06E01D
:1033B0002068406A08F0FF01084005F8010BB4F8E6
:1033C0005A000028D6D1202084F86A0000BF0020CF
:1033D00084F8680000BF88E7FFE7022085E72DE951
:1033E000F84304460D4616461F464FF0000994F870
:1033F0006900202854D105B116B90120BDE8F88331
:1034000000BF94F86800012801D10220F6E70120EE
:1034100084F8680000BF00205034E061212060760D
:10342000FEF786F9814626806680503C21E0B4F89C
:103430005200401EA4F852004B4600228021204634
:10344000009707F0D3FA08B10320D7E7A068B0F5DA
:10345000805F0AD1206940B9A846B8F80000C0F3DF
:10346000080021688862AD1C03E015F8010B216893
:103470008862B4F852000028D9D14B46002240217E
:103480002046009707F0B2FA08B10320B6E72020E3
:1034900084F8690000BF002084F8680000BFADE731
:1034A0000220ABE700BFFEE770B5044600260D48DA
:1034B00005880D48006818B1204602F0CBFF0FE0E8
:1034C0000848408845430021084602F057FD02F0B5
:1034D00083FF002602E005490C80761CAE42FAD339
:1034E00070BD000058100220681102200000086022
:1034F00010B504465C4884715C48006850B12046B1
:1035000002F0CEFF5948C08A574908805748008BBF
:10351000488010BD002C51D1F020534908804FF451
:10352000A07048800846808849F24131884205D021
:103530004D48808845F21031884214D12C204A49E8
:1035400008812A2048812B2088810846808845F2FE
:103550001031884206D14FF4A070434908804FF4DF
:10356000F07048807BE04048808845F210518842E6
:1035700010D14FF430503C4908814FF42850488115
:103580004FF42C5088814FF4F07008804FF448704D
:10359000488064E03448808841F6631188425ED1F7
:1035A0002C20314908812B2048812A2088814FF422
:1035B000F07008804FF44870488050E04FF4A070DD
:1035C00029490880F02048800846808849F2413126
:1035D000884205D02448808845F21031884207D1BE
:1035E0002C20214908812A2048812B20888129E02C
:1035F0001D48808845F21051884210D14FF4305058
:10360000194908814FF4285048814FF42C50888183
:103610004FF4487008804FF4F070488012E0124870
:10362000808841F6631188420CD12C200E49088114
:103630002A2048812B2088814FF4487008804FF45D
:10364000F07048800848808845F21031884206D1E1
:103650004FF4F070044908804FF4A07048800020B7
:1036600002F052FB00BF54E75810022068110220FC
:1036700070B504460D4616464348006828B13246E8
:103680002946204602F022FF70BD4048808849F25A
:103690004131884205D03D48808845F2103188424A
:1036A00014D13A49488902F08BFE201202F07CFEC8
:1036B000E0B202F079FE3549888902F081FE2812D5
:1036C00002F072FEE8B202F06FFE54E02F488088EC
:1036D00045F21051884220D12C49488902F070FEF1
:1036E000201202F061FE29494989491C88B202F082
:1036F00067FEE0B202F058FE2449888902F060FEBD
:10370000281202F051FE21498989491C88B202F031
:1037100057FEE8B202F048FE2DE01C48808841F6D2
:103720006311884227D11948807920B91748008849
:10373000401E001B84B21549488902F041FE201248
:1037400002F032FEE0B202F02FFE201202F02CFE58
:10375000E0B202F029FE0D49888902F031FE2812FC
:1037600002F022FEE8B202F01FFE281202F01CFE58
:10377000E8B202F019FE0548008905490880891C55
:103780000E8000BF80E70000681102205810022060
:10379000FEFF076000B595B003F0D4F8FE498880BD
:1037A0000846808818B102F05DFF02F0E3B900BF5F
:1037B000FA48006840F00200F849086008460068CE
:1037C00000F00200019000BF00BF202010900120F7
:1037D000119012900320139010A9F148FDF78AFE72
:1037E00002F012FA4FF02040EE490860EE484860BF
:1037F000002088600021EB48C16001611021416117
:1038000000218161C16101624FF480514162002158
:1038100081624FF48041C1620021016341634FF432
:10382000801181631120099000200A9055200B908F
:1038300000200F9015200290002003901520049086
:103840000020089002AA09A9D648FFF7BEFB322043
:1038500007F09CF9D32002F0B3FD02F023FACE4921
:10386000888002F01FFACC49888002F01BFACA490E
:103870008880084680884FF6FF7101EA0020C6491B
:10388000888002F00FFAC44989880843C2498880B9
:103890000846808849F24131884278D0D42002F02D
:1038A0008FFD02F0FFF9BC49888002F0FBF9BA49AC
:1038B000888002F0F7F9B8498880084680884FF67A
:1038C000FF7101EA0020B449888002F0EBF9B249A7
:1038D00089880843B04988800846808845F21031BD
:1038E000884254D04FF45A4002F06AFD02F0DAF9EF
:1038F000A94988804FF45B4002F062FD02F0D2F9E2
:10390000A5498880084680884FF6FF7101EA0020AB
:10391000A14988804FF45C4002F052FD02F0C2F9E8
:103920009D49898808439C49888008468088B0F56D
:10393000004F02D145F2105088809748808845F2A8
:103940001051884223D0A12002F03AFD02F0AAF9DA
:103950009149888002F0A6F98F49888008468088BE
:103960004FF6FF7101EA00208B49888002F09AF936
:10397000894989880843884988800846808845F2B3
:103980006171884203D141F663108349888082487F
:10399000808849F2413188427ED1CF2002F010FD6B
:1039A000002002F001FDC12002F0FEFC302002F0F8
:1039B000FBFCED2002F004FD642002F0F5FC032086
:1039C00002F0F2FC122002F0EFFC812002F0ECFC8D
:1039D000E82002F0F5FC852002F0E6FC102002F061
:1039E000E3FC7A2002F0E0FCCB2002F0E9FC392075
:1039F00002F0DAFC2C2002F0D7FC002002F0D4FC0C
:103A0000342002F0D1FC022002F0CEFCF72002F0BC
:103A1000D7FC202002F0C8FCEA2002F0D1FC0020F4
:103A200002F0C2FC002002F0BFFCC02002F0C8FC83
:103A30001B2002F0B9FCC12002F0C2FC012002F000
:103A4000B3FCC52002F0BCFC302002F0ADFC3020FD
:103A500002F0AAFCC72002F0B3FCB72002F0A4FCDD
:103A6000362002F0ADFC482002F09EFC3A2002F025
:103A7000A7FC552002F098FCB12002F0A1FC002028
:103A800002F092FC1A2002F08FFCB62002F098FCA3
:103A90000A2002F089FC00E0A1E0A22002F084FCF0
:103AA000F22002F08DFC002002F07EFC262002F0C5
:103AB00087FC012002F078FCE02002F081FC0F205E
:103AC00002F072FC2A2002F06FFC282002F06CFC4D
:103AD000082002F069FC0E2002F066FC082002F0CB
:103AE00063FC542002F060FCA92002F05DFC43203E
:103AF00002F05AFC0A2002F057FC0F2002F054FC9E
:103B0000002002F051FC002002F04EFC002002F0E8
:103B10004BFC002002F048FCE12002F051FC0020A8
:103B200002F042FC152002F03FFC172002F03CFCA2
:103B3000072002F039FC112002F036FC062002F0CA
:103B400033FC2B2002F030FC562002F02DFC3C20F0
:103B500002F02AFC052002F027FC102002F024FCD1
:103B60000F2002F021FC3F2002F01EFC3F2002F05B
:103B70001BFC0F2002F018FC2B2002F021FC00207F
:103B800002F012FC002002F00FFC012002F00CFCFD
:103B90003F2002F009FC09E05810022030380240B2
:103BA000000402400C100220040100A02A2002F0B0
:103BB00007FC002002F0F8FB002002F0F5FB0020DB
:103BC00002F0F2FBEF2002F0EFFB112002F0F8FB15
:103BD000782006F0DBFF292002F0F2FBE5E5FE4845
:103BE000808845F21031884240F07C87ED2002F059
:103BF000E7FB012002F0D8FBFE2002F0D5FBEE200F
:103C000002F0DEFBDE2002F0CFFB212002F0CCFB35
:103C1000F12002F0D5FB012002F0C6FBDF2002F00C
:103C2000CFFB102002F0C0FBC42002F0C9FB8F20A4
:103C300002F0BAFBC62002F0C3FB002002F0B4FB86
:103C4000E22002F0B1FBE22002F0AEFBE22002F043
:103C5000ABFBBF2002F0B4FBAA2002F0A5FBB02012
:103C600002F0AEFB0D2002F09FFB002002F09CFB57
:103C70000D2002F099FB002002F096FB112002F0CB
:103C800093FB002002F090FB192002F08DFB002036
:103C900002F08AFB212002F087FB002002F084FB67
:103CA0002D2002F081FB002002F07EFB3D2002F07F
:103CB0007BFB002002F078FB5D2002F075FB00200A
:103CC00002F072FB5D2002F06FFB002002F06CFB43
:103CD000B12002F075FB802002F066FB002002F0AC
:103CE00063FB8B2002F060FB002002F05DFB96205E
:103CF00002F05AFB002002F057FBB22002F060FBFA
:103D0000002002F051FB002002F04EFB022002F0E6
:103D10004BFB002002F048FB032002F045FB002093
:103D200002F042FBB32002F04BFB002002F03CFB10
:103D3000002002F039FB002002F036FB002002F0E8
:103D400033FB002002F030FB002002F02DFB0020AE
:103D500002F02AFB002002F027FB002002F024FBE7
:103D6000002002F021FB002002F01EFB002002F0E8
:103D70001BFB002002F018FB002002F015FB0020C6
:103D800002F012FB002002F00FFB002002F00CFBFF
:103D9000002002F009FB002002F006FB002002F0E8
:103DA00003FB002002F000FB002002F0FDFA0020DF
:103DB00002F0FAFA002002F0F7FAB42002F000FB59
:103DC0008B2002F0F1FA002002F0EEFA962002F0C9
:103DD000EBFA002002F0E8FAA12002F0E5FA002058
:103DE00002F0E2FAB52002F0EBFA022002F0DCFA6F
:103DF000002002F0D9FA032002F0D6FA002002F0E7
:103E0000D3FA042002F0D0FA002002F0CDFAB62056
:103E100002F0D6FA002002F0C7FA002002F0C4FA3D
:103E2000B72002F0CDFA002002F0BEFA002002F026
:103E3000BBFA3F2002F0B8FA002002F0B5FA5E208B
:103E400002F0B2FA002002F0AFFA642002F0ACFAFD
:103E5000002002F0A9FA8C2002F0A6FA002002F05D
:103E6000A3FAAC2002F0A0FA002002F09DFADC20B8
:103E700002F09AFA002002F097FA702002F094FA09
:103E8000002002F091FA902002F08EFA002002F059
:103E90008BFAEB2002F088FA002002F085FADC2091
:103EA00002F082FA002002F07FFAB82002F088FACD
:103EB000002002F079FA002002F076FA002002F0E9
:103EC00073FA002002F070FA002002F06DFA002070
:103ED00002F06AFA002002F067FA002002F064FAA9
:103EE000BA2002F06DFA242002F05EFA002002F0FF
:103EF0005BFA002002F058FA002002F055FAC120C7
:103F000002F05EFA202002F04FFA002002F04CFA94
:103F1000542002F049FA002002F046FAFF2002F095
:103F200043FA002002F040FAC22002F049FA0A20C7
:103F300002F03AFA002002F037FA042002F034FAD4
:103F4000002002F031FAC32002F03AFA3C2002F0DD
:103F50002BFA002002F028FA3A2002F025FA00207D
:103F600002F022FA392002F01FFA002002F01CFAB7
:103F7000372002F019FA002002F016FA3C2002F075
:103F800013FA002002F010FA362002F00DFA002099
:103F900002F00AFA322002F007FA002002F004FAD6
:103FA0002F2002F001FA002002F0FEF92C2002F08E
:103FB000FBF9002002F0F8F9292002F0F5F90020C1
:103FC00002F0F2F9262002F0EFF9002002F0ECF9FD
:103FD000242002F0E9F901E058100220002002F04C
:103FE000E3F9242002F0E0F9002002F0DDF92320BB
:103FF00002F0DAF9002002F0D7F93C2002F0D4F9FF
:10400000002002F0D1F9362002F0CEF9002002F0B3
:10401000CBF9322002F0C8F9002002F0C5F92F20B8
:1040200002F0C2F9002002F0BFF92C2002F0BCF926
:10403000002002F0B9F9292002F0B6F9002002F0C0
:10404000B3F9262002F0B0F9002002F0ADF92420E7
:1040500002F0AAF9002002F0A7F9242002F0A4F946
:10406000002002F0A1F9232002F09EF9002002F0C6
:104070009BF9C42002F0A4F9622002F095F9002017
:1040800002F092F9052002F08FF9002002F08CF97D
:10409000842002F089F9002002F086F9F02002F075
:1040A00083F9002002F080F9182002F07DF9002049
:1040B00002F07AF9A42002F077F9002002F074F9F6
:1040C000182002F071F9002002F06EF9502002F081
:1040D0006BF9002002F068F90C2002F065F900206D
:1040E00002F062F9172002F05FF9002002F05CF99B
:1040F000952002F059F9002002F056F9F32002F061
:1041000053F9002002F050F9E62002F04DF90020AA
:1041100002F04AF9C52002F053F9322002F044F9C6
:10412000002002F041F9442002F03EF9002002F0A4
:104130003BF9652002F038F9002002F035F97620CD
:1041400002F032F9002002F02FF9882002F02CF959
:10415000002002F029F9C62002F032F9202002F0F6
:1041600023F9002002F020F9172002F01DF90020A9
:1041700002F01AF9012002F017F9002002F014F9F8
:10418000C72002F01DF9002002F00EF9002002F015
:104190000BF9002002F008F9002002F005F9C82010
:1041A00002F00EF9002002F0FFF8002002F0FCF807
:1041B000002002F0F9F8002002F0F6F8C92002F021
:1041C000FFF8002002F0F0F8002002F0EDF80020E7
:1041D00002F0EAF8002002F0E7F8002002F0E4F82C
:1041E000002002F0E1F8002002F0DEF8002002F0EA
:1041F000DBF8002002F0D8F8002002F0D5F800200B
:1042000002F0D2F8002002F0CFF8002002F0CCF843
:10421000002002F0C9F8002002F0C6F8002002F0E9
:10422000C3F8E02002F0CCF8162002F0BDF8002020
:1042300002F0BAF81C2002F0B7F8002002F0B4F83F
:10424000212002F0B1F8002002F0AEF8362002F092
:10425000ABF8002002F0A8F8462002F0A5F80020F4
:1042600002F0A2F8522002F09FF8002002F09CF821
:10427000642002F099F8002002F096F87A2002F00B
:1042800093F8002002F090F88B2002F08DF80020C7
:1042900002F08AF8992002F087F8002002F084F8F2
:1042A000A82002F081F8002002F07EF8B92002F088
:1042B0007BF8002002F078F8C42002F075F80020A6
:1042C00002F072F8CA2002F06FF8002002F06CF8D9
:1042D000D22002F069F8002002F066F8D92002F03E
:1042E00063F8002002F060F8E02002F05DF80020A2
:1042F00002F05AF8F32002F057F8002002F054F8C8
:10430000E12002F05DF8162002F04EF8002002F0E5
:104310004BF81C2002F048F8002002F045F822205B
:1043200002F042F8002002F03FF8362002F03CF89C
:10433000002002F039F8452002F036F8002002F0A3
:1043400033F8522002F030F8002002F02DF86420FB
:1043500002F02AF8002002F027F87A2002F024F870
:10436000002002F021F88B2002F01EF8002002F05D
:104370001BF8992002F018F8002002F015F8A82088
:1043800002F012F8002002F00FF8B92002F00CF849
:10439000002002F009F8C42002F006F8002002F024
:1043A00003F8CA2002F000F8002001F0FDFFD2203F
:1043B00001F0FAFF002001F0F7FFD82001F0F4FF30
:1043C000002001F0F1FFE02001F0EEFF002001F0FD
:1043D000EBFFF32001F0E8FF002001F0E5FFE22011
:1043E00001F0EEFF052001F0DFFF002001F0DCFF0F
:1043F0000B2001F0D9FF002001F0D6FF1B2001F0B7
:10440000D3FF002001F0D0FF342001F0CDFF0020C9
:1044100001F0CAFF442001F0C7FF002001F0C4FFF3
:104420004F2001F0C1FF002001F0BEFF612001F02C
:10443000BBFF002001F0B8FF792001F0B5FF00209C
:1044400001F0B2FF882001F0AFFF002001F0ACFFC7
:10445000972001F0A9FF002001F0A6FFA62001F09F
:10446000A3FF002001F0A0FFB72001F09DFF002076
:1044700001F09AFFC22001F097FF002001F094FFA5
:10448000C72001F091FF002001F08EFFD12001F044
:104490008BFF002001F088FFD62001F085FF00206F
:1044A00001F082FFDD2001F07FFF002001F07CFFA2
:1044B000F32001F079FF002001F076FFE32001F006
:1044C0007FFF052001F070FF002001F06DFF0A2042
:1044D00001F06AFF002001F067FF1C2001F064FF7B
:1044E000002001F061FF332001F05EFF002001F0A9
:1044F0005BFF442001F058FF002001F055FF5020E1
:1045000001F052FF002001F04FFF622001F04CFF4C
:10451000002001F049FF782001F046FF002001F063
:1045200043FF882001F040FF002001F03DFF97206D
:1045300001F03AFF002001F037FFA62001F034FF20
:10454000002001F031FFB72001F02EFF002001F024
:104550002BFFC22001F028FF002001F025FFC7201B
:1045600001F022FF002001F01FFFD12001F01CFF0D
:10457000002001F019FFD52001F016FF002001F006
:1045800013FFDD2001F010FF002001F00DFFF320EC
:1045900001F00AFF002001F007FFE42001F010FF06
:1045A000012001F001FF002001F0FEFE012001F0DA
:1045B000FBFE002001F0F8FE022001F0F5FE0020D5
:1045C00001F0F2FE2A2001F0EFFE002001F0ECFEE7
:1045D0003C2001F0E9FE002001F0E6FE4B2001F056
:1045E000E3FE002001F0E0FE5D2001F0DDFE002092
:1045F00001F0DAFE742001F0D7FE002001F0D4FEB5
:10460000842001F0D1FE002001F0CEFE932001F0C5
:10461000CBFE002001F0C8FEA22001F0C5FE002064
:1046200001F0C2FEB32001F0BFFE002001F0BCFE8D
:10463000BE2001F0B9FE002001F0B6FEC42001F05A
:10464000B3FE002001F0B0FECD2001F0ADFE002051
:1046500001F0AAFED32001F0A7FE002001F0A4FE85
:10466000DD2001F0A1FE002001F09EFEF32001F00C
:104670009BFE002001F098FEE52001F0A1FE002045
:1046800001F092FE002001F08FFE002001F08CFE70
:10469000002001F089FE022001F086FE002001F0DA
:1046A00083FE292001F080FE002001F07DFE3C20E9
:1046B00001F07AFE002001F077FE4B2001F074FE3D
:1046C000002001F071FE5D2001F06EFE002001F07F
:1046D0006BFE742001F068FE002001F065FE84206E
:1046E00001F062FE002001F05FFE932001F05CFE0D
:1046F000002001F059FEA22001F056FE002001F03A
:1047000053FEB32001F050FE002001F04DFEBE200C
:1047100001F04AFE002001F047FEC42001F044FEF3
:10472000002001F041FECD2001F03EFE002001F00E
:104730003BFED32001F038FE002001F035FEDC20E6
:1047400001F032FE002001F02FFEF32001F02CFEDC
:10475000002001F029FEE62001F032FE112001F0D8
:1047600023FE002001F020FE342001F01DFE002079
:1047700001F01AFE562001F017FE002001F014FE91
:10478000762001F011FE002001F00EFE772001F0EE
:104790000BFE002001F008FE662001F005FE00205F
:1047A00001F002FE882001F0FFFD002001F0FCFD79
:1047B000992001F0F9FD002001F0F6FDBB2001F089
:1047C000F3FD002001F0F0FD992001F0EDFD002047
:1047D00001F0EAFD662001F0E7FD002001F0E4FDB4
:1047E000552001F0E1FD002001F0DEFD552001F033
:1047F000DBFD002001F0D8FD452001F0D5FD0020B3
:1048000001F0D2FD432001F0CFFD002001F0CCFDEE
:10481000442001F0C9FD002001F0C6FDE72001F0B1
:10482000CFFD322001F0C0FD002001F0BDFD55207C
:1048300001F0BAFD002001F0B7FD762001F0B4FDD3
:10484000002001F0B1FD662001F0AEFD002001F076
:10485000ABFD672001F0A8FD002001F0A5FD672059
:1048600001F0A2FD002001F09FFD872001F09CFDDA
:10487000002001F099FD992001F096FD002001F043
:1048800093FDBB2001F090FD002001F08DFD9920EB
:1048900001F08AFD002001F087FD772001F084FD02
:1048A000002001F081FD442001F07EFD002001F098
:1048B0007BFD562001F078FD002001F075FD2320DE
:1048C00001F072FD002001F06FFD332001F06CFD5E
:1048D000002001F069FD452001F066FD002001F097
:1048E00063FDE82001F06CFD002001F05DFD00207B
:1048F00001F05AFD992001F057FD002001F054FD10
:10490000872001F051FD002001F04EFD882001F0CC
:104910004BFD002001F048FD772001F045FD00200F
:1049200001F042FD662001F03FFD002001F03CFD5A
:10493000882001F039FD002001F036FDAA2001F0A9
:1049400033FD002001F030FDBB2001F02DFD0020E3
:1049500001F02AFD992001F027FD002001F024FD3F
:10496000662001F021FD002001F01EFD552001F020
:104970001BFD002001F018FD552001F015FD002061
:1049800001F012FD442001F00FFD002001F00CFDAC
:10499000442001F009FD002001F006FD552001F042
:1049A00003FD002001F000FDE92001F009FDAA202F
:1049B00001F0FAFC002001F0F7FC002001F0F4FC0B
:1049C000002001F0F1FC002001F0FAFCAA2001F027
:1049D000EBFCCF2001F0F4FC002001F0E5FC00200E
:1049E00001F0E2FC002001F0DFFC002001F0DCFC23
:1049F000002001F0D9FC002001F0D6FC002001F0DD
:104A0000D3FC002001F0D0FC002001F0CDFC002000
:104A100001F0CAFC002001F0C7FC002001F0C4FC3A
:104A2000002001F0C1FC002001F0BEFC002001F0DC
:104A3000BBFC002001F0B8FC002001F0B5FCF02028
:104A400001F0BEFC002001F0AFFC502001F0ACFCF6
:104A5000002001F0A9FC002001F0A6FC002001F0DC
:104A6000A3FCF32001F0ACFC002001F09DFCF92038
:104A700001F0A6FC062001F097FC102001F094FC48
:104A8000292001F091FC002001F08EFC3A2001F079
:104A900097FC552001F088FC112001F091FC642066
:104AA00006F074F8292001F08BFC352001F088FC19
:104AB000002001F079FC512001F082FCFF2001F080
:104AC00073FC532001F07CFC2C2001F06DFC552080
:104AD00001F076FC822001F067FC2C2001F070FCD4
:104AE00001F048B8FE48808845F2105188427DD1D7
:104AF00055214FF4704001F079FCAA214FF20100DA
:104B000001F074FC52214FF2020001F06FFC082109
:104B10004FF2030001F06AFC01214FF2040001F0A2
:104B200065FC0D214FF4304001F060FC0D214BF28B
:104B3000010001F05BFC0D214BF2020001F056FC7C
:104B400034214FF4364001F051FC34214BF2016026
:104B500001F04CFC34214BF2026001F047FC0D21C6
:104B60004FF4314001F042FC0D214BF2011001F0F5
:104B70003DFC0D214BF2021001F038FC34214FF4C2
:104B8000374001F033FC34214BF2017001F02EFC70
:104B900034214BF2027001F029FC00214FF4324025
:104BA00001F024FC00214BF2012001F01FFC002148
:104BB0004BF2022001F01AFC24214FF4384001F09E
:104BC00015FC24214BF6010001F010FC24214BF6CA
:104BD000020001F00BFC01214FF43F4001F006FC04
:104BE0000F214FF4334001F001FC00E0FDE30F2101
:104BF0004BF2013001F0FAFB0F214BF2023001F0D1
:104C0000F5FB34214FF4394001F0F0FB34214BF631
:104C1000011001F0EBFB34214BF6021001F0E6FB32
:104C200008214FF4354001F0E1FB08214BF201501F
:104C300001F0DCFB08214BF2025001F0D7FB03210D
:104C40004FF4424001F0D2FB24214FF43A4001F0EE
:104C5000CDFB24214BF6012001F0C8FB24214BF6AB
:104C6000022001F0C3FB00214FF43C4001F0BEFBE9
:104C700078214BF6014001F0B9FB00214BF60240D0
:104C800001F0B4FB00214FF43D4001F0AFFB78216F
:104C90004BF6015001F0AAFB00214BF6025001F047
:104CA000A5FB00214FF43E4001F0A0FB64214BF630
:104CB000016001F09BFB00214FF4514001F096FB95
:104CC00033214DF2011001F091FB00214DF2021051
:104CD00001F08CFB34214DF2031001F087FB002121
:104CE0004DF2041001F082FB3A214DF2051001F063
:104CF0007DFB00214DF2061001F078FB4A214DF2B8
:104D0000071001F073FB00214DF2081001F06EFB5B
:104D10005C214DF2091001F069FB00214DF20A10EF
:104D200001F064FB81214DF20B1001F05FFB0021CB
:104D30004DF20C1001F05AFBA6214DF20D1001F0BE
:104D400055FB00214DF20E1001F050FBE5214DF214
:104D50000F1001F04BFB01214DF2101001F046FB4A
:104D600013214DF2111001F041FB01214DF21210FF
:104D700001F03CFB54214DF2131001F037FB0121EF
:104D80004DF2141001F032FB82214DF2151001F0AA
:104D90002DFB01214DF2161001F028FBCA214DF226
:104DA000171001F023FB02214DF2181001F01EFB39
:104DB00000214DF2191001F019FB02214DF21A10D9
:104DC00001F014FB01214DF21B1001F00FFB022139
:104DD0004DF21C1001F00AFB34214DF21D1001F0C0
:104DE00005FB02214DF21E1001F000FB67214DF280
:104DF0001F1001F0FBFA02214DF2201001F0F6FA2B
:104E000084214DF2211001F0F1FA02214DF222101D
:104E100001F0ECFAA4214DF2231001F0E7FA02218F
:104E20004DF2241001F0E2FAB7214DF2251001F005
:104E3000DDFA02214DF2261001F0D8FACF214DF211
:104E4000271001F0D3FA02214DF2281001F0CEFA1A
:104E5000DE214DF2291001F0C9FA02214DF22A108B
:104E600001F0C4FAF2214DF22B1001F0BFFA022139
:104E70004DF22C1001F0BAFAFE214DF22D1001F086
:104E8000B5FA03214DF22E1001F0B0FA10214DF2C7
:104E90002F1001F0ABFA03214DF2301001F0A6FA09
:104EA00033214DF2311001F0A1FA03214DF23210FD
:104EB00001F09CFA6D214DF2331001F097FA0021B8
:104EC0004FF4524001F092FA33214DF2012001F0EB
:104ED0008DFA00214DF2022001F088FA342101E020
:104EE000581002204DF2032001F080FA00214DF20B
:104EF000042001F07BFA3A214DF2052001F076FA08
:104F000000214DF2062001F071FA4A214DF20720EE
:104F100001F06CFA00214DF2082001F067FA5C21E3
:104F20004DF2092001F062FA00214DF20A2001F051
:104F30005DFA81214DF20B2001F058FA00214DF26B
:104F40000C2001F053FAA6214DF20D2001F04EFA8B
:104F500000214DF20E2001F049FAE5214DF20F201B
:104F600001F044FA01214DF2102001F03FFA132123
:104F70004DF2112001F03AFA01214DF2122001F018
:104F800035FA54214DF2132001F030FA01214DF28F
:104F9000142001F02BFA82214DF2152001F026FA9F
:104FA00001214DF2162001F021FACA214DF21720FD
:104FB00001F01CFA02214DF2182001F017FA00212D
:104FC0004DF2192001F012FA02214DF21A2001F0DF
:104FD0000DFA01214DF21B2001F008FA02214DF2D9
:104FE0001C2001F003FA34214DF21D2001F0FEF9DE
:104FF00002214DF21E2001F0F9F967214DF21F2028
:1050000001F0F4F902214DF2202001F0EFF98421A2
:105010004DF2212001F0EAF902214DF2222001F0A7
:10502000E5F9A4214DF2232001F0E0F902214DF22F
:10503000242001F0DBF9B7214DF2252001F0D6F94B
:1050400002214DF2262001F0D1F9CF214DF2272087
:1050500001F0CCF902214DF2282001F0C7F9DE2140
:105060004DF2292001F0C2F902214DF22A2001F06F
:10507000BDF9F2214DF22B2001F0B8F902214DF2D9
:105080002C2001F0B3F9FE214DF22D2001F0AEF9F4
:1050900003214DF22E2001F0A9F910214DF22F200D
:1050A00001F0A4F903214DF2302001F09FF93321E2
:1050B0004DF2312001F09AF903214DF2322001F036
:1050C00095F96D214DF2332001F090F900214FF454
:1050D000534001F08BF933214DF2013001F086F994
:1050E00000214DF2023001F081F934214DF20330FC
:1050F00001F07CF900214DF2043001F077F93A21FA
:105100004DF2053001F072F900214DF2063001F048
:105110006DF94A214DF2073001F068F900214DF296
:10512000083001F063F95C214DF2093001F05EF9BD
:1051300000214DF20A3001F059F981214DF20B3076
:1051400001F054F900214DF20C3001F04FF9A62185
:105150004DF20D3001F04AF900214DF20E3001F010
:1051600045F9E5214DF20F3001F040F901214DF2F2
:10517000103001F03BF913214DF2113001F036F9F6
:1051800001214DF2123001F031F954214DF213306A
:1051900001F02CF901214DF2143001F027F98221A0
:1051A0004DF2153001F022F901214DF2163001F0D7
:1051B0001DF9CA214DF2173001F018F902214DF204
:1051C000183001F013F900214DF2193001F00EF9F9
:1051D00002214DF21A3001F009F901214DF21B3084
:1051E00001F004F902214DF21C3001F0FFF83421E6
:1051F0004DF21D3001F0FAF802214DF21E3001F09F
:10520000F5F867214DF21F3001F0F0F802214DF260
:10521000203001F0EBF884214DF2213001F0E6F866
:1052200002214DF2223001F0E1F8A4214DF22330A9
:1052300001F0DCF802214DF2243001F0D7F8B7215B
:105240004DF2253001F0D2F802214DF2263001F066
:10525000CDF8CF214DF2273001F0C8F802214DF2F0
:10526000283001F0C3F8DE214DF2293001F0BEF8FC
:1052700002214DF22A3001F0B9F8F2214DF22B3023
:1052800001F0B4F802214DF22C3001F0AFF8FE210C
:105290004DF22D3001F0AAF803214DF22E3001F02D
:1052A000A5F810214DF22F3001F0A0F803214DF2A6
:1052B000303001F09BF833214DF2313001F096F897
:1052C00003214DF2323001F091F86D214DF233306F
:1052D00001F08CF800214FF4544001F087F833219D
:1052E0004DF2014001F082F800214DF2024001F040
:1052F0007DF834214DF2034001F078F800214DF2A1
:10530000044001F073F83A214DF2054001F06EF8C7
:1053100000214DF2064001F069F84A214DF20740A4
:1053200001F064F800214DF2084001F05FF85C21C3
:105330004DF2094001F05AF800214DF20A4001F007
:1053400055F881214DF20B4001F050F800214DF24B
:105350000C4001F04BF8A6214DF20D4001F046F84B
:1053600000214DF20E4001F041F8E5214DF20F40D1
:1053700001F03CF801214DF2104001F037F8132103
:105380004DF2114001F032F801214DF2124001F0CE
:105390002DF854214DF2134001F028F801214DF26F
:1053A000144001F023F882214DF2154001F01EF85F
:1053B00001214DF2164001F019F8CA214DF21740B3
:1053C00001F014F802214DF2184001F00FF800210D
:1053D0004DF2194001F00AF802214DF21A4001F095
:1053E00005F801214DF21B4000E005E300F0FEFF4F
:1053F00002214DF21C4000F0F9FF34214DF21D4016
:1054000000F0F4FF02214DF21E4000F0EFFF672193
:105410004DF21F4000F0EAFF02214DF2204000F063
:10542000E5FF84214DF2214000F0E0FF02214DF222
:10543000224000F0DBFFA4214DF2234000F0D6FF14
:1054400002214DF2244000F0D1FFB7214DF225405A
:1054500000F0CCFF02214DF2264000F0C7FFCF2123
:105460004DF2274000F0C2FF02214DF2284000F02B
:10547000BDFFDE214DF2294000F0B8FF02214DF2C0
:105480002A4000F0B3FFF2214DF22B4000F0AEFFB6
:1054900002214DF22C4000F0A9FFFE214DF22D40DB
:1054A00000F0A4FF03214DF22E4000F09FFF1021D9
:1054B0004DF22F4000F09AFF03214DF2304000F0F2
:1054C00095FF33214DF2314000F090FF03214DF262
:1054D000324000F08BFF6D214DF2334000F086FF2B
:1054E00000214FF4554000F081FF33214DF201506F
:1054F00000F07CFF00214DF2025000F077FF3421D4
:105500004DF2035000F072FF00214DF2045000F004
:105510006DFF3A214DF2055000F068FF00214DF279
:10552000065000F063FF4A214DF2075000F05EFF85
:1055300000214DF2085000F059FF5C214DF2095056
:1055400000F054FF00214DF20A5000F04FFF81217E
:105550004DF20B5000F04AFF00214DF20C5000F0CC
:1055600045FFA6214DF20D5000F040FF00214DF205
:105570000E5000F03BFFE5214DF20F5000F036FFDA
:1055800001214DF2105000F031FF13214DF2115066
:1055900000F02CFF01214DF2125000F027FF5421A2
:1055A0004DF2135000F022FF01214DF2145000F093
:1055B0001DFF82214DF2155000F018FF01214DF220
:1055C000165000F013FFCA214DF2175000F00EFFE5
:1055D00002214DF2185000F009FF00214DF2195040
:1055E00000F004FF02214DF21A5000F0FFFE0121ED
:1055F0004DF21B5000F0FAFE02214DF21C5000F05B
:10560000F5FE34214DF21D5000F0F0FE02214DF266
:105610001E5000F0EBFE67214DF21F5000F0E6FE39
:1056200002214DF2205000F0E1FE84214DF2215084
:1056300000F0DCFE02214DF2225000F0D7FEA42142
:105640004DF2235000F0D2FE02214DF2245000F022
:10565000CDFEB7214DF2255000F0C8FE02214DF2DB
:10566000265000F0C3FECF214DF2275000F0BEFEC1
:1056700002214DF2285000F0B9FEDE214DF22950F2
:1056800000F0B4FE02214DF22A5000F0AFFEF221EC
:105690004DF22B5000F0AAFE02214DF22C5000F0EA
:1056A000A5FEFE214DF22D5000F0A0FE03214DF28B
:1056B0002E5000F09BFE10214DF22F5000F096FE70
:1056C00003214DF2305000F091FE33214DF2315064
:1056D00000F08CFE03214DF2325000F087FE6D2168
:1056E0004DF2335000F082FE00214FF4564000F09E
:1056F0007DFE33214DF2016000F078FE00214DF275
:10570000026000F073FE34214DF2036000F06EFE83
:1057100000214DF2046000F069FE3A214DF205606F
:1057200000F064FE00214DF2066000F05FFE4A21A9
:105730004DF2076000F05AFE00214DF2086000F0C3
:1057400055FE5C214DF2096000F050FE00214DF243
:105750000A6000F04BFE81214DF20B6000F046FE26
:1057600000214DF20C6000F041FEA6214DF20D60CB
:1057700000F03CFE00214DF20E6000F037FEE52106
:105780004DF20F6000F032FE01214DF2106000F08A
:105790002DFE13214DF2116000F028FE01214DF283
:1057A000126000F023FE54214DF2136000F01EFE43
:1057B00001214DF2146000F019FE82214DF21560B6
:1057C00000F014FE01214DF2166000F00FFECA2118
:1057D0004DF2176000F00AFE02214DF2186000F051
:1057E00005FE00214DF2196000F000FE02214DF28D
:1057F0001A6000F0FBFD01214DF21B6000F0F6FD88
:1058000002214DF21C6000F0F1FD34214DF21D60CB
:1058100000F0ECFD02214DF21E6000F0E7FD672173
:105820004DF21F6000F0E2FD02214DF2206000F019
:10583000DDFD84214DF2216000F0D8FD02214DF202
:10584000226000F0D3FDA4214DF2236000F0CEFDD4
:1058500002214DF2246000F0C9FDB7214DF2256010
:1058600000F0C4FD02214DF2266000F0BFFDCF2103
:105870004DF2276000F0BAFD02214DF2286000F0E1
:10588000B5FDDE214DF2296000F0B0FD02214DF2A0
:105890002A6000F0ABFDF2214DF22B6000F0A6FD76
:1058A00002214DF22C6000F0A1FDFE214DF22D6091
:1058B00000F09CFD03214DF22E6000F097FD1021B9
:1058C0004DF22F6000F092FD03214DF2306000F0A8
:1058D0008DFD33214DF2316000F088FD03214DF242
:1058E000326000F083FD6D214DF2336000F07EFDEB
:1058F00055214FF4704000F079FDAA214FF20100CC
:1059000000F074FD52214FF2020000F06FFD0821FB
:105910004FF2030000F06AFD00214FF2040000F096
:1059200065FDCC214FF4314000F060FD00214BF2C9
:10593000011000F05BFD05214FF4364000F056FDEC
:1059400070214FF4374000F051FD70214BF201708F
:1059500000F04CFD01214FF4384000F047FD0321D9
:105960004BF6010000F042FD03214BF6020000F06F
:105970003DFD03214BF6030000F038FD02214FF4FA
:105980003C4000F033FD00214BF6014000F02EFDBD
:1059900000214BF6024000F029FDD0214FF4494090
:1059A00000F024FD02214CF6011000F01FFD5021F3
:1059B0004CF6021000F01AFD50214CF6031000F0D6
:1059C00015FD50214CF6041000F010FD00214FF49D
:1059D000545000F00BFD55214FF4685000F006FDC7
:1059E0004FF4885000F0ECFC782005F009F94FF4F2
:1059F000245000F0E5FCBDE08048808841F663114A
:105A00008842F8D1E22000F0DBFC1D2000F0CCFC45
:105A1000022000F0C9FC042000F0C6FC642005F060
:105A2000EFF8E02000F0CCFC012000F0BDFC0A20E3
:105A300005F0ACF8E02000F0C3FC032000F0B4FC5B
:105A40000C2005F0A3F8012000F0BAFC0A2005F0B4
:105A50009DF8E62000F0B4FC2F2000F0A5FCFF200C
:105A600000F0A2FCFF2000F09FFCB02000F0A8FC9A
:105A7000202000F099FC002000F096FC032000F0AC
:105A800093FC40F21F3000F08FFC012000F08CFCF2
:105A900040F2DF1000F088FC002000F085FCB4200C
:105AA00000F08EFC042000F07FFC40F21F4000F06C
:105AB0007BFC002000F078FC2E2000F075FC00201C
:105AC00000F072FC002000F06FFC002000F06CFC85
:105AD000002000F069FCB62000F072FC022000F00B
