:030A510001790028
:10072A007F03120A2A1209D112091CE47879F6FF0A
:10073A00120640E56E70FC7879E61460F624F160E2
:10074A002124DF60EE2431702E7F04120A2A787980
:10075A007601120998EF70DB78797631C2B4C2B5A6
:10076A0080D17F02120A2A120AC4787AEFF6120698
:10077A0040E47879F680BC7F01120A2AE4FF120667
:07078A0040E47879F680AC31
:1009D10043920143B208C2B4C2B57580FF7590FF5E
:1009E10075A0FF75B0F775C00FC290E4F5B8F5B703
:1009F100D2B8D2B9D2BC43B701C2A8C2AAD2AF22DF
:080846007F647E007D007C0050
:08084E008F5F8E5E8D5D8C5CF6
:10085600E4F560F561F582F583F560F561E4F5830D
:10086600F582AF82AE83E4FCFDAB5FAA5EA95DA80C
:100876005CD31200FC4006000000A380E50561E59C
:0B08860061700205606405456070D2DF
:010891002244
:0808D8008F0C8E0B8D0A8C09B8
:1008E000E4F50DF50EF582F583F50DF50EE4F583CF
:1008F000F582AF82AE83E4FCFDAB0CAA0BA90AA87B
:1009000009D31200FC4006000000A380E5050EE5B7
:0B0910000E7002050D6405450D70D24D
:01091B0022B9
:020A2A008F0F2C
:100A2C00E4F510E510C3950F501AC2B4C2B57F9807
:100A3C007E3A12084AD2B4D2B57F987E3A12084A4E
:040A4C00051080DF32
:010A50002283
:10064000EF24FD601C24FC602A14603924077047E5
:10065000E4F569F568F567F5667572B87571088037
:1006600046E4F569756810F567F5667572B07571E1
:100670000A8034E4F569756820F567F566757220BF
:1006800075710A8022E4F569756830F567F566755D
:1006900072907571098010E4F569756850F567F519
:1006A00066757270757111F570F56F12050E7F0F1A
:0606B000120A760207F4B5
:100A9300E4FEC297EF30E704D2928002C292D2936F
:0A0AA300EF25E0FFC2930EBE08EA43
:010AAD002226
:10099800E4F50FF510F50F120ACA120846120460A2
:1009A800EF7002800B7F0A1208481206B6EF700833
:1009B80012091C12084680057510018009050FE50B
:0809C8000FC3940540D1AF10EC
:0109D0002204
:0300030002095D92
:10095D00C0E0C0F0C083C082C0D075D000C000C060
:10096D0001C002C003C004C005C006C007120120AB
:10097D00D007D006D005D004D003D002D001D000CE
:0B098D00D0D0D082D083D0F0D0E03278
:10089200626569206A696E67000000000073686F14
:1008A200752064750000000000007368616E6720A7
:1008B200686169000000007469616E206A696E00F7
:1008C2000000000063686F6E672071696E67000048
:0608D2000001010307080C
:100A5400046600000000046F00000000046200004F
:100A64000000046A00000000017800016E000175B6
:010A74000F72
:10091C00D2B37F017E007D007C0012084EC2B37FF3
:10092C00017E007D007C0012084ED2B37F017E0058
:10093C007D007C0012084EC2A67F017E007D007CEB
:10094C000012084ED2A67F017E007D007C000208BA
:01095C004E4C
:10023100E4F56E7F06120AB97D357F17120AAE7F8B
:100241000A7E007D007C0012084E7F06120AB97DED
:10025100037F89120AAE7F057E007D007C001208B3
:100261004E7D437FCF120AAE7F057E007D007C006C
:1002710012084E7D027FCB120AAE7D0A7F11120A4F
:10028100AE7878E6B44019E4FD7F1E120AAE7D0F08
:100291007F19120AAE7D187F1B120AAE7D2B8017C3
:1002A100E4FD7F1E120AAE7D3F7F19120AAE7D4822
:1002B1007F1B120AAE7D1F7F1D120AAE7F0A7E00D0
:1002C1007D007C0012084E7D047FCD120AAE7D4C6C
:1002D1007F17120AAE7F057E007D007C0012084E5A
:1002E100E4FD7FB9120AAE7D4F7FCF120AAE7DFFCA
:0502F1007F6F020AAE60
:10050E00787876401202317D027FBD120AAE7D48A8
:10051E007F17120AAE7F0A7E007D007C0012084E05
:10052E007D527F85120AAEE4FD7F8F120AAEE4FD86
:10053E007F81120AAEE4FD7F83120AAE7DFF7F8EAD
:10054E00120AAE7DFF7F8D120AAE7F017E007D0006
:10055E007C0012084E7DFF7F87120AAE7DFF7F89D9
:10056E00120AAE7F017E007D007C0012084EE4FD73
:10057E007F22120AAEE4FD7F23120AAE7DEF7F20AA
:10058E00120AAE7D077F21120AAE7D777F24120AF2
:10059E00AE7D037F25120AAE7DBB7F26120AAE7D8D
:0605AE00017F27020AAEE6
:1007910078787608120231E4FD7FBD120AAE7D48F9
:1007A1007F17120AAE7F0A7E007D007C0012084E80
:1007B1007D807F3C120AAE7D077F3E120AAE7DFF2F
:1007C1007F38120AAE7D077F3A120AAEE4FD7F4000
:1007D100120AAE7D087F42120AAEE4FD7F44120A7E
:1007E100AE7D087F46120AAE7F017E007D007C004F
:0307F10002084EAD
:10012000E4F508C2A87F2B120AB97874A60778787C
:10013000E664087051FD7F29120AAEE4FD7F0212C9
:100140000AAE7874E630E42D7FB2120AB9EF64216A
:1001500070237FBF120AB9BF351B7FBA120AB98F4D
:1001600008E508D39400400DE508D39404500678C0
:10017000797610800478797611E4FD7F2B120AAE2F
:10018000E4FD7F1C805E7F29120AB97873A6077F81
:1001900002120AB97876A607E4FD7F29120AAEE4B6
:1001A000FD7F02120AAE7FBA120AB9EF30E538E4D9
:1001B000FD7F2B120AAEE4FD7FBA120AAEE4FD7F8A
:1001C000BC120AAEE4F56E7D017F08120AAE7F050F
:1001D0007E007D007C001208D8E4FD7F08120AAE84
:1001E000E4FD7F33020AAEAF72AE71AD70AC6FAB9F
:1001F00065AA64A963A862C31200FC40117D017F57
:10020000BC120AAE7D107F29120AAED2A8221203B8
:10021000AB7873E6FD7F29120AAE7876E6FD7F02A1
:10022000120AAE7F0A7E007D007C001208D8D2A898
:0102300022AB
:1007F400E4F565F564F563F562756E01AF72AE718B
:10080400AD70AC6FAB65AA64A963A862C31200FCA7
:10081400502F1202F6E4FD7FBA120AAE7D487F170C
:10082400120AAE7D017F33120AAE7D047F29120ABB
:10083400AE7D017F02120AAE7D5A7F85120AAED2C6
:02084400A822E8
:100A76007875A607C3740F9F540F25E025E044C37D
:0D0A8600FD7F8E120AAE7D787F87020AAEDA
:1002F600E5692565F512E5683564F511E567356349
:10030600F510E5663562F50FD297C293C2977F0B5B
:10031600120A93E512FFE511FEE510FDE4FC7810E4
:1003260012010D120A93E512FFE511FEE4FDFC78B9
:100336000812010D120A93E512FFE4120A937FFFD9
:10034600120A9380507877E620E355AF72AE71AD0E
:1003560070AC6FAB65AA64A963A862C31200FC50B7
:100366003FE4F513FFC293E51325E0F513D293A2FC
:1003760096E43342130FBF08ECAD137F01120AAEA9
:10038600E5652401F565E43564F564E43563F563F4
:10039600E43562F5627F06120AB97877A60780A56A
:0403A600D297C29395
:0103AA002230
:1003AB00E5692565F50CE5683564F50BE56735639F
:1003BB00F50AE5663562F509D297C293C2977F0BB2
:1003CB00120A93E50CFFE50BFEE50AFDE4FC781041
:1003DB0012010D120A93E50CFFE50BFEE4FDFC7810
:1003EB000812010D120A93E50CFFE4120A937FFF2A
:1003FB00120A9380507877E620E355AF72AE71AD59
:10040B0070AC6FAB65AA64A963A862C31200FC5001
:10041B003FE4F50DFFC293E50D25E0F50DD293A258
:10042B0096E433420D0FBF08ECAD0D7F01120AAEFF
:10043B00E5652401F565E43564F564E43563F5633E
:10044B00E43562F5627F06120AB97877A60780A5B4
:04045B00D297C293DF
:01045F00227A
:100A0100E4F55BF55A7FB2120AB9BF2105755B01A6
:100A110080147F0A7E007D007C0012084E055AE595
:080A21005AC3940A40DFAF5BE9
:010A290022AA
:030ACA000207918F
:1006B6007D437F35120AAE7D097F1C120AAE7D206E
:1006C6007FBD120AAE7D017F08120AAE7F017E0051
:1006D6007D007C0012084EE4FD7F08120AAE7F0101
:1006E6007E007D007C0012084E120A01EF7002FFA8
:1006F600227DFF7FB2120AAE7D067F37120AAE7FD9
:10070600057E007D007C0012084E7D0B7F1C120AC0
:10071600AE7D107F29120AAEE4FD7FBD120AAED26D
:04072600A87F012285
:1004600078147C007D007BFF7A0879927E007F41C2
:100470001200D678557C007D007BFF7A0879D37E08
:10048000007F051200D6751201E4F511120A01EF82
:100490007004F512807574552511F8E6FD7FC112C0
:1004A0000AAEE4FD7FC3120AAE7D047F08120AAED5
:1004B0007F017E007D007C0012084EE4FD7F081263
:1004C0000AAE7F017E007D007C0012084EE4F51329
:1004D000E51175F00DA424142513F8E6FD600E7FD8
:1004E00005120AAE0513E513C3941440E3AD137F60
:1004F000B9120AAE7DFF7FB2120AAE7D047F3712B9
:0D0500000AAE0511E511C394054081AF124C
:01050D0022CB
:060AC4007FC5120AB922F1
:0B0AAE00908100EFF0908000EDF0223E
:0B0AB900908100EFF0908000E0FF2231
:030000000205B442
:0C05B400787FE4F6D8FD75817A0205FB23
:10000600E709F608DFFA8046E709F208DFFA803EDC
:1000160088828C83E709F0A3DFFA8032E309F608C9
:10002600DFFA8078E309F208DFFA807088828C8331
:10003600E309F0A3DFFA806489828A83E0A3F608E5
:10004600DFFA805889828A83E0A3F208DFFA804CBF
:1000560080D280FA80C680D4806980F28033801096
:1000660080A680EA809A80A880DA80E280CA8033FF
:1000760089828A83ECFAE493A3C8C582C8CCC58377
:10008600CCF0A3C8C582C8CCC583CCDFE9DEE78047
:100096000D89828A83E493A3F608DFF9ECFAA9F0C6
:1000A600EDFB2289828A83ECFAE0A3C8C582C8CC1C
:1000B600C583CCF0A3C8C582C8CCC583CCDFEADE35
:1000C600E880DB89828A83E493A3F208DFF980CC97
:1000D60088F0EF60010E4E60C388F0ED2402B40490
:1000E6000050B9F582EB2402B4040050AF23234537
:0600F60082239000567306
:1000FC00EB9FF5F0EA9E42F0E99D42F0E89C45F05A
:01010C0022D0
:10010D00E8600FECC313FCED13FDEE13FEEF13FFD0
:03011D00D8F122F4
:1005C00002072AE493A3F8E493A34003F68001F220
:1005D00008DFF48029E493A3F85407240CC8C3333C
:1005E000C4540F4420C8834004F456800146F6DF0B
:1005F000E4800B0102040810204080900A51E47E40
:10060000019360BCA3FF543F30E509541FFEE493FF
:10061000A360010ECF54C025E060A840B8E493A3C6
:10062000FAE493A3F8E493A3C8C582C8CAC583CAF1
:10063000F0A3C8C582C8CAC583CADFE9DEE780BEA9
:010A75000080
:00000001FF
